:10000000800075814074007820F608B827FBD2B2D2
:100010001126118811EA3130E522B44002C294B4AD
:100020000402D29480EEC2A7113B319990009E74D5
:1000300001115A9000AD7402115A22743811BE3168
:1000400099743811BE3199743811BE3199740C11FC
:10005000BE3199740111BE319922B4010C74801122
:10006000BE117F748011BE800A74C011BE117F74EE
:10007000C011BEE493B400012211CBA380F5227815
:1000800018742011CBD8FA229000907401115A22D2
:100090002052656420436F6E74726F6C20002020C4
:1000A0002020202020202020202020200020204947
:1000B000522D434F44453A202D2D48202000F580F5
:1000C000C2A6C2A5D2A711D8C2A722F580D2A6C2C5
:1000D000A5D2A711D8C2A7227FFADFFE22C0E0E591
:1000E000F024C011BED0E011CB22782030B20280C3
:1000F000FB7C14318CDCFC20B2F220B204318C8009
:10010000F97B0030B204318C80F920B204318C804C
:10011000F97A00318C20B2137408C39AE613F60BF7
:10012000BB08E07B0008B824DA80040ABA1EE42287
:10013000E522F4B52304313B316E2275260BE5220E
:1001400054F0C4C0E0C3940AD0E040022407243035
:100150008526F011DDE522540FC0E0C3940AD0E0FB
:1001600040022407243005268526F011DD227E6416
:10017000317BB295DEFA7D193181227FB400DFFD3B
:10018000227E327F64DFFEDEFADDF6227D017E0212
:100190007F20DFFEDEFADDF6227E197F64DFFEDEE1
:0201A000FA2241
:00000001FF
