:0200000000946A
:020001000012EB
:02000200018477
:02000300009467
:0200040000906A
:02000500002CCD
:020006000024D4
:0200070000A255
:020008000010E6
:020009000034C1
:02000A00008470
:02000B00008073
:02000C0001846D
:02000D0000826F
:02000E0000A848
:02000F0000A44B
:0200100000806E
:020011000000ED
:020012000004E8
:020013000032B9
:0200140000A446
:0200150000A049
:0200160000C424
:020017000000E7
:02001800008462
:02001900008461
:02001A00018261
:02001B0000944F
:02001C000100E1
:02001D00000CD5
:02001E000040A0
:02001F000004DB
:0200200001A439
:020021000022BB
:020022000100DB
:02002300007467
:0200240000A436
:020025000022B7
:02002600011CBB
:020027000108CE
:02002800017065
:02002900018252
:02002A0001488B
:02002B000000D3
:02002C000004CE
:02002D0000745D
:02002E000004CC
:02002F0000448B
:0200300001923B
:0200310000CA03
:0200320000626A
:0200330000CCFF
:020034000006C4
:0200350000E0E9
:02003600014681
:02003700004087
:020038000100C5
:02003900005075
:02003A0001487B
:02003B00004083
:02003C000108B9
:02003D0000625F
:02003E0000D4EC
:02003F0000427D
:0200400000803E
:0200410000E0DD
:0200420001407B
:020043000002B9
:0200440000E0DA
:020045000010A9
:02004600012097
:02004700004C6B
:02004800009422
:02004900004273
:02004A00002292
:02004B0000C8EB
:02004C00011C95
:02004D00002A87
:02004E00002090
:02004F0000307F
:02005000019419
:020051000000AD
:02005200003A72
:02005300001893
:0200540000A00A
:02005500004069
:02005600000C9C
:02005700007037
:02005800001096
:020059000000A5
:02005A0000089C
:02005B00000A99
:02005C00007032
:02005D000000A1
:02005E00018817
:02005F0000504F
:0200600000801E
:02006100008419
:0200620000D2CA
:0200630000207B
:02006400014C4D
:02006500004851
:02006600011087
:0200670001A0F6
:0200680000880E
:02006900011282
:02006A00018013
:02006B00000291
:02006C0001A0F1
:02006D000198F8
:02006E00000090
:02006F00011876
:0200700001800D
:02007100005E2F
:0200720001A2E9
:0200730000A0EB
:02007400001278
:02007500012266
:0200760001D0B7
:02007700001077
:02007800012065
:02007900017212
:02007A00000084
:02007B0001265C
:02007C0001542D
:02007D00000E73
:02007E00010877
:02007F0001126C
:02008000001A64
:0200810001403C
:02008200000874
:0200830000D0AB
:02008400017009
:0200850001E098
:02008600010473
:0200870001B2C4
:02008800017203
:0200890001A0D4
:02008A00014033
:02008B000190E2
:02008C00010A67
:02008D00016C04
:02008E00012847
:02008F0001046A
:0200900001224B
:0200910001204C
:0200920001F477
:02009300012248
:0200940001F673
:020095000190D8
:02009600010A5D
:020097000190D6
:0200980001461F
:020099000180E4
:02009A0001144F
:02009B0001C2A0
:02009C00014C15
:02009D00014818
:02009E0001E07F
:02009F00010A54
:0200A00001401D
:0200A10001005C
:0200A200014417
:0200A300010E4C
:0200A400010257
:0200A5000184D4
:0200A60001C097
:0200A700010452
:0200A8000164F1
:0200A90001C490
:0200AA0001C093
:0200AB0001E86A
:0200AC00012031
:0200AD0001D27E
:0200AE00010847
:0200AF000180CE
:0200B00001CE7F
:0200B10001B09C
:0200B200012427
:0200B3000190BA
:0200B40001C683
:0200B500010840
:0200B600010E39
:0200B700018ABC
:0200B800014401
:0200B9000180C4
:0200BA000144FF
:0200BB0001C082
:0200BC0001C67B
:0200BD00011030
:0200BE00019CA3
:0200BF0001003E
:0200C0000146F7
:0200C10001102C
:0200C200010635
:0200C30001102A
:0200C4000190A9
:0200C500011A1E
:0200C6000182B5
:0200C700011026
:0200C80001969F
:0200C900011024
:0200CA0001B281
:0200CB00011022
:0200CC00016AC7
:0200CD000150E0
:0200CE000142ED
:0200CF0001002E
:0200D0000184A9
:0200D1000142EA
:0200D2000186A5
:0200D3000154D6
:0200D4000182A7
:0200D50001E642
:0200D6000142E5
:0200D700010026
:0200D8000140E5
:0200D9000164C0
:0200DA0001A67D
:0200DB00017AA8
:0200DC000122FF
:0200DD0001E040
:0200DE000146D9
:0200DF0001001E
:0200E00001120B
:0200E10001001C
:0200E200010615
:0200E300010218
:0200E400010019
:0200E500018296
:0200E6000142D5
:0200E700010016
:0200E80001A075
:0200E90001C64E
:0200EA000160B3
:0200EB00012CE6
:0200EC0001040D
:0200ED00012CE4
:0200EE0001927D
:0200EF00011AF4
:0200F00001DA33
:0200F1000110FC
:0200F2000166A5
:0200F300010208
:0200F400008486
:0200F5000156B2
:0200F6000132D5
:0200F70001EA1C
:0200F8000108FD
:0200F90001C044
:0200FA000124DF
:0200FB0001E61C
:0200FC0000649E
:0200FD0001C23E
:0200FE00014EB1
:0200FF000140BE
:020100000142BA
:020101000100FB
:020102000140BA
:020103000146B3
:02010400018A6E
:020105000142B5
:02010600016096
:020107000102F3
:020108000026CF
:020109000022D2
:02010A00002CC7
:02010B00008270
:02010C000110E0
:02010D0001806F
:02010E000138B6
:02010F00019657
:0201100001509C
:0201110001B833
:020112000006E5
:020113000010DA
:02011400009059
:0201150001B037
:02011600019452
:020117000110D5
:0201180001D410
:02011900019053
:02011A000100E2
:02011B000110D1
:02011C0001AC34
:02011D000100DF
:02011E000108D6
:02011F0001409D
:020120000100DC
:02012100014893
:0201220001FCDE
:02012300014C8D
:02012400014890
:02012500014097
:020126000110C6
:02012700014491
:020128000110C4
:02012900019043
:02012A0001488A
:02012B0001824F
:02012C00018C44
:02012D000100CF
:02012E000108C6
:02012F0001804D
:02013000018844
:02013100018447
:0201320001ECDE
:02013300018247
:020134000108C0
:0201350001D0F7
:020136000118AE
:0201370001A421
:020138000120A4
:0201390001883B
:02013A0001B80A
:02013B000100C1
:02013C00014080
:02013D0001249B
:02013E000114AA
:02013F0001A815
:0201400001CCF0
:0201410001803B
:020142000100BA
:0201430001D0E9
:02014400015464
:02014500011E99
:0201460001189E
:02014700014075
:02014800018430
:020149000004B0
:02014A0001C4EE
:02014B0001A809
:02014C00016C44
:02014D0001406F
:02014E0001248A
:02014F000102AB
:02015000012488
:020151000108A3
:02015200018822
:020153000002A8
:02015400019216
:02015500018A1D
:02015600016046
:0201570001089D
:02015800002481
:0201590001881B
:02015A00012280
:02015B00010899
:02015C00011090
:02015D00010897
:02015E0000108F
:02015F00010A93
:0201600001900C
:02016100013A61
:0201620000306B
:0201630000F8A2
:02016400010098
:02016500016037
:02016600013C5A
:0201670001A8ED
:02016800019004
:0201690001147F
:02016A0001088A
:02016B0001266B
:02016C0001048C
:02016D0001206F
:02016E0001028C
:02016F0001503D
:0201700001028A
:0201710001701B
:02017200012268
:0201730001D0B9
:0201740001A0E8
:0201750001F097
:02017600011274
:020177000190F5
:0201780000D0B5
:0201790000067E
:02017A0001F092
:02017B00011869
:02017C0001522E
:02017D0001A0DF
:02017E00012A54
:02017F00017C01
:0201800001A8D4
:02018100013843
:02018200017208
:02018300010277
:02018400014632
:02018500012057
:02018600002453
:02018700010273
:02018800012054
:02018900014033
:02018A00012052
:02018B0001244D
:02018C00002849
:02018D0000640C
:02018E00014826
:02018F0001B0BD
:02019000004825
:0201910000105C
:02019200000C5F
:02019300001258
:02019400011850
:020195000172F5
:02019600000C5B
:02019700001A4C
:0201980000085D
:0201990000ACB8
:02019A00004023
:02019B0001B8A9
:02019C0001C0A0
:02019D000196C9
:02019E0001401E
:02019F0001421B
:0201A00000005D
:0201A100003428
:0201A20001005A
:0201A300015CFD
:0201A400018ACE
:0201A500011047
:0201A600001A3D
:0201A7000082D4
:0201A800004E07
:0201A90001A0B3
:0201AA00001043
:0201AB0001C28F
:0201AC00001C35
:0201AD000070E0
:0201AE00000649
:0201AF0001004D
:0201B000000845
:0201B10000024A
:0201B20000004B
:0201B300003218
:0201B40000D871
:0201B500000444
:0201B600001037
:0201B70000C482
:0201B800001431
:0201B9000060E4
:0201BA00001033
:0201BB0001F849
:0201BC0000043D
:0201BD000070D0
:0201BE00018CB2
:0201BF000044FA
:0201C000001825
:0201C1000094A8
:0201C20001003A
:0201C3000052E8
:0201C400003801
:0201C5000140F7
:0201C6000090A7
:0201C700000234
:0201C8000090A5
:0201C9000188AB
:0201CA00001A19
:0201CB00003CF6
:0201CC00010030
:0201CD0001121D
:0201CE0001200E
:0201CF000056D8
:0201D00000101D
:0201D1000070BC
:0201D2000080AB
:0201D30001D455
:0201D400002603
:0201D50000C860
:0201D600001017
:0201D7000082A4
:0201D800001015
:0201D90001948F
:0201DA000060C3
:0201DB000052D0
:0201DC00010A16
:0201DD00001010
:0201DE0000001F
:0201DF0000928C
:0201E0000164B8
:0201E10000908C
:0201E20000D249
:0201E300018891
:0201E400000019
:0201E50001A275
:0201E6000050C7
:0201E7000020F6
:0201E80000D63F
:0201E9000062B2
:0201EA0001CE44
:0201EB000162AF
:0201EC00001001
:0201ED000044CC
:0201EE0000828D
:0201EF0000808E
:0201F0000150BC
:0201F10000AC60
:0201F2000050BB
:0201F300004CBE
:0201F400008089
:0201F500018087
:0201F6000120E6
:0201F7000042C4
:0201F800000005
:0201F900000202
:0201FA00008083
:0201FB000110F1
:0201FC0000C839
:0201FD00009070
:0201FE00004EB1
:0201FF0000CA34
:0202000000C23A
:02020100000AF1
:0202020000807A
:020203000002F7
:020204000102F5
:020205000104F2
:02020600008A6C
:020207000020D5
:02020800004AAA
:0202090000D023
:02020A000118D9
:02020B000040B1
:02020C0001B43B
:02020D000002ED
:02020E000100ED
:02020F000110DC
:020210000130BB
:020211000104E6
:0202120000F2F8
:020213000122C6
:020214000020C8
:020215000014D3
:02021600009056
:02021700008263
:02021800016281
:0202190000647F
:02021A000112CF
:02021B00017070
:02021C0000A040
:02021D0000C41B
:02021E00014499
:02021F00014C90
:0202200000E0FC
:02022100005685
:020222000008D2
:02022300016474
:02022400004E8A
:02022500014C8A
:02022600006076
:0202270000587D
:0202280000E0F4
:0202290001C012
:02022A0000A42E
:02022B00008051
:02022C0000824E
:02022D0001A42A
:02022E0000C00E
:02022F0000CEFF
:0202300001E8E3
:02023100004487
:02023200018049
:02023300004C7D
:02023400015077
:0202350000487F
:0202360000EADC
:020237000104C0
:02023800015073
:02023900004E75
:02023A00006260
:02023B0001CAF6
:02023C00004A76
:02023D000100BE
:02023E0001922B
:02023F00000AB3
:0202400001CEED
:02024100018C2E
:02024200001AA0
:02024300000AAF
:02024400004A6E
:02024500013C7A
:02024600001A9C
:0202470001268E
:020248000012A2
:0202490000387B
:02024A00001A98
:02024B00013A76
:02024C00003E72
:02024D000000AF
:02024E00012885
:02024F00019418
:0202500000E8C4
:020251000106A4
:02025200003674
:020253000006A3
:02025400016A3D
:02025500006443
:020256000002A4
:0202570001663E
:0202580000C0E4
:02025900007A29
:02025A0001425F
:02025B0000A2FF
:02025C0000D4CC
:02025D0001425C
:02025E0000CAD4
:02025F0000C2DB
:02026000016239
:02026100008A11
:02026200006238
:02026300000693
:02026400003266
:02026500002077
:02026600006234
:02026700008213
:02026800000094
:02026900008013
:02026A00019001
:02026B00001081
:02026C0000246C
:02026D00002867
:02026E0001008D
:02026F0001A0EC
:0202700000008C
:0202710000800B
:02027200010A7F
:02027300006227
:02027400010681
:02027500012E58
:02027600004244
:02027700002263
:02027800000C78
:0202790000067D
:02027A00008200
:02027B0000621F
:02027C0000027E
:02027D0000007F
:02027E0001A2DB
:02027F0000C2BB
:020280000082FA
:0202810001A2D8
:02028200004A30
:02028300010276
:02028400002256
:020285000092E5
:0202860000086E
:0202870001165E
:02028800019AD9
:02028900008AE9
:02028A0001264B
:02028B0000224F
:02028C000080F0
:02028D000080EF
:02028E000092DC
:02028F00009AD3
:0202900000224A
:0202910000A2C9
:02029200016AFF
:020293000198D0
:0202940000A2C6
:02029500000661
:02029600010A5B
:0202970000FA6B
:0202980000481C
:0202990000D88B
:02029A0000243E
:02029B00001C45
:02029C00016EF1
:02029D0000302F
:02029E0000223C
:02029F0000104D
:0202A000000656
:0202A100014416
:0202A20000BAA0
:0202A30000C099
:0202A400000256
:0202A50000CC8B
:0202A60000D680
:0202A700011440
:0202A800001E36
:0202A9000180D2
:0202AA00001240
:0202AB00014010
:0202AC000080D0
:0202AD0000024D
:0202AE00004806
:0202AF000182CA
:0202B000001834
:0202B1000080CB
:0202B200001832
:0202B300010840
:0202B400006CDC
:0202B500000047
:0202B6000184C1
:0202B7000184C0
:0202B800000044
:0202B900014200
:0202BA0000A69C
:0202BB000172CE
:0202BC0000261A
:0202BD00013608
:0202BE000142FB
:0202BF000152EA
:0202C00000023A
:0202C1000180BA
:0202C2000142F7
:0202C3000042F7
:0202C400000632
:0202C500007ABD
:0202C6000072C4
:0202C70000DA5B
:0202C80001EA49
:0202C900011220
:0202CA0000A092
:0202CB00001C15
:0202CC000040F0
:0202CD0001B876
:0202CE00016AC3
:0202CF0001101C
:0202D00000220A
:0202D100019298
:0202D200010623
:0202D30000B277
:0202D400000622
:0202D50001180E
:0202D600010223
:0202D700001213
:0202D8000026FE
:0202D900011210
:0202DA00000A18
:0202DB0001928E
:0202DC00014AD5
:0202DD00011608
:0202DE00018A93
:0202DF000160BC
:0202E0000120FB
:0202E10001A872
:0202E2000120F9
:0202E3000170A8
:0202E40001A077
:0202E500019086
:0202E600008C8A
:0202E70000F223
:0202E80001080B
:0202E900009281
:0202EA000050C2
:0202EB000014FD
:0202EC00007E92
:0202ED000010FF
:0202EE000048C6
:0202EF000012FB
:0202F00000B05C
:0202F100007695
:0202F20000AA60
:0202F300010206
:0202F4000010F8
:0202F5000014F3
:0202F6000106FF
:0202F7000160A4
:0202F800005AAA
:0202F90000867D
:0202FA0000887A
:0202FB000118E8
:0202FC0000E21E
:0202FD000002FD
:0202FE000000FE
:0202FF0000C439
:0203000001F604
:020301000000FA
:020302000002F7
:0203030000C434
:020304000140B6
:02030500006294
:0203060000F203
:020307000124CF
:0203080000C033
:0203090000E210
:02030A000002EF
:02030B0001FCF3
:02030C00007679
:02030D00013CB1
:02030E0000509D
:02030F00010EDD
:020310000046A5
:0203110000F6F4
:0203120000A445
:02031300005A8E
:0203140000C225
:020315000046A0
:020316000000E5
:02031700008064
:0203180001C220
:02031900008A58
:02031A000122BE
:02031B000020C0
:02031C00005689
:02031D000102DB
:02031E0000508D
:02031F000108D3
:0203200000E6F5
:020321000122B7
:020322000020B9
:020323000120B7
:02032400008C4B
:020325000004D2
:0203260000C213
:02032700006074
:0203280001C80A
:02032900015C75
:02032A0000C809
:02032B0001527D
:02032C0001824C
:02032D000010BE
:02032E0000B01D
:02032F0000E0EC
:0203300001D2F8
:0203310000804A
:0203320001C602
:0203330001F0D7
:0203340001DAEC
:0203350001C005
:0203360000A025
:020337000100C3
:02033800018240
:0203390000982A
:02033A0000FCC5
:02033B0000C000
:02033C0000605F
:02033D0001DEDF
:02033E0000209D
:02033F000104B7
:0203400001D2E8
:02034100000EAC
:0203420001F6C2
:020343000012A6
:0203440001D4E2
:02034500002A8C
:0203460001664E
:020347000002B2
:0203480001783A
:02034900000AA8
:02034A00014070
:02034B000002AE
:02034C00015856
:02034D0000822C
:02034E00013874
:02034F000000AC
:02035000005259
:02035100006446
:02035200018A1E
:02035300004662
:02035400002087
:02035500018025
:020356000000A5
:0203570000089C
:020358000000A3
:0203590000F6AC
:02035A00002081
:02035B0000128E
:02035C0001CCD2
:02035D0000900E
:02035E0001603C
:02035F00006636
:02036000016238
:0203610000702A
:02036200018216
:0203630000C2D6
:02036400010294
:0203650000DABC
:02036600003065
:02036700019003
:02036800010092
:0203690001840D
:02036A00000889
:02036B0001E6A9
:02036C0001008E
:02036D00018607
:02036E0001404C
:02036F0001A2E9
:020370000190FA
:02037100014247
:02037200011A6E
:02037300010483
:02037400016224
:02037500015035
:02037600004045
:02037700008202
:0203780000146F
:0203790000D0B2
:02037A0001522E
:02037B0000E29E
:02037C000098E7
:02037D0000E29C
:02037E0000C8B5
:02037F0001502B
:0203800000007B
:02038100012455
:02038200010474
:02038300010077
:02038400010A6C
:02038500001066
:0203860000E095
:0203870001D0A3
:02038800010072
:02038900015E13
:02038A0001C0B0
:02038B0001026D
:02038C0001006E
:02038D0001422B
:02038E000188E4
:02038F000190DB
:0203900001501A
:02039100010465
:02039200018ADE
:02039300014621
:02039400010264
:02039500010461
:02039600014024
:020397000088DC
:02039800011052
:02039900014021
:02039A000098C9
:02039B000180DF
:02039C0000045B
:02039D0001005D
:02039E0000104D
:02039F000160FB
:0203A00001A0BA
:0203A1000182D7
:0203A200000257
:0203A3000176E1
:0203A400012036
:0203A50001183D
:0203A600000A4B
:0203A700010C47
:0203A800003023
:0203A900004210
:0203AA00002829
:0203AB0001A0AF
:0203AC0000A2AD
:0203AD00000648
:0203AE0001202C
:0203AF0000202C
:0203B00001400A
:0203B10000C288
:0203B200000049
:0203B300014403
:0203B400014AFC
:0203B500006ED8
:0203B600019CA8
:0203B7000154EF
:0203B800004003
:0203B9000148F9
:0203BA0001340C
:0203BB000076CA
:0203BC00014CF2
:0203BD000048F6
:0203BE0001023A
:0203BF000066D6
:0203C000001229
:0203C100000C2E
:0203C2000150E8
:0203C300001820
:0203C4000160D6
:0203C5000048EE
:0203C60000989D
:0203C700008CA8
:0203C800011022
:0203C90000C270
:0203CA0000022F
:0203CB0000A68A
:0203CC00002807
:0203CD000040EE
:0203CE000054D9
:0203CF00000626
:0203D00000D259
:0203D100010029
:0203D20000F831
:0203D30000B276
:0203D400010224
:0203D500011411
:0203D6000162C2
:0203D7000138EB
:0203D800000023
:0203D900009A88
:0203DA0001021E
:0203DB00002000
:0203DC000134EA
:0203DD0001C05D
:0203DE000050CD
:0203DF0001001B
:0203E00000001B
:0203E10000001A
:0203E20001F028
:0203E3000152C5
:0203E4000140D6
:0203E500006AAC
:0203E600010A0A
:0203E7000052C2
:0203E800008093
:0203E90001D041
:0203EA000020F1
:0203EB000042CE
:0203EC0001808E
:0203ED0001000D
:0203EE000050BD
:0203EF0000000C
:0203F00000808B
:0203F100008288
:0203F200007A8F
:0203F300000CFC
:0203F400010006
:0203F500000AFC
:0203F6000044C1
:0203F7000108FB
:0203F800009271
:0203F900014EB3
:0203FA000016EB
:0203FB00013AC5
:0203FC000102FC
:0203FD000104F9
:0203FE000020DD
:0203FF000008F4
:00000001FF
