:0200000000708E
:02000100010AF2
:02000200017289
:0200030001C436
:020004000148B1
:0200050000CA2F
:0200060000DC1C
:02000700019264
:0200080000D81E
:020009000026CF
:02000A000026CE
:02000B00010EE4
:02000C00019859
:02000D00008869
:02000E0000628E
:02000F0001B03E
:020010000000EE
:02001100014AA2
:0200120000F4F8
:020013000144A6
:020014000040AA
:020015000128C0
:020016000038B0
:02001700019A4C
:020018000018CE
:02001900019C48
:02001A0001B42F
:02001B00017A68
:02001C000120C1
:02001D00016080
:02001E000120BF
:02001F000126B8
:02002000016C71
:020021000112CA
:0200220000D20A
:020023000102D8
:020024000034A6
:02002500015484
:0200260000A830
:02002700014294
:02002800011CB9
:020029000102D2
:02002A00014A89
:02002B000122B0
:02002C000000D2
:02002D000104CC
:02002E000114BB
:02002F0000923D
:020030000004CA
:020031000114B8
:0200320001F6D5
:02003300010AC0
:0200340000C00A
:020035000108C0
:02003600000ABE
:020037000100C6
:0200380000D4F2
:020039000120A4
:02003A0000C004
:02003B000012B1
:02003C00015071
:02003D000102BE
:02003E0000467A
:02003F0000A41B
:02004000013885
:020041000118A4
:0200420001B407
:02004300012694
:020044000110A9
:020045000000B9
:02004600004672
:0200470000486F
:02004800012293
:02004900015A5A
:02004A00001E96
:02004B00004073
:02004C000100B1
:02004D0000961B
:02004E0000763A
:02004F00013876
:0200500001208D
:0200510001129A
:02005200002C80
:0200530001C8E2
:020054000108A1
:02005500015256
:02005600015C4B
:02005700006E39
:02005800016C39
:02005900002481
:02005A0001148F
:02005B00001C87
:02005C0000782A
:02005D00003071
:02005E0001BEE1
:02005F00004C53
:02006000001886
:0200610000108D
:02006200018C0F
:02006300002E6D
:02006400011881
:02006500004851
:02006600000A8E
:02006700013462
:02006800017223
:0200690000088D
:02006A00011083
:02006B0001BED4
:02006C00002270
:02006D00014C44
:02006E00016A25
:02006F0000E4AB
:0200700001206D
:0200710001FA92
:0200720001305B
:02007300013A50
:02007400002862
:020075000092F7
:0200760000EE9A
:02007700012660
:0200780001B4D1
:0200790001B4D0
:02007A0001EE95
:02007B0001E0A2
:02007C000184FD
:02007D00008001
:02007E0000BEC2
:02007F0001047A
:0200800000AED0
:02008100016C10
:0200820001B4C7
:02008300012C4E
:0200840001A6D3
:0200850001A2D6
:0200860001FA7D
:0200870001EA8C
:0200880001A8CD
:0200890000AACB
:02008A000198DB
:02008B0001E68C
:02008C0000E290
:02008D00016A06
:02008E0001204F
:02008F0000224D
:0200900001C0AD
:02009100002647
:02009200006A02
:0200930001A6C4
:0200940000C0AA
:02009500016CFC
:020096000184E3
:02009700019ACC
:02009800000066
:0200990001461E
:02009A000088DC
:02009B0001E082
:02009C00003032
:02009D0001540C
:02009E0001B0AF
:02009F00013E20
:0200A00001302D
:0200A100017AE2
:0200A20001B2A9
:0200A3000198C2
:0200A4000184D5
:0200A500001049
:0200A600010453
:0200A700011A3C
:0200A800009CBA
:0200A9000172E2
:0200AA00001044
:0200AB0001BA98
:0200AC0000D47E
:0200AD00012828
:0200AE000182CD
:0200AF0000044B
:0200B0000170DD
:0200B10001E468
:0200B20001B299
:0200B3000094B7
:0200B400011237
:0200B5000064E5
:0200B6000098B0
:0200B70001281E
:0200B80001B095
:0200B90001380C
:0200BA0000B292
:0200BB00013012
:0200BC00002022
:0200BD00013010
:0200BE0001EA55
:0200BF0000A49B
:0200C000016AD3
:0200C100010E2E
:0200C2000094A8
:0200C30001102A
:0200C4000160D9
:0200C500012E0A
:0200C600013205
:0200C70001F83E
:0200C800011C19
:0200C9000184B0
:0200CA00002014
:0200CB0000A093
:0200CC00010E23
:0200CD000182AE
:0200CE00010827
:0200CF00000827
:0200D000019499
:0200D10000B27B
:0200D200002606
:0200D30001FE2C
:0200D400010A1F
:0200D5000136F2
:0200D60001A285
:0200D7000154D2
:0200D8000080A6
:0200D900012AFA
:0200DA00000A1A
:0200DB0001849E
:0200DC00001A08
:0200DD0000CA57
:0200DE0000FE22
:0200DF000128F6
:0200E000018C91
:0200E100000815
:0200E200016AB1
:0200E300010A10
:0200E40001D841
:0200E5000168B0
:0200E6000052C6
:0200E7000028EF
:0200E800011CF9
:0200E900002CE9
:0200EA00010013
:0200EB000120F2
:0200EC00008092
:0200ED000030E1
:0200EE0001D639
:0200EF000140CE
:0200F0000144C9
:0200F1000144C8
:0200F2000016F6
:0200F300000A01
:0200F400001AF0
:0200F500017890
:0200F6000114F3
:0200F70001C046
:0200F8000158AD
:0200F9000010F5
:0200FA0000B84C
:0200FB0000E41F
:0200FC00005CA6
:0200FD000138C8
:0200FE00001AE6
:0200FF00010CF2
:020100000138C4
:02010100019863
:0201020001D822
:02010300010CED
:0201040000E811
:020105000108EF
:02010600011CDA
:02010700001ED8
:0201080000DA1B
:0201090001F8FB
:02010A000048AB
:02010B0001DA17
:02010C00015898
:02010D0000DA16
:02010E00015896
:02010F000104E9
:02011000016C80
:0201110000608C
:0201120001F2F8
:02011300019A4F
:020114000140A8
:02011500001CCC
:0201160001885E
:0201170001885D
:020118000008DD
:02011900013EA5
:02011A00014E94
:02011B000014CE
:02011C00006E73
:02011D00007070
:02011E00016E70
:02011F00000AD4
:02012000004697
:02012100016E6D
:020122000034A7
:02012300014E8B
:02012400006475
:02012500018651
:02012600000ACD
:0201270000BA1C
:020128000012C3
:02012900001ABA
:02012A0000A82B
:02012B00018849
:02012C0001943C
:02012D00010EC1
:02012E00011AB4
:02012F0001A825
:02013000015A72
:02013100008C40
:02013200005C6F
:02013300001EAC
:02013400018A3E
:02013500006068
:02013600004285
:0201370000AC1A
:02013800015272
:02013900017053
:02013A00008A39
:02013B000108B9
:02013C0000C001
:02013D0001A817
:02013E00017846
:02013F0000A21C
:02014000010AB2
:020141000108B3
:02014200001E9D
:02014300014A6F
:02014400014C6C
:0201450001E4D3
:02014600000AAD
:02014700013A7B
:0201480000387D
:02014900011C97
:02014A0001BAF8
:02014B0000149E
:02014C00014C64
:02014D0000DAD6
:02014E00000EA1
:02014F00004E60
:0201500000E6C7
:02015100007636
:0201520000B8F3
:02015300011891
:02015400011494
:0201550001F8AF
:020156000100A6
:02015700017233
:02015800018024
:02015900007A2A
:02015A00002E75
:02015B0001029F
:02015C00008E13
:02015D00017E21
:02015E00014E50
:02015F00017429
:02016000004657
:0201610001BEDD
:02016200017822
:0201630000009A
:0201640001F2A6
:02016500016037
:0201660000781F
:02016700010E87
:02016800004253
:0201690001345F
:02016A0001484A
:02016B00011E73
:02016C00015040
:02016D00000888
:02016E0001503E
:02016F00012A63
:0201700001F29A
:02017100015833
:02017200011476
:02017300008802
:02017400001277
:02017500000880
:0201760001D0B6
:0201770001DCA9
:02017800012064
:02017900001E66
:02017A00001073
:02017B0001B6CB
:02017C00010080
:02017D00011669
:02017E00018AF4
:02017F0000C0BE
:0201800000225B
:0201810001403B
:020182000084F7
:02018300015425
:02018400017800
:020185000192E5
:02018600005423
:02018700010075
:0201880000581D
:02018900007004
:02018A000180F2
:02018B00005022
:02018C0000D899
:02018D0000125E
:02018E00001857
:02018F000192DB
:0201900000A8C5
:0201910000C0AC
:0201920001BCAE
:020193000092D8
:020194000178F0
:020195000080E8
:02019600010066
:0201970000D690
:0201980000B0B5
:020199000168FB
:02019A0000F46F
:02019B00006002
:02019C0000B0B1
:02019D0001C09F
:02019E000060FF
:02019F0000005E
:0201A00000A2BB
:0201A10000203C
:0201A20000A4B7
:0201A300000852
:0201A400002435
:0201A50000E078
:0201A60001381E
:0201A700003026
:0201A800001441
:0201A900001242
:0201AA00002033
:0201AB00004012
:0201AC0000C091
:0201AD000154FB
:0201AE0000FA55
:0201AF00003A14
:0201B00000301D
:0201B10001E467
:0201B200000843
:0201B300003E0C
:0201B400014602
:0201B50001E661
:0201B600012224
:0201B700002026
:0201B80000261F
:0201B9000190B3
:0201BA000072D1
:0201BB0001261B
:0201BC0000F64B
:0201BD0000A29E
:0201BE0000023D
:0201BF00014CF1
:0201C0000172CA
:0201C100010437
:0201C2000154E6
:0201C300000238
:0201C40000D861
:0201C50000F246
:0201C6000168CE
:0201C70000989E
:0201C80000DC59
:0201C900001024
:0201CA0000CA69
:0201CB000080B2
:0201CC000046EB
:0201CD000090A0
:0201CE0000CA65
:0201CF00000A24
:0201D0000140EC
:0201D100004AE2
:0201D200010426
:0201D300010821
:0201D4000184A4
:0201D500000A1E
:0201D6000048DF
:0201D700012203
:0201D8000182A2
:0201D90001C261
:0201DA0000C85B
:0201DB0001849D
:0201DC000022FF
:0201DD00000E12
:0201DE0001001E
:0201DF000148D5
:0201E00001001C
:0201E1000028F4
:0201E20000B269
:0201E300002AF0
:0201E400002EEB
:0201E5000050C8
:0201E60000A275
:0201E70001B461
:0201E800011AFA
:0201E900000014
:0201EA00012EE4
:0201EB0000A072
:0201EC000112FE
:0201ED000128E7
:0201EE0000C649
:0201EF00005AB4
:0201F00001828A
:0201F1000118F3
:0201F2000038D3
:0201F3000124E5
:0201F40001E028
:0201F50001E423
:0201F6000012F5
:0201F700018085
:0201F8000112F2
:0201F900000004
:0201FA0000D82B
:0201FB0001C43D
:0201FC0001BC44
:0201FD000008F8
:0201FE0001906E
:0201FF00007E80
:020200000150AB
:02020100007487
:02020200010CED
:020203000046B3
:020204000034C4
:02020500006A8D
:0202060000B83E
:02020700014AAA
:02020800008C68
:02020900011CD6
:02020A00018E63
:02020B00015C94
:02020C0001E00F
:02020D000142AC
:02020E000020CE
:02020F00001ECF
:02021000000EDE
:020211000038B3
:020212000002E8
:02021300006485
:020214000028C0
:02021500004E99
:02021600011ACB
:0202170001A242
:0202180000F0F4
:020219000018CB
:02021A00012AB7
:02021B0000B829
:02021C0000548C
:02021D00014A94
:02021E00000CD2
:02021F0001CA12
:020220000018C4
:020221000038A3
:020222000024B6
:020223000010C9
:0202240001F8DF
:0202250001D006
:0202260000CC0A
:020227000006CF
:0202280000468E
:0202290000F2E1
:02022A00005280
:02022B0000B021
:02022C000000D0
:02022D00005679
:02022E000128A5
:02022F00007E4F
:02023000005874
:02023100005C6F
:02023200009A30
:02023300006861
:02023400019E29
:0202350000487F
:02023600005E68
:0202370000289D
:020238000008BC
:02023900015E64
:02023A000118A9
:02023B00002E93
:02023C0000FAC6
:02023D0000ECD3
:02023E00001CA2
:02023F00009825
:0202400000BA02
:02024100017E3C
:0202420000A812
:02024300008A2F
:0202440001189F
:02024500009A1D
:02024600018A2B
:02024700018034
:0202480000C2F2
:0202490000D6DD
:02024A00006052
:02024B0000CAE7
:02024C0000169A
:02024D0001B8F6
:02024E0001327B
:02024F000108A4
:0202500000129A
:02025100015258
:020252000000AA
:02025300002089
:02025400002484
:0202550000089F
:0202560001287D
:0202570001A004
:0202580000A004
:02025900002281
:02025A00013C65
:02025B0000AAF7
:02025C0001207F
:02025D0001148A
:02025E0000A2FC
:02025F00008A13
:02026000012873
:02026100004A51
:0202620000801A
:02026300002C6D
:0202640001A2F5
:0202650000B8DF
:02026600018A0B
:02026700005441
:02026800000094
:0202690000C8CB
:02026A000098FA
:02026B00001081
:02026C0001C6C9
:02026D0000206F
:02026E0000D8B6
:02026F0000424B
:0202700000E8A4
:0202710000A8E3
:0202720000A6E4
:02027300005A2F
:0202740001D2B5
:02027500011274
:0202760000F88E
:0202770000C0C5
:020278000088FC
:0202790000087B
:02027A00000082
:02027B00003849
:02027C0000C2BE
:02027D00001867
:02027E0001027B
:02027F00005A23
:0202800001007B
:02028100002A51
:02028200010079
:02028300014236
:0202840000E890
:02028500015E18
:020286000080F6
:0202870000F283
:0202880001482B
:0202890000CAA9
:02028A00016E03
:02028B0001A8C8
:02028C00004030
:02028D000088E7
:02028E0001C0AD
:02028F0000204D
:0202900001AAC1
:02029100004229
:02029200012049
:0202930001C8A0
:0202940001E285
:0202950000A8BF
:02029600016203
:02029700016202
:0202980000DA8A
:0202990001A0C2
:02029A00005E04
:02029B000188D8
:02029C00010857
:02029D000068F7
:02029E00002638
:02029F0001203C
:0202A000002E2E
:0202A1000184D6
:0202A20000A0BA
:0202A300002039
:0202A40000C296
:0202A500002433
:0202A600010451
:0202A7000084D1
:0202A80001440F
:0202A900000053
:0202AA0001B29F
:0202AB0000C889
:0202AC0001103F
:0202AD0000222D
:0202AE0001ACA1
:0202AF00010844
:0202B000013C0F
:0202B1000058F3
:0202B20000004A
:0202B300004801
:0202B400004008
:0202B50000AC9B
:0202B60001B293
:0202B700001035
:0202B8000194AF
:0202B900003013
:0202BA0001B28F
:0202BB0000C879
:0202BC0001142B
:0202BD00018AB4
:0202BE0000C678
:0202BF0001C874
:0202C000010635
:0202C10001C07A
:0202C200010831
:0202C300000237
:0202C400002216
:0202C5000064D3
:0202C600014EE7
:0202C70000CE67
:0202C800010A29
:0202C900008CA7
:0202CA000082B0
:0202CB000048E9
:0202CC000088A8
:0202CD0000002F
:0202CE00010429
:0202CF000180AC
:0202D0000080AC
:0202D100010822
:0202D2000080AA
:0202D300001415
:0202D400000028
:0202D50001889E
:0202D60000988E
:0202D700001E07
:0202D80000A87C
:0202D90000E043
:0202DA000024FE
:0202DB00000C15
:0202DC00002AF6
:0202DD00009887
:0202DE000022FC
:0202DF00019488
:0202E0000024F8
:0202E100012AF0
:0202E2000144D5
:0202E30000B069
:0202E40000AA6E
:0202E500002AED
:0202E600011AFB
:0202E70000AC69
:0202E8000030E4
:0202E90001A072
:0202EA00018A87
:0202EB00019878
:0202EC00017897
:0202ED00012AE4
:0202EE000152BB
:0202EF00001CF1
:0202F000011CEF
:0202F100008A81
:0202F200014CBD
:0202F300001CED
:0202F4000132D5
:0202F50001C244
:0202F60001A461
:0202F700017490
:0202F80001F013
:0202F90001887A
:0202FA0001CA37
:0202FB000102FE
:0202FC0001A05F
:0202FD0001C03E
:0202FE0000AE50
:0202FF000006F7
:020300000000FB
:0203010001E019
:02030200018672
:02030300004EAA
:0203040001FAFC
:02030500004CAA
:020306000108EC
:0203070001AA49
:02030800016C86
:02030900006E84
:02030A00019060
:02030B0000846C
:02030C0001608E
:02030D00017A73
:02030E0001B03C
:02030F00010EDD
:02031000006487
:0203110000BE2C
:020312000128C0
:02031300008A5E
:020314000018CF
:0203150000489E
:02031600000ED7
:0203170000984C
:0203180000EAF9
:020319000018CA
:02031A000108D8
:02031B000128B7
:02031C00018856
:02031D000008D6
:02031E00010AD2
:02031F0000A834
:02032000013AA0
:02032100004C8E
:02032200011CBC
:02032300009048
:0203240000DAFD
:0203250000983E
:0203260000AA2B
:0203270000A034
:020328000000D3
:0203290000C210
:02032A00006C65
:02032B0001C609
:02032C0001A02E
:02032D000012BC
:02032E00004489
:02032F000114B7
:020330000004C7
:0203310000AC1E
:0203320000E0E9
:02033300005078
:0203340000E8DF
:02033500002A9C
:020336000008BD
:020337000110B3
:02033800004C77
:0203390000388A
:02033A00001AA7
:02033B0000625E
:02033C00000CB3
:02033D00005866
:02033E000108B4
:02033F000008B4
:02034000004873
:02034100003882
:02034200002891
:02034300003A7E
:0203440000387F
:0203450001B8FD
:0203460000288D
:020347000108AB
:02034800005C57
:02034900003C76
:02034A00009819
:02034B0000AC04
:02034C0001C6E8
:02034D00000CA2
:02034E0000C6E7
:02034F000004A8
:0203500000C2E9
:0203510000F2B8
:02035200012286
:02035300004E5A
:02035400007E29
:02035500016243
:02035600005451
:020357000000A4
:0203580000683B
:0203590000D8CA
:02035A0001267A
:02035B0000A2FE
:02035C0000A4FB
:02035D0001C8D5
:02035E0000A2FB
:02035F00016437
:02036000008219
:02036100010891
:02036200007A1F
:02036300010493
:02036400008215
:02036500000294
:020366000098FD
:02036700003C58
:0203680000583B
:02036900014051
:02036A00004051
:02036B0001B6D9
:02036C0000D6B9
:02036D00006826
:02036E000094F9
:02036F00006824
:0203700001E4A6
:02037100012069
:0203720001E0A8
:02037300015C2B
:0203740000ACDB
:02037500016A1B
:02037600003C49
:0203770001A0E3
:02037800018200
:0203790000661C
:02037A0000A8D9
:02037B00010A75
:02037C0000A0DF
:02037D00011865
:02037E00005627
:02037F0001007B
:0203800000304B
:0203810000BCBE
:02038200010A6E
:020383000186F1
:02038400014432
:02038500002254
:0203860000AEC7
:02038700001A5A
:0203880001C0B2
:0203890000B0C2
:02038A0000046D
:02038B0000CAA6
:02038C0000026D
:02038D000084EA
:02038E00004A23
:02038F00005C10
:02039000000863
:02039100005218
:0203920000C0A9
:020393000082E6
:0203940000481F
:02039500004C1A
:0203960000A0C5
:020397000074F0
:0203980001580A
:0203990000E67C
:02039A00010060
:02039B0000C898
:02039C00000857
:02039D0000CC92
:02039E00014418
:02039F0001A2B9
:0203A000002C2F
:0203A1000188D1
:0203A200014018
:0203A30001EA6D
:0203A400002433
:0203A50000D086
:0203A600011242
:0203A70000A2B2
:0203A800003C17
:0203A90001C28F
:0203AA000154FC
:0203AB000080D0
:0203AC0001103E
:0203AD0000ACA2
:0203AE000064E9
:0203AF00001A32
:0203B000004803
:0203B1000082C8
:0203B2000168E0
:0203B300011433
:0203B40000D077
:0203B500003016
:0203B60000C481
:0203B7000088BC
:0203B80001B092
:0203B90000142E
:0203BA00003C05
:0203BB0000AA96
:0203BC0000C07F
:0203BD0001A09D
:0203BE000088B5
:0203BF00012417
:0203C0000040FB
:0203C1000148F1
:0203C200001623
:0203C3000060D8
:0203C40000F83F
:0203C50000B284
:0203C60000A095
:0203C700013CF7
:0203C800003201
:0203C900011819
:0203CA00000A27
:0203CB000078B8
:0203CC00010628
:0203CD000072BC
:0203CE00002805
:0203CF000034F8
:0203D00001002A
:0203D100010227
:0203D200009891
:0203D30001A285
:0203D40000B077
:0203D500000026
:0203D600001411
:0203D700000222
:0203D80001968C
:0203D90000D052
:0203DA00006AB7
:0203DB00006AB6
:0203DC0000EC33
:0203DD0000140A
:0203DE0000D647
:0203DF00000C10
:0203E000014CCE
:0203E10000C654
:0203E20000A475
:0203E300006CAC
:0203E400004EC9
:0203E50000A472
:0203E60000CA4B
:0203E700018093
:0203E80001C44E
:0203E90001A26F
:0203EA00010C04
:0203EB00004EC2
:0203EC00005EB1
:0203ED0000A866
:0203EE00008885
:0203EF0001C04B
:0203F000008C7F
:0203F100000406
:0203F200014ABE
:0203F30000D434
:0203F40000CC3B
:0203F50001986D
:0203F60000C441
:0203F700009074
:0203F80000A85B
:0203F9000034CE
:0203FA000138C8
:0203FB00000CF4
:0203FC000022DD
:0203FD0000708E
:0203FE0000807D
:0203FF000124D7
:00000001FF
