:10E000000000034B45593406F6FFD0C40127F9F64A
:10E01000FFD14F6EB1E002044B45593F34064FF635
:10E02000FFD0C4012702C6FF6EB1E01704454D4979
:10E0300054B6FFD0840227F9F7FFD135066EB1360A
:10E040002035206EB1351034061F106EB1E02C045F
:10E050004558495437206EB1E04F034C49543406BB
:10E06000ECA16EB1E05A07455845435554451F0190
:10E0700035066E84E0660344555034066EB1E07692
:10E08000043F44555010830000270234066EB1E06F
:10E09000800444524F5035066EB1E091045357410D
:10E0A00050AEE4EDE41F106EB1E09C044F564552B3
:10E0B0003406EC626EB1E0AB03524F54AEE4EDE4D3
:10E0C000EC62AF626EB1E0B8034E495032626EB19D
:10E0D000E0C8045455434BAEE4EDE434106EB1E0B7
:10E0E000D2045049434B5849ECEB6EB1E0E1023E9B
:10E0F00052360635066EB1E0EE02523E3406370661
:10E100006EB1E0F90252403406ECC46EB1E1040392
:10E1100053504034061F406EB1E10F035350211F8E
:10E120000435066EB1E11B0352504034061F306EB9
:10E13000B1E127035250211F0335066EB1E13301CF
:10E14000211F013506ED8435066EB1E13F02432102
:10E150001F013506E78435066EB1E14D01401F0110
:10E16000EC846EB1E15C0243401F01E6844F6EB166
:10E17000E166012BE3E16EB1E172024D2BE362ED4A
:10E18000623506C90089006EB1E17A012DA3E14331
:10E1900053C300016EB1E18B064E454741544543E0
:10E1A00053C300016EB1E19803414E44A4E0E4E0A2
:10E1B0006EB1E1A8024F52AAE0EAE06EB1E1B40309
:10E1C000584F52A8E0E8E06EB1E1BF06494E56450F
:10E1D000525443536EB1E1CB023E3C1E896EB1E115
:10E1E000D802312BC300016EB1E1E102312D830071
:10E1F000016EB1E1EB02322A58496EB1E1F502320B
:10E200002F47566EB1E1FE022B211F013506E38434
:10E21000ED8435066EB1E207064C53484946541F5B
:10E22000013506308427065849301F26FA6EB1E2C0
:10E2300018065253484946541F01350630842706B4
:10E240004456301F26FA6EB1E23102303D10830091
:10E25000002605CCFFFF6EB14F5F6EB1E24A02307F
:10E260003C4D2BEF4F5F6EB1E25E013DA3E127E332
:10E270004F5F6EB1E26A023C3EA3E126D64F5F6E6D
:10E28000B1E276013CA3E12ECA4F5F6EB1E2830199
:10E290003EA3E12DBE4F5F6EB1E28F02553CA3E17C
:10E2A00022B14F5F6EB1E29B02553EA3E125A44F20
:10E2B0005F6EB1E2A8064252414E434810AEA46ED2
:10E2C000B1E2B5073F4252414E4348108300002659
:10E2D00007350610AEA46EB1350631226EB1E2C329
:10E2E0000428444F291F01CC8000A3E13606308B5F
:10E2F000361035066EB1E2E006554E4C4F4F5033A6
:10E30000446EB1E2F806284C4F4F50293406ECC455
:10E31000C300012909EDC410AEA435066EB1312247
:10E32000334435066EB1E30507282B4C4F4F502977
:10E33000E3C428E13122334435066EB1E3280149B4
:10E340003406ECC4A3426EB1E33E014A3406EC4409
:10E35000A3466EB1E34A03554D2A3416A665E6611D
:10E360003DED62A664E6613DEB628900ED61A66564
:10E37000E6E43DE361ED614F49E6E4A7E4A6643DD0
:10E38000E3E4AE623264AFE46EB1E35606554D2F5E
:10E390004D4F4434068E0010686569646963696294
:10E3A000EC622408A3E4ED621CFE2006A3E425022F
:10E3B000ED6269656964301F26E2EC644353AE6226
:10E3C000AF6432646EB1E38C0446494C4C36203560
:10E3D000308C00002706E7A0301F26FA35063720CC
:10E3E0006EB1E3C802533DE362AE6210AF6210AE9D
:10E3F000E4EDE45FACE42712A680A0A0270AC200E7
:10E400001F98CA0135306EB120EA1F9835306EB1C1
:10E41000E3E405434D4F5645E362AE6210AF621030
:10E42000AEE4EDE4ACE42706E680E7A020F6353064
:10E4300035066EB1E41206434D4F56453EAE62308E
:10E440008B10AF6210AEE431AB10ACE42706E6826D
:10E45000E7A220F5353035066EB1313F34201F106C
:10E4600037206EB1E43604534B4950362035308C9A
:10E4700000002708E1A026E2301F26F820DEE4662F
:10E48000045343414E362035308C00002708E1A06C
:10E4900027C8301F26F820C4E48007414C49474E66
:10E4A00045446EB1E49A05414C49474E6EB1E4A62D
:10E4B0000543454C4C2BC300026EB1E4B005434507
:10E4C0004C4C5358496EB1E4BD05434841522BC3EF
:10E4D00000016EB1E4C90543484152536EB1E4D620
:10E4E000053E424F4459C300036EB1E4E008434F78
:10E4F0004D50494C452CBDE03FED2DE054E4ED037B
:10E50000214346BDE03FE05E00BDE0B0E150E1E404
:10E51000E141E054E4FF032C4346BDE03FED0FE54D
:10E5200003E05E0003ED20E054E5160621434F4C66
:10E530004F4EBDE03FE05EFFFDED20E05EE03FE5D9
:10E540001AE054E52B052C45584954BDE03FE05EE8
:10E55000E054E4F6E054E545072C4252414E43486E
:10E56000BDE03FED2DE054E558052C44455354BD26
:10E57000E03FED2DE054E569052144455354BDE0ED
:10E580003FE141E05436203520351034061F106E2F
:10E59000B1E5780728444F45533E29BDE03FE0FCF4
:10E5A000E809E15EEE08E503E054E59345444F4594
:10E5B000533EBDE03FE05EE59BE4F6E05EE585E5C9
:10E5C0001AE054E5AC013ABDE03FF161F1C2F1AEB1
:10E5D000E532E054E5C5413BBDE03FF1E2E54BF1FA
:10E5E0009DE054E5D608434F4E5354414E54BDE090
:10E5F0003FF161ED2DE59B35103406EC846EB1E5FD
:10E60000E5085641524941424C45BDE03FF161E7C2
:10E6100084ED20E054E6010455534552BDE03FF13E
:10E6200061ED2DE59B351034061FB85FE3846EB1B4
:10E63000E617424946BDE03FE05EE2CBE560ED0F04
:10E64000E07AE56FE054E632445448454EBDE03F81
:10E65000ED0FE0A1E57EE054E64844454C5345BD4E
:10E66000E03FE05EE2BCE560ED0FE07AE56FE0A13F
:10E67000E64DE054E65A45424547494EBDE03FED80
:10E680000FE054E67645554E54494CBDE03FE05E00
:10E69000E2CBE560E56FE054E68545414741494EF0
:10E6A000BDE03FE05EE2BCE560E56FE054E69A4520
:10E6B0005748494C45BDE03FE635E054E6AF465289
:10E6C0004550454154BDE03FE0A1E6A0E64DE05491
:10E6D000E6BE023E4CBDE03FE784E844E20AE8447F
:10E6E000E15EE141E054E6D2024C3EBDE03FE84449
:10E6F000E15EE15EE784E19FE844E20AE054E6E897
:10E7000042444FBDE03FE05EE2E5E560ED0FE05ED4
:10E710000000E6D5E054E700454C45415645BDE0D4
:10E720003FE05EE2FFE4F6E05EE2BCE560ED0FE0B4
:10E730007AE56FE6D5E054E71807454E444C4F4F55
:10E7400050BDE03FE560E56FE6EBE085E2CBE756E4
:10E75000E64DE2BCE748E054E739444C4F4F50BD2A
:10E76000E03FE05EE30CE741E054E75A452B4C4FB5
:10E770004F50BDE03FE05EE330E741E054E76C041A
:10E7800043454C4CBDE5F70002E77F02424CBDE536
:10E79000F70020E78B0754494253495A45BDE5F736
:10E7A000007EE79503544942BDE625FF80E7A402B9
:10E7B0005530BDE6250000E7AF0442415345BDE6B4
:10E7C000250002E7B9024450BDE6250004E7C50371
:10E7D000424C4BBDE6250006E7CF03534352BDE64E
:10E7E000250008E7DA07424C4B41445253BDE62569
:10E7F000000AE7E506425354415445BDE625000EA4
:10E80000E7F4064C4154455354BDE6250018E80290
:10E81000033E494EBDE625001AE810055354415405
:10E8200045BDE625001CE81B0727534F55524345BD
:10E83000BDE625001EE828024850BDE6250022E876
:10E8400037024C50BDE6250024E841025330BDE6B6
:10E85000250100E84B03504144BDE6250128E85559
:10E86000024C30BDE6250180E860025230BDE6254D
:10E870000200E86A03533E44BDE03FE07AE261E013
:10E8800054E874073F4E4547415445BDE03FE261BF
:10E89000E2CBE896E19FE054E88303414253BDE0B8
:10E8A0003FE07AE88BE054E89A07444E45474154EC
:10E8B00045BDE03FE0A1E1D2E0A1E1D2E05E000190
:10E8C000E17DE054E8A9083F444E4547415445BD29
:10E8D000E03FE261E2CBE8DAE8B1E054E8C60444A4
:10E8E000414253BDE03FE07AE8CFE054E8DE024D1C
:10E8F0002ABDE03FEA34E1C3E0F1E0A1E89EE0A1F7
:10E90000E89EE35AE0FCE8CFE054E8EE06534D2FD2
:10E9100052454DBDE03FEA34E1C3E0F1E0B0E0F143
:10E92000E89EE0F1E8E3E0FCE393E0A1E0FCE88BA3
:10E93000E0A1E0FCE88BE054E90C06464D2F4D4F7A
:10E9400044BDE03FE07AE0F1E913E07AE261E2CB36
:10E95000E960E0A1E0FCE174E0A1E1EEE2BCE96481
:10E96000E0FCE096E054E93A012ABDE03FE8F1E03E
:10E9700096E054E968042F4D4F44BDE03FE0F1E8D4
:10E9800078E0FCE941E054E975012FBDE03FE97A08
:10E99000E0CCE054E989034D4F44BDE03FE97AE023
:10E9A00096E054E996052A2F4D4F44BDE03FE0F133
:10E9B000E8F1E0FCE941E054E9A5022A2FBDE03F7F
:10E9C000E9ABE0CCE054E9BA034D4158BDE03FEA81
:10E9D00034E285E2CBE9D9E0A1E096E054E9C8034E
:10E9E0004D494EBDE03FEA34E291E2CBE9F0E0A1CF
:10E9F000E096E054E9DF023240BDE03FE07AE4B661
:10EA0000E15EE0A1E15EE054E9F6023221BDE03FC3
:10EA1000E0A1E0B0E141E4B6E141E054EA0A0532A8
:10EA200044524F50BDE03FE096E096E054EA1E04A9
:10EA300032445550BDE03FE0B0E0B0E054EA2F056D
:10EA40003253574150BDE03FE0BCE0F1E0BCE0FC98
:10EA5000E054EA3F05324F564552BDE03FE0F1E059
:10EA6000F1EA34E0FCE0FCEA45E054EA5405434FA7
:10EA7000554E54BDE03FE07AE4CFE0A1E169E054B7
:10EA8000EA6D024352BDE03FE05E000DE031E05E22
:10EA9000000AE031E054EA82055350414345BDE0AD
:10EAA0003FE78EE031E054EA980653504143455326
:10EAB000BDE03FE07AE2CBEAC1EA9EE1EEE2BCEAE9
:10EAC000B3E096E054EAA904554D494EBDE03FEA53
:10EAD00034E2ABE2CBEAD9E0A1E096E054EAC70425
:10EAE000554D4158BDE03FEA34E29EE2CBEAF1E009
:10EAF000A1E096E054EADF06414343455054BDE0AF
:10EB00003FE0B0E174E1EEE0B0E006E07AE05E0004
:10EB10000DE279E2CBEB45E07AE031E07AE05E00AD
:10EB200008E26CE2CBEB37E096E1EEE0F1E0B0E03A
:10EB3000FCEAE4E2BCEB41E0B0E150E1E4E0B0EA41
:10EB4000CCE2BCEB09E096E0CCE0A1E18DE054EA38
:10EB5000F70454595045BDE03FE085E2CBEB75E04A
:10EB6000B0E174E0A1E2E5E340E169E031E30CEB00
:10EB700067E2BCEB77E096E054EB5104285322297E
:10EB8000BDE03FE0FCEA73EA34E174E4ACE0F1E0BC
:10EB900054EB7B425322BDE03FE05EEB80E4F6E0C5
:10EBA0005E0022EDA2E169E1E4E4A2ED20E054EB95
:10EBB00093422E22BDE03FEB96E05EEB56E4F6E09A
:10EBC00054EBB10655442F4D4F44BDE03FE0F1E01A
:10EBD0005E0000E107E393E0BCE0BCE0FCE393E00F
:10EBE000BCE054EBC30355442ABDE03FE07AE0F1BA
:10EBF000E35AE096E0A1E0FCE35AE0BCE174E054A3
:10EC0000EBE504484F4C44BDE03FE05EFFFFE83ACF
:10EC1000E20AE83AE15EE150E054EC02023C23BD36
:10EC2000E03FE859E83AE141E054EC1C063E444933
:10EC3000474954BDE03FE07AE05E0009E291E05EC2
:10EC40000007E1ACE174E05E0030E174E054EC2CCC
:10EC50000123BDE03FE7BEE15EEBCAE0BCEC33EC74
:10EC600007E054EC50022353BDE03FEC52EA34E19C
:10EC7000B7E24DE2CBEC6BE054EC6502233EBDE025
:10EC80003FEA24E83AE15EE859E0B0E18DE054EC77
:10EC90007B045349474EBDE03FE261E2CBECA5E087
:10ECA0005E002DEC07E054EC9102552EBDE03FECE8
:10ECB0001FE05E0000EC68EC7EEB56EA9EE054EC50
:10ECC000A9012EBDE03FEC1FE07AE89EE05E000067
:10ECD000EC68E0BCEC96EC7EEB56EA9EE054ECC1AE
:10ECE00007444543494D414CBDE03FE05E000AE723
:10ECF000BEE141E054ECE003484558BDE03FE05E32
:10ED00000010E7BEE141E054ECF70448455245BD30
:10ED1000E03FE7C8E15EE054ED0A05414C4C4F543A
:10ED2000BDE03FE7C8E20AE054ED1A012CBDE03F28
:10ED3000ED0FE141E05E0001E4C3ED20E054ED2B76
:10ED400002432CBDE03FED0FE150E05E0001E4DC4A
:10ED5000ED20E054ED4006534F55524345BDE03F92
:10ED6000E830E9F9E054ED56072F535452494E4725
:10ED7000BDE03FE0BCE0B0E174E0BCE0BCE18DE0B0
:10ED800054ED68083E434F554E544544BDE03FEABC
:10ED900034E150E4CFE0A1E418E054ED8304574F90
:10EDA0005244BDE03FE07AED5DE814E15EED70E0D5
:10EDB0007AE0F1E0BCE46BE0B0E0F1E0BCE485E0D7
:10EDC0007AE2CBEDC7E1EEE0FCE0FCE0BCE18DE8EF
:10EDD00014E20AE0D7E18DED0FED8CED0FE78EE048
:10EDE000B0EA73E174E150E054ED9D074E46413EB8
:10EDF0004C4641BDE03FE05E0002E18DE054EDEBAA
:10EE0000074E46413E434641BDE03FEA73E05E00A7
:10EE10003FE1ACE174E054EE0006494D4D45443FFE
:10EE2000BDE03FE169E05E0040E1ACE054EE190472
:10EE300046494E44BDE03FE809E15EEA34E169E05D
:10EE40005E00BFE1ACE0A1E169E26CE2CBEE63EA17
:10EE500034E4CFE0A1E07AE4CFE0A1E169E3E7E2C6
:10EE6000BCEE67E05E0001E07AE2CBEE75E096ED85
:10EE7000F3E15EE07AE24DE2CBEE3BE07AE2CBEE0C
:10EE800093E0CCE07AEE08E0A1EE20E24DE05E00F7
:10EE900001E1B7E054EE2F474C49544552414CBD77
:10EEA000E03FE821E15EE2CBEEB2E05EE05EE4F658
:10EEB000ED2DE054EE970644494749543FBDE03FED
:10EEC000E07AE05E0039E291E05E0100E1ACE174DD
:10EED000E07AE05E0140E291E05E0107E1ACE18DA5
:10EEE000E05E0030E18DE07AE7BEE15EE29EE05454
:10EEF000EEB6053F5349474EBDE03FE0B0E169E063
:10EF00005E002CE18DE07AE89EE05E0001E26CE1BB
:10EF1000ACE07AE2CBEF23E1E4E0F1E05E0001ED6A
:10EF200070E0FCE054EEF2073E4E554D424552BDB6
:10EF3000E03FE07AE2CBEF62E0B0E169EEBDE24DA6
:10EF4000E2CBEF48E096E054E0F1EA45E7BEE15E4F
:10EF5000EBE9E0FCE17DEA45E05E0001ED70E2BC3A
:10EF6000EF32E054EF27073F4E554D424552BDE08A
:10EF70003FE07AE05E0000E05E0000E0BCEA73EE95
:10EF8000F8E0F1EF2FE2CBEF97E0FCEA24EA24E08F
:10EF90005E0000E2BCEFA7EA24E0CCE0FCE2CBEFAD
:10EFA000A3E19FE05EFFFFE054EF6609494E544540
:10EFB0005250524554BDE03FE830EA0DE05E00009B
:10EFC000E814E141E78EEDA2E07AE169E2CBF010CE
:10EFD000EE34E085E2CBEFF2E1E4E821E15EE24DE0
:10EFE000E1B7E2CBEFECE06EE2BCEFEEE4F6E2BCC0
:10EFF000F00CEF6EE2CBEFFEEE9FE2BCF00CEA739A
:10F00000EB56E05E003FE031EA85F094E2BCEFC4ED
:10F01000E096E054EFAB084556414C55415445BD90
:10F02000E03FE05E0000E7D3E141E830E9F9E0F1DC
:10F03000E0F1E814E15EE0F1EFB5E0FCE814E14155
:10F04000E0FCE0FCE830EA0DE054F01604515549CC
:10F0500054BDE03FE863E844E141E86DE137E05E3C
:10F060000000E821E141E7A8E07AE79DEAFEEA9E98
:10F07000EFB5EA85E821E15EE24DE2CBF086EB8078
:10F08000034F4B20EB56E2BCF066E054F04C0541D8
:10F09000424F5254BDE03FE84EE11FF051E054F0C2
:10F0A0008E063F41424F5254BDE03FE0BCE2CBF000
:10F0B000B5EB56F094EA24E054F0A14641424F5299
:10F0C0005422BDE03FEB96E05EF0A8E4F6E054F099
:10F0D000BB0127BDE03FE78EEDA2EE34E24DEB80B1
:10F0E000013FF0A8E054F0D10443484152BDE03F55
:10F0F000E78EEDA2E1E4E169E054F0E8465B4348C5
:10F1000041525DBDE03FF0EDE05EE05EE4F6ED2DE6
:10F11000E054F0FC4128BDE03FE05E0029EDA2E0B4
:10F1200096E054F114415CBDE03FE7D3E15EE2CBF1
:10F13000F14EE814E15EE07AE05E0040E99AE05EBC
:10F140000040E0A1E18DE174E814E141E054ED5D9F
:10F15000E814E141E096E054F1250643524541545C
:10F1600045BDE03FE809E15EED2DED0FE809E14125
:10F17000E78EEDA2E169E1E4ED20E05EE045E51A0D
:10F18000E054F15A4752454355525345BDE03FE8DC
:10F1900009E15EEE08E4F6E054F184415BBDE03F36
:10F1A000E05E0000E821E141E054F19B015DBDE03B
:10F1B0003FE05EFFFFE821E141E054F1AC04484943
:10F1C0004445BDE03FE809E15EE07AE169E05E00C8
:10F1D00080E1B7E0A1E150E054F1BD06524556454B
:10F1E000414CBDE03FE809E15EE07AE169E05E00A4
:10F1F0007FE1ACE0A1E150E054F1DB09494D4D4520
:10F200004449415445BDE03FE809E15EE07AE169E7
:10F21000E05E0040E1B7E0A1E150E054F1FB435B68
:10F22000275DBDE03FF0D3E05EE05EE4F6ED2DE06B
:10F2300054F21E48504F5354504F4E45BDE03FE7E7
:10F240008EEDA2EE34E07AE24DEB80013FF0A8E2D1
:10F2500061E2CBF267E05EE05EE4F6ED2DE05EE4B5
:10F26000F6E4F6E2BCF269E4F6E054F233065749FC
:10F270005448494EBDE03FE0B0E18DE0F1E18DE062
:10F28000FCE29EE054F26D044D4F5645BDE03FE078
:10F29000F1EA34E0A1E07AE107E174F274E2CBF242
:10F2A000A9E0FCE43DE2BCF2ADE0FCE418E054F27D
:10F2B00087054445505448BDE03FE113E84EE0A1C6
:10F2C000E18DE201E054F2B10C454E5649524F4EE9
:10F2D0004D454E543FBDE03FEA24E05E0000E0545F
:10F2E000F2C805574F524453BDE03FE809E15EE0E4
:10F2F0007AEA73E05E003FE1ACEB56EA9EEDF3E1A3
:10F300005EE07AE24DE2CBF2EFE096E054F2E20208
:10F310002E53BDE03FE113E84EE18DE2CBF339E13E
:10F3200013E84EE05E0002E18DE2E5E340E15EF4C9
:10F3300013E05EFFFEE330F32BE054F30F064D4184
:10F34000524B4552BDE03FED0FE809E15EF161ED42
:10F350002DED2DE59BBDE585E07AE15EE0A1E4B60B
:10F36000E15EE7C8E141E809E141E054F33D0443CF
:10F370004F4C44BDE03FFFA2E7B2FF95E418EB809D
:10F380001F363830392043616D656C466F72746882
:10F390002076312E3120203230204D6172203136DE
:10F3A000EB56EA85F094E054F36E022E48BDE03F40
:10F3B000E05E000FE1ACE05E0030E174E07AE05E18
:10F3C0000039E291E2CBF3CEE05E0007E174E03178
:10F3D000E054F3AA032E4848BDE03FE07AE201E2A0
:10F3E00001E201E201F3ADF3ADE054F3D4052E48A0
:10F3F000484848BDE03FE07AE201E201E201E20173
:10F40000E201E201E201E201F3D8F3D8E054F3EDC6
:10F4100002482EBDE03FF3F3EA9EE054F410022EC2
:10F4200042BDE03FE07AE169F3D8EA9EE1E4E054CE
:10F43000F41E022E41BDE03FE07AE169E07AE05E31
:10F440000020E05E007FF274E24DE2CBF454E096DF
:10F45000E05E002EE031E1E4E054F4320444554D26
:10F4600050BDE03FE05E0000E2E5EA85E07AF4139B
:10F47000EA9EE07AF421F421F421F421F421F4212C
:10F48000F421F421EA9EF421F421F421F421F42161
:10F49000F421F421F421E096EA9EF435F435F435B4
:10F4A000F435F435F435F435F435F435F435F43514
:10F4B000F435F435F435F435F435E05E0010E3301E
:10F4C000F46AE096E054F45C0453545550BDE03FB8
:10F4D000EA34E0A1E2E5E340E07AE141E784E330A9
:10F4E000F4D6E054F4C8055354555049BDE03FEA02
:10F4F00034E0A1E2E5E340E19FE340E141E784E35A
:10F5000030F4F5E054F4E6055453545550BDE03F53
:10F51000EA34E0A1E2E5E340E07AE15EE279E2CBC1
:10F52000F532EB8007204572726F7240EB56E34074
:10F53000ECACE784E330F516E054F5070654535479
:10F54000555049BDE03FEA34E0A1E2E5E340E19FE8
:10F55000E340E15EE279E2CBF56AEB800720457299
:10F56000726F7240EB56E340ECACE784E330F54C4D
:10F57000E054F53C0450415353BDE03FF4CDF50D4C
:10F58000F4ECF543E054F57406504153534553BD34
:10F59000E03FE05E0000E2E5EB80012EEB56F579FE
:10F5A000E30CF598E054F5880653444C424132BDD3
:10F5B000E03FE05EFFDCE150E054F5A80753444C27
:10F5C00042413130BDE03FE07AE05E00FFE1ACE077
:10F5D0005EFFDAE150E05E0008E238E05EFFDBE16A
:10F5E00050E054F5BC06534449444C45BDE03FE06F
:10F5F0005EFFD9E07AE169E05E0080E26CE2CBF583
:10F60000F3E096E054F5E50453445244BDE03FE096
:10F61000A1F5C4F5ECE05E0000E05EFFD9E150E04A
:10F620007AE05E0200E174E0A1E2E5E05EFFD9E08D
:10F630007AE169E05E00E0E26CE2CBF62FE096E072
:10F640005EFFD8E169E340E150E30CF62BE054F6AD
:10F65000070453445752BDE03FE0A1F5C4F5ECE088
:10F660005E0001E05EFFD9E150E07AE05E0200E179
:10F6700074E0A1E2E5E05EFFD9E07AE169E05E00D6
:10F68000A0E26CE2CBF679E096E340E169E05EFF50
:10F69000D8E150E30CF675E054F65105534452445A
:10F6A0006EBDE03FE05E0000E2E5EA34F60CE05EAD
:10F6B0000200E174E0A1E1E4E0A1E30CF6AAEA248F
:10F6C000E054F69B0753445244323536BDE03FE0E8
:10F6D000A1F5C4F5ECE05E0000E05EFFD9E150E08A
:10F6E0007AE05E0100E174E0A1E2E5E05EFFD9E0CE
:10F6F0007AE169E05E00E0E26CE2CBF6EFE096E0F2
:10F700005EFFD8E169E340E150E30CF6EBE05E0117
:10F7100000E05E0000E2E5E05EFFD9E07AE169E04A
:10F720005E00E0E26CE2CBF71BE096E05EFFD8E122
:10F7300069E096E30CF717E054F6C40853445244CA
:10F740003235366EBDE03FE05E0000E2E5EA34F6B9
:10F75000CCE05E0100E174E0A1E1E4E0A1E30CF79C
:10F760004DEA24E054F73B05534457526EBDE03F49
:10F77000E05E0000E2E5EA34F656E05E0200E17485
:10F78000E0A1E1E4E0A1E30CF776EA24E054F767B6
:10F7900005534457525ABDE03FF5C4F5ECE05E0016
:10F7A00001E05EFFD9E150E05E0200E05E0000E2B1
:10F7B000E5E05EFFD9E07AE169E05E00A0E26CE29C
:10F7C000CBF7B5E096E05E0000E05EFFD8E150E3E5
:10F7D0000CF7B1E054F79003706976BDE03FE05E4E
:10F7E000004FE05E1000E150E05E1F8BE05E100114
:10F7F000E141E05E86A0E05E1003E141E05E00B71B
:10F80000E05E1005E150E05EFFDEE05E1006E141E3
:10F81000E05E1000E06EE054F7D7055049564F54B3
:10F82000BDE03FE05E007EE05E1008E150E05E106B
:10F8300009E141F7DBE054F81A085049564F545299
:10F840005354BDE03FE05E6E9FE05E1008E141E092
:10F850005EFFFEE05E100AE141F7DBE054F8390696
:10F860004D4D554D4150BDE03FE05E0010E05E0063
:10F8700000E2E5E340E07AE05E0008E21FE1B7E085
:10F880005EFFDEE141E30CF873E05E0020E05EFF26
:10F89000DEE150E054F85F064546544F4344BDE076
:10F8A0003FE05E2607E05EFFDEE141E054F89706A8
:10F8B0004344544F4344BDE03FE05E2606E05EFF14
:10F8C000DEE141E054F8AF054355424958BDE03F01
:10F8D000F866F89EE05E0002F5AFE05E0000E05ED4
:10F8E000D800E05E0004F6A1E05E0000F5AFF8B6D7
:10F8F000F842E054F8C7065344424F4F54BDE03F2E
:10F90000F866F89EE05E0002F5AFE05EC000E05EE3
:10F910000010F6A1E05E0000F5AFF8B6E05E2787C4
:10F92000E05EFFDEE141F842E054F8F60542415363
:10F930004943BDE03FE05E1000F8FDE054F92C07BC
:10F940005344464F525448BDE03FE05E0FF0F8FD8F
:10F95000E054F93F054255474759BDE03FF866F886
:10F960009EE05E0002F5AFE05E1E00E05EC400E0D7
:10F970005E000EF6A1E05E0000F5AFF8B6F842E0DA
:10F9800054F95404464C4558BDE03FF866E05E002B
:10F9900002F5AFE05E2000E05EC100F60CE05E0024
:10F9A00000F5AFE05EC100F820E054F983074E494E
:10F9B00054524F5339BDE03FF866F89EE05E0002B6
:10F9C000F5AFE05E84C8E05E2600E05E0012F7441A
:10F9D000E05E0000F5AFE05E0100E05EDFF2E141D5
:10F9E000E05E0103E05EDFF4E141E05E010FE05E16
:10F9F000DFF6E141E05E010CE05EDFF8E141E05E50
:10FA00000106E05EDFFAE141E05E0109E05EDFFC55
:10FA1000E141F8B6E05E2602F820E054F9AD054673
:10FA2000555A4958BDE03FF866E05E0003F5AFE087
:10FA30005E0000E05ED000F60CE05ED000F820E052
:10FA400054FA1E07424144424C4F42BDE03FEB8016
:10FA50000F4552524F522042414420424C4F4220C7
:10FA6000EB56EB56EA85F094E054FA4306424144E3
:10FA70004D4147BDE03FE07AE05E0006E174EB8077
:10FA80000443463039E3E7E2CBFA9CEB800C4D416E
:10FA9000474943204E554D424552FA4BE054FA6CCB
:10FAA0000642414453495ABDE03FE07AE15EE0B08E
:10FAB000E4B6E15EE26CE2CBFAC9EB800A5A455249
:10FAC0004F204259544553FA4BE054FAA0054241A5
:10FAD000444C44BDE03FE07AE15EED0FE279E2CBD9
:10FAE000FAF0EB80094C4F41442041444452FA4B18
:10FAF000E054FACD04424C4F42BDE03FE809E15EDC
:10FB0000ED0FE07AF161ED2DED2DED2DE05E434638
:10FB1000ED2DE05E3039ED2DE59BBDE585E4B6E0E9
:10FB20007AED0FE0A1E141E4B6E809E15EE0A1E190
:10FB300041E054FAF406524D424C4F42BDE03FF0D2
:10FB4000D3E4E6FA73E07AE15EE7C8E141E15EE121
:10FB50005EE809E141E054FB3507464958424C4F05
:10FB600042BDE03FE05EFAF9E05E0021E174F0D3CF
:10FB7000E4E6FA73E05E0002E18DE141E054FB59F6
:10FB8000065752424C4F42BDE03FE05E0001E21F8B
:10FB9000E7EDE4B6E15EE174F0D3E4E6FA73FAA7C8
:10FBA000E07AE4B6E15EE0B0E15EE18DE05E00099E
:10FBB000E238E05E0001E174E0A1E15EE0A1E7ED82
:10FBC000E15EF5AFF76DE054FB80065244424C4FC6
:10FBD00042BDE03FE7EDE15EF5AFE05E0001E21F10
:10FBE000E7EDE4B6E15EE174ED0FEA34F60CED0FFB
:10FBF000E4B6EE08E05E0003E174FA73FAD3E07A4B
:10FC0000E4B6E15EE0B0E15EE18DE05E0009E2387D
:10FC1000E0A1E0F1E07AE05E0000E279E2CBFC3ABC
:10FC2000E0F1E05E0200E174E0A1E1E4E0A1EA3489
:10FC3000F60CE0FCE1EEE2BCFC14E096EA24E0FC09
:10FC4000E809E15EED0FE141E4B6E07AE15EE7C884
:10FC5000E141E4B6E15EE809E141E054FBCA066E29
:10FC60007874627566BDE03FE7FBE15EE07AE05ED6
:10FC70000300E1ACE07AE05E0008E238E0F1E05E2B
:10FC80000100E174E05E0300E1ACE0A1E05EFCFF96
:10FC9000E1ACE1B7E7FBE141E0FCE054FC5E066368
:10FCA0007572627566BDE03FE05E000AE21FE7FB29
:10FCB000E15EE05EF3FFE1ACE1B7E7FBE141E05478
:10FCC000FC9E056275663261BDE03FE05E000AE2BF
:10FCD0001FE05ED000E174E054FCC206627566323B
:10FCE0007364BDE03FE07AFCC8E0A1E7EDE9F9F517
:10FCF000AFE0A1E1F8E4B6E7FBE174E15EE1F8E131
:10FD000074E0A1E05E0002E054FCDB0562756672FF
:10FD100064BDE03FE05E0001E0B0E21FE7FBE15EB2
:10FD2000E1ACE2CBFD2CE096E2BCFD30FCE2F6A1BA
:10FD3000E054FD0B056275667772BDE03FE05E0042
:10FD400001E0B0E21FE7FBE15EE1ACE07AE2CBFD6F
:10FD500063E7FBE15EE1C3E7FBE141FCE2F76DE253
:10FD6000BCFD65EA24E054FD340661736E626C6B81
:10FD7000BDE03FE05E0004E05E0000E2E5E7FBE19D
:10FD80005EE05E0001E340E05E0004E174E21FE13A
:10FD9000ACE2CBFDB1E340E4C3E4B6E7FBE174E1E0
:10FDA0005EE0B0E26CE2CBFDB1E096E340E2FFE062
:10FDB00054E30CFD7DFC65E07AFD3AE07AE0F1E485
:10FDC000C3E4B6E7FBE174E141E0FCE05E0001E082
:10FDD000B0E05E0004E174E21FE7FBE15EE1B7E73B
:10FDE000FBE141E054FD6905424C4F434BBDE03F10
:10FDF000FD70E07AFCA5E07AFD11FCC8E054FDE757
:10FE000006425546464552BDE03FFD70E07AFCA5EE
:10FE1000FCC8E054FE00044C4F4144BDE03FE830D4
:10FE2000E9F9E0F1E0F1E7D3E15EE0F1E814E15E49
:10FE3000E0F1E07AE7D3E141FDEDE05E0000E81497
:10FE4000E141E05E0400EFB5E0FCE814E141E0FCD4
:10FE5000E07AE24DE2CBFE62E096E05E0000E2BCBA
:10FE6000FE6AE07AE7D3E141FDEDE0FCE05E03FFEE
:10FE7000E1ACE1B7E0FCE830EA0DE054FE160454D2
:10FE8000485255BDE03FE1E4E0A1E2E5E340FE1B5E
:10FE9000E30CFE8CE054FE7E0C534156452D42553A
:10FEA0004646455253BDE03FE05E0004E05E000080
:10FEB000E2E5E340FD3AE30CFEB2E054FE9805466D
:10FEC0004C555348BDE03FFEA5E05E0000E7FBE176
:10FED00041E054FEBE06555044415445BDE03FE765
:10FEE000FBE07AE15EE07AE05E000AE238E05E0084
:10FEF00003E1ACE05E0001E0A1E21FE1B7E0A1E1B7
:10FF000041E054FED50D454D5054592D42554646BD
:10FF1000455253BDE03FE05E0000E7FBE141E054A5
:10FF2000FF05046C746F70BDE03FE05E0040E05E72
:10FF30000000E2E5E05E002DE031E30CFF34EA85ED
:10FF4000E054FF22044C495354BDE03FEA85FF27AB
:10FF5000E07AE7DEE141FDEDE05E0010E05E0000EA
:10FF6000E2E5E05E0040E05E0000E2E5F435E30C2F
:10FF7000FF6CEA85E30CFF62E096FF27E0548606FB
:10FF80001F8B10CE0700CE08007EF3733BFF4405A5
:10FF900023494E4954BDE5F7001AFF8F0555494ED8
:10FFA0004954BDE0450000000A00000000000000C8
:10FFB00002080000000000000000000000FF9C207C
:10FFC0002D2D444943542F53504152452D2D2D3E44
:10FFD0003C2D2D2D2D20494F202D2D2D2D2D2D3E0D
:10FFE0003C2D2D2D20554E55534544202D2D2D3E75
:10FFF000FF8CFF8CFF8CFF8CFF8CFF8CFF8CFF7EB7
:00000001FF
