:020000040000FA
:200000008EEF44BFEF0A7FEF0DCEF125FFEF17FFEF088603B7FC180101018615B7EF0CB6B3
:20002000EF0CB7FC188EEF448EEF627FEF137FEF167FEF6DCEF76B8D618D5916BDF0EFCEF6
:20004000F7C0E100270B0808088CF7FC26F47EF441EE016E00FEEF026E00FEEF086E00FE57
:20006000EF176E00863F8D2920B58D0CB7EF0E8D07B7EF0FFEEF0E398D5348484848168D4F
:200080004C1B3944444444840F8B30813923028B077EF20A7EF1F38DF808A600810426F740
:2000A000398DC7CEF76B8DF28D728D41FFEF0E8DE3812027EE815E26070909FFEF0E20E3F8
:2000C0008D0D8DB609A700A10027D820978DC580302B9581092F0A81112B8D81162E89809F
:2000E0000739A6008D9DA60008209C8DF58DF38620209EBDF261FFEF68A600B7EF6D27CB0F
:20010000863FA700BDF261FFEF65A600B7EF1627BA863FA700BDF2C4BEEF0A3BCEEF0E8DA4
:20012000CAFEEF0E39BFEF0A306D0626026A056A068EEF627DEF132718FEEF68B6EF63A7BE
:20014000007DEF4F2708FEEF6AB6EF6CA7007EF2E4FEEF0A8606B7EF6EE6015858CEF782DD
:20016000862D582402A600BDF20A087AEF6E26F0CEF7718D5AFEEF0A0808BDF0EDFFEF103E
:20018000CEF7758D4AFEEF10BDF0EDFFEF10CEF7788D3CFEEF108D52FFEF107DEF13260A2A
:2001A000CEF77E8D2AFEEF108D40CEF77B8D20CEEF0A7DEF1326228D31B6EF16260FFEEF65
:2001C00065A700B6EF6D2705FEEF68A700201E7EF09A5F50F7EF0D2014E600A6018B07C9D5
:2001E00000F7EF10B7EF11CEEF107EF0EB2055FFEF14398DFAB6FC184724FAB6FC19847FF8
:20020000817F27F17DEF0D2F013936B6FC18474724F932B7FC1939CEF7B08D328EEF446E9F
:20022000008D2308098DCC810827F9A700810427600820F18D1E8D2EFEEF040908A700BC64
:20024000EF0626F8204BCEF7962003CEF7A3BDF09A7EF06A8DF0FFEF048DF0FFEF067EF2CB
:20026000C4FEF78C20E8CEF7B9BDF09A7EF0788DE3CEF7B08DD8FEEF040908A600FFEF04A2
:20028000FEEF0EA70008FFEF0EFEEF04BCEF0626E97EF01F8DBE8DCE16FEEF040908A60016
:2002A000112608FFEF0E8D1CBDF11CBCEF0626ED20DF8620BDF20A5A26F839B7EF67CEEFF3
:2002C000677EF0E2CEF7887EF09ABDF246201DBDF2468DF0FEEF0AF6EF0EE706B6EF0FA73C
:2002E000077CEF13BDF151FEEF0AEE06FFEF688DD3CEEF68BDF0EBCEEF4F86056F00084AC4
:2003000026FAFEEF68E600BDF0EDFFEF68A600B7EF65A601B7EF66F7EF6417BDF518B6EF5E
:2003200010812A26037EF3E9B6EF64818D26057CEF4F202D84F08160271881A0271481E0E5
:2003400027108180270481C026177CEF50CEF759200C7CEF51B6EF65BDF2BBCEF75CBDF0B9
:200360009AFEEF68B6EF64818C271D818E271981CE271584F0812026057CEF4F202581603A
:20038000254384308130261B7CEF537DEF5026058624BDF20AA60008FFEF68BDF2BBFEEFEC
:2003A0006820037CEF52A60008FFEF687DEF5126147DEF53260C7DEF502607168624BDF2B1
:2003C0000A17BDF2BB7DEF4F271FC603BDF2B24FF6EF652C0286FFFBEF69B9EF68B7EF6AA8
:2003E000F7EF6BCEEF6ABDF0EBC60D86017DEF522719C6017DEF4F260EC6087DEF50260728
:200400007DEF502602C609860220107DEF53270B8603C6067DEF502702C60536BDF2B233B1
:20042000CEEF64A60081202F0481602F02862E08BDF20A5A26EDBDF1F316BDF0EFC12027D2
:2004400034FEEF0A08C143271C08C142271708C141271208C1582707CEEF0AC1532613BD76
:20046000F078A70008BDF078A700BDF2C4BDF15120C47EF01F7DEF1326037EF2EFC63FB6F4
:20048000EF64818D2609FEEF6AFFEF687FEF4F7DEF4F270CFEEF6AA600B7EF6CE700204816
:2004A000816E271481AD2710817E270481BD261CFEEF65FFEF682030FEEF0AA605BBEF655A
:2004C000B7EF69A6048900B7EF68201CFEEF0A81392604EE08200681382605EE0DFFEF6864
:2004E000813F2715813E2711FEEF68A600B7EF63E700E10026067EF1187EF064B6EF68812A
:20050000E025F6FEEF0AB6EF64817E27C681BD26E8EE06080808209B81402426BDF5B0B6BE
:20052000EF64813227118136270D8133270E8137270ACEF75F2008CEF7632003CEF7677E7F
:20054000F09A814E2704815E26034F20CF81802419844FBDF5B0B6EF10812A27D5B6EF64F9
:20056000816024CE841027CF20D2843F810F27DA810727D6840F810327D0810C2C0E8B50A3
:20058000BDF5B0B6EF64844027AD20B0B6EF64818D26048653208581C0240A819D27AB84E6
:2005A0000F8B502008840F8B5281602D9D7EF51C5FB7EF1048BBEF10C900CEF633FFEF14A6
:2005C000BBEF15F9EF14F7EF14B7EF15FEEF14A600B7EF108D06A6018D02A6027EF20ABDA6
:2005E000F2468608B7EF6EBDF2C4BDF11CC610BDF0ED5AC5032605BDF0EFC10026F1BDF204
:20060000C4C605BDF2B2FEEF0EC610A60081202504815F2502862E8DC3085A26EEFFEF0E2C
:200620007AEF6E26C2BDF1F3812027B6815627AF7EF01F2A2A2A4E4F504E4F502A2A2A2AA2
:200640002A2A2A2A2A544150545041494E58444558434C56534556434C43534543434C49D6
:200660005345495342414342412A2A2A2A2A2A2A2A2A2A2A2A5441425442412A2A2A444154
:20068000412A2A2A4142412A2A2A2A2A2A2A2A2A2A2A2A4252412A2A2A424849424C534296
:2006A0004343424353424E4542455142564342565342504C424D49424745424C5442475426
:2006C000424C45545358494E5350554C50554C4445535458535053485053482A2A2A5254A7
:2006E000532A2A2A5254492A2A2A2A2A2A5741495357494E45472A2A2A2A2A2A434F4D4C69
:2007000053522A2A2A524F5241535241534C524F4C4445432A2A2A494E435453544A4D500A
:20072000434C52535542434D50534243425352414E444249544C4441535441454F52414479
:20074000434F52414144444350584A53524C44535354534C44585354582324042C5804201A
:2007600020200420412004204220040D0A3E20040420423D04413D04583D04533D045043C8
:200780003D0448494E5A56430D0A20040D0A424B4144445220040D0A46524F4D20414444F4
:2007A0005220040D0A5448525520414444522004544F2041444452200456414C5545200467
:2007C0004DF26F45F0A147F11852F15154F2CF40F22148F1D356F5DF49F2344AF21746F219
:2007E0009451802044F2CA4BF2E131F10432F0F326F82B2AF8004FF1D24EF1D454686973F3
:20080000205331206C6F61642068617320656E74657265642073797374656D207363726183
:2008200074636820617265610D0A0436FFEF6FBDF8B3815326F98D7B81392736813126EFD1
:200840007FEF748D428002B7EF738D2D8D397AEF732715A700A100261408BCEF002F02202E
:20086000EBCEF7FC8D66200A7CEF7427C2863FBDF8BFFEEF6F327EF01F8D0CB7EF718D074F
:20088000B7EF72FEEF71398D1048484848168D091B16FBEF74F7EF7439BDF8B380302BCD0E
:2008A00081092F0A81112B0781162E03800739313120BA37F6FC185724FAB6FC19333937C9
:1808C000F6FC18575724F9B7FC193339A600810427058DEB0820F539EE
:080FF800F055F05FF05AF00023
:04000005FFFF1000E9
:00000001FF
