:0300000002021FDA
:0C021F00787FE4F6D8FD7581200200F025
:100170002052656420436F6E74726F6C20002020E3
:0F01800049522D434F44453A202D2D4820200051
:1001F900C2A6D2A5D2A700000000E580339201C2B1
:03020900A7A201A8
:01020C0022CF
:1001AD001201F940FBC2A6C2A5C2A700008F8000B4
:0C01BD00000000D2A700000000C2A72232
:1001C9001201F940FBD2A6C2A5C2A78F8000000088
:0A01D90000D2A700000000C2A72218
:100132007F0F7E001201937F381201AD12018F7F73
:10014200381201AD12018F7F381201AD12018F7F7B
:100152000C1201AD12018F7F061201AD1F7E00123B
:0E01620001937F011201AD7F057E0002019323
:07022B00EF4480FF0201AD6A
:1000F000D2B2D295D2947F0A7E00120193120132BD
:10010000E4FF12022BE4FEEE90017093FF600612F2
:1001100001C90E80F27F4012022BE4FEEE90017EB8
:1001200093FF60061201C90E80F275A881758801DF
:0201300080FE4F
:03000300020006F2
:0D000600C0E0C0F0C083C082C0D075D00043
:10001300751100C2A87F0F12020D30B205D2A802DB
:1000230000E520B2077F0112020D80F6750F0075FF
:10003300100030B2077F0112020D80F620B2077F55
:100043000112020D80F630B2137F0112020D051169
:10005300E511C3941E40EFD2A80200E57408250FF2
:10006300F8C000E6FFC313D000F6E511C3940840BF
:10007300097408250FF8E64480F67511000510E5AC
:1000830010C3940840AC050FE50FC3940440A0E5EA
:100093000BF4650A6004D2A88048E50A540FF50DF5
:1000A300E50AC4540FF50EE50DD3940940047437E3
:1000B30080027430250DF50DE50ED39409400474C8
:1000C3003780027430250EF50E7F4B12022BAF0ED4
:1000D3001201C97F4C12022BAF0D1201C91201E3A9
:0200E300D2A8A1
:0B00E500D0D0D082D083D0F0D0E03229
:1001E300E4F5127F0412020DB2950512E512C394D1
:0501F3006440F0D2950C
:0101F80022E4
:10020D00AD071FED600BE4FEEEC3940D50F20E80B2
:01021D00F7E9
:01021E0022BD
:04018F007F057E006A
:10019300EF1FAA0670011E4A600FE4FDEDC394FA37
:0901A30050EE000000000D80F395
:0101AC002230
:00000001FF
