:020000000140BD
:0200010000C835
:020002000106F5
:0200030000C03B
:02000400018475
:02000500006693
:020006000000F8
:0200070000EE09
:02000800008472
:02000900005A9B
:02000A0000B83C
:02000B00000AE9
:02000C0000549E
:02000D0000846D
:02000E00018669
:02000F00008C63
:020010000108E5
:02001100008A63
:0200120001608B
:020013000008E3
:02001400014E9B
:02001500009455
:0200160001A047
:020017000044A3
:020018000116CF
:020019000000E5
:02001A0000DA0A
:02001B0000469D
:02001C0000D80A
:02001D000040A1
:02001E000100DF
:02001F0000C619
:0200200001F8E5
:0200210000E6F7
:02002200015685
:02002300000CCF
:0200240001CA0F
:0200250001D008
:0200260001E6F1
:0200270001488E
:02002800019045
:020029000104D0
:02002A00018E45
:02002B0000B81B
:02002C000002D0
:02002D000106CA
:02002E00008050
:02002F00007C53
:02003000004C82
:0200310000408D
:02003200017259
:02003300008C3F
:02003400004882
:0200350000C405
:020036000008C0
:020037000016B1
:02003800015075
:02003900015470
:02003A000004C0
:02003B000122A0
:02003C00019829
:02003D00014080
:02003E0000863A
:02003F0000902F
:02004000005E60
:0200410000407D
:02004200005C60
:02004300009427
:02004400009228
:020045000108B0
:02004600008830
:0200470001D0E6
:0200480001DED7
:02004900016450
:02004A0001189B
:02004B00018A28
:02004C00015C55
:02004D0001149C
:02004E0000822E
:02004F00016C42
:0200500000802E
:020051000108A4
:0200520001E0CB
:020053000104A6
:0200540001D8D1
:02005500011296
:02005600002088
:0200570001AAFC
:02005800002086
:0200590001584C
:02005A00011093
:02005B0001AAF8
:02005C0001227F
:02005D0001ACF4
:02005E0001940B
:02005F00018816
:02006000010499
:02006100019804
:0200620001801B
:02006300010298
:0200640000603A
:02006500010494
:02006600018C0B
:0200670000A6F1
:0200680001583D
:0200690001CCC8
:02006A00018C07
:02006B00015A38
:02006C0001A6EB
:02006D00010090
:02006E00010E81
:02006F00011876
:0200700000840A
:0200710001008C
:02007200018803
:02007300012A60
:02007400010089
:02007500012C5C
:02007600008206
:02007700000285
:02007800000086
:0200790000285D
:02007A00000084
:02007B00012E54
:02007C00004042
:02007D00013C44
:02007E0001344B
:02007F00010A74
:0200800000027C
:0200810000106D
:02008200011863
:020083000080FB
:02008400004832
:0200850000F881
:02008600001266
:0200870000A2D5
:02008800000274
:0200890001B8BC
:02008A00001262
:02008B00008CE7
:02008C00010071
:02008D00011858
:02008E0000640C
:02008F0000C6A9
:02009000012647
:0200910000006D
:0200920000303C
:02009300001259
:02009400010465
:02009500014028
:0200960001085F
:0200970000F473
:02009800000660
:02009900002045
:02009A000172F1
:02009B0000D88B
:02009C0000263C
:02009D00004819
:02009E0000A8B8
:02009F000084DB
:0200A0000162FB
:0200A100005409
:0200A200002C30
:0200A300011842
:0200A40000203A
:0200A500015404
:0200A600011A3D
:0200A7000088CF
:0200A8000060F6
:0200A90000AEA7
:0200AA00010C47
:0200AB000082D1
:0200AC0001440D
:0200AD00014010
:0200AE0000064A
:0200AF00018CC2
:0200B000000846
:0200B10000B09D
:0200B200004606
:0200B300013812
:0200B400014801
:0200B50000B297
:0200B600012C1B
:0200B7000090B7
:0200B800010045
:0200B900010242
:0200BA00010C37
:0200BB0000C87B
:0200BC000142FF
:0200BD00001031
:0200BE0000EE52
:0200BF0001102E
:0200C000013607
:0200C10000D26B
:0200C200012813
:0200C300002219
:0200C40000102A
:0200C500007CBD
:0200C6000180B7
:0200C7000066D1
:0200C8000054E2
:0200C9000138FC
:0200CA000092A2
:0200CB000086AD
:0200CC00012809
:0200CD0000929F
:0200CE000042EE
:0200CF000054DB
:0200D00000E846
:0200D1000142EA
:0200D20000929A
:0200D300010C1E
:0200D400001E0C
:0200D500002009
:0200D600001216
:0200D70000AA7D
:0200D800015ACB
:0200D90000F62F
:0200DA000082A2
:0200DB00004AD9
:0200DC00010819
:0200DD0001B46C
:0200DE0000021E
:0200DF0000928D
:0200E0000132EB
:0200E10000A07D
:0200E200001606
:0200E3000024F7
:0200E4000176A3
:0200E500001207
:0200E60000AA6E
:0200E7000174A2
:0200E80001E431
:0200E900001203
:0200EA000028EC
:0200EB000014FF
:0200EC000054BE
:0200ED000124EC
:0200EE000028E8
:0200EF00000807
:0200F0000116F7
:0200F100019478
:0200F2000040CC
:0200F30000000B
:0200F4000014F6
:0200F500018484
:0200F600000800
:0200F7000024E3
:0200F800008680
:0200F900018282
:0200FA000130D3
:0200FB000008FB
:0200FC0000E022
:0200FD0001A65A
:0200FE000010F0
:0200FF00008A75
:020100000000FD
:020101000006F6
:0201020000D229
:020103000120D9
:02010400018276
:0201050001886F
:020106000044B3
:020107000104F1
:020108000020D5
:0201090000A64E
:02010A000000F3
:02010B00008C66
:02010C000110E0
:02010D000006EA
:02010E000004EB
:02010F000000EE
:02011000000CE1
:0201110001A447
:020112000102E8
:020113000120C9
:020114000108E0
:020115000106E1
:02011600008067
:020117000002E4
:020118000004E1
:020119000016CE
:02011A0001B032
:02011B00000CD6
:02011C00008859
:02011D00018C53
:02011E000100DE
:02011F00019449
:020120000108D4
:020121000000DC
:020122000120BA
:02012300008852
:020124000134A4
:020125000010C8
:020126000130A6
:02012700014095
:020128000108CC
:0201290001943F
:02012A00019042
:02012B000020B2
:02012C00008849
:02012D00004888
:02012E0000804F
:02012F0000A42A
:020130000004C9
:0201310001A02B
:0201320001A02A
:02013300008446
:020134000000C9
:0201350001487F
:0201360001A422
:0201370000A026
:0201380000883D
:020139000100C3
:02013A0000ECD7
:02013B000010B2
:02013C000018A9
:02013D0001A41B
:02013E000000BF
:02013F0001F4C9
:02014000004875
:0201410000C4F8
:0201420000407B
:020143000000BA
:02014400008039
:02014500003088
:02014600011C9A
:02014700018431
:0201480001A014
:0201490000A212
:02014A0001842E
:02014B000006AC
:02014C00008C25
:02014D0000426E
:02014E00012688
:02014F0000842A
:02015000008E1F
:0201510000228A
:02015200015A50
:020153000000AA
:0201540000DACF
:02015500008226
:0201560000089F
:0201570001089D
:02015800006243
:0201590001049F
:02015A00006043
:02015B0000881A
:02015C000000A1
:02015D0001009F
:02015E0000108F
:02015F00004856
:0201600000900D
:0201610000405C
:0201620000207B
:02016300003466
:02016400000495
:02016500000098
:0201660001B0E6
:02016700007422
:02016800011084
:02016900005242
:02016A00002C67
:02016B0000682A
:02016C00008011
:02016D00006030
:02016E00000887
:02016F000198F5
:0201700000206D
:020171000098F4
:0201720001A2E8
:02017300011C6D
:02017400002663
:0201750001582F
:02017600000087
:02017700003056
:02017800001C69
:02017900014C37
:02017A00000083
:02017B00001072
:02017C0001344C
:02017D00000878
:02017E0000047B
:02017F00013845
:0201800001324A
:02018100011467
:020182000090EB
:0201830000205A
:02018400010672
:02018500000870
:0201860000680F
:0201870000AACC
:02018800010C68
:02018900014033
:02018A0000482B
:02018B00010071
:02018C00000869
:02018D0000C4AC
:02018E00002A45
:02018F0000A4CA
:02019000004A23
:0201910000105C
:02019200002843
:0201930000402A
:02019400001E4B
:0201950000D296
:02019600000463
:02019700000462
:02019800005A0B
:0201990000B4B0
:02019A00004A19
:02019B0000B2B0
:02019C0001025E
:02019D0000124E
:02019E0000025D
:02019F00000658
:0201A0000092CB
:0201A1000174E7
:0201A200008ECD
:0201A300000E4C
:0201A400001643
:0201A50000D682
:0201A600014E08
:0201A700000056
:0201A800006AEB
:0201A900004014
:0201AA00000C47
:0201AB0001F061
:0201AC0000143D
:0201AD0000044C
:0201AE0001CE80
:0201AF0001004D
:0201B000000C41
:0201B100010249
:0201B2000058F3
:0201B300001436
:0201B400004CFD
:0201B50001D077
:0201B600011036
:0201B7000086C0
:0201B800000045
:0201B900004202
:0201BA00018CB6
:0201BB00013C05
:0201BC00000839
:0201BD0000F050
:0201BE0001142A
:0201BF00000C32
:0201C000000835
:0201C10001300B
:0201C200012C0E
:0201C300001228
:0201C400000435
:0201C500010631
:0201C600003007
:0201C7000060D6
:0201C800010034
:0201C90000C074
:0201CA00011C16
:0201CB000040F2
:0201CC00012010
:0201CD000154DB
:0201CE0000101F
:0201CF000030FE
:0201D00001101C
:0201D1000086A6
:0201D2000030FB
:0201D300019891
:0201D400001613
:0201D5000072B6
:0201D60001889E
:0201D700009294
:0201D800009C89
:0201D9000030F4
:0201DA00000A19
:0201DB000042E0
:0201DC00011010
:0201DD00001808
:0201DE0000E23D
:0201DF00000816
:0201E000009687
:0201E100009A82
:0201E2000066B5
:0201E300004CCE
:0201E40001B860
:0201E500010413
:0201E600001007
:0201E7000072A4
:0201E800000A0B
:0201E90001C44F
:0201EA000016FD
:0201EB000118F9
:0201EC000040D1
:0201ED00008E82
:0201EE000110FE
:0201EF000038D6
:0201F0000014F9
:0201F1000042CA
:0201F200018C7E
:0201F300000406
:0201F4000010F9
:0201F5000018F0
:0201F600014CBA
:0201F70000A264
:0201F8000008FD
:0201F900010201
:0201FA0000887B
:0201FB000010F2
:0201FC000022DF
:0201FD00011EE1
:0201FE00004EB1
:0201FF0001D429
:02020000008676
:02020100019A60
:020202000028D2
:020203000020D9
:0202040001C235
:020205000104F2
:02020600014EA7
:02020700008471
:02020800013AB9
:02020900006093
:02020A00009A58
:02020B00008071
:02020C00003CB4
:02020D000014DB
:02020E000004EA
:02020F00018864
:0202100001707B
:02021100006289
:02021200007476
:0202130000A247
:02021400010CDB
:02021500016086
:020216000124C1
:020217000000E5
:0202180001A63D
:020219000118CA
:02021A00009250
:02021B000136AA
:02021C0001C01F
:02021D000000DF
:02021E00005C82
:02021F0000726B
:0202200000D804
:02022100018852
:020222000028B2
:020223000100D8
:020224000000D8
:020225000020B7
:020226000008CE
:0202270001C410
:020228000020B4
:020229000004CF
:02022A00008052
:02022B00008849
:02022C000128A7
:02022D00004C83
:02022E00014489
:02022F00002E9F
:020230000000CC
:02023100018842
:0202320001A029
:02023300002C9D
:02023400005078
:020235000108BE
:020236000000C6
:0202370001289C
:0202380000C400
:02023900014E74
:02023A00008042
:02023B0000D8E9
:02023C0001D6E9
:02023D00012896
:02023E000006B8
:02023F000008B5
:0202400000407C
:02024100008C2F
:0202420000209A
:020243000118A0
:02024400005266
:020245000108AE
:020246000006B0
:02024700001C99
:02024800001C98
:020249000110A2
:02024A00004C66
:02024B00002E83
:02024C0000644C
:02024D000000AF
:02024E00002886
:02024F000000AD
:02025000006C40
:020251000006A5
:02025200008426
:020253000008A1
:02025400006A3E
:020255000004A3
:0202560001485D
:02025700003273
:0202580000089C
:0202590000AAF9
:02025A000000A2
:02025B00003869
:02025C0001049B
:02025D00000897
:02025E00001C82
:02025F0000801D
:02026000000A92
:02026100009209
:0202620000FC9E
:02026300011088
:02026400009AFE
:02026500002077
:02026600003A5C
:0202670000E0B5
:0202680000464E
:02026900005241
:02026A00002A68
:02026B00000091
:02026C00000888
:02026D00004C43
:02026E0000305E
:02026F00017814
:0202700000008C
:0202710000404B
:02027200013059
:02027300012464
:02027400005830
:0202750000285F
:02027600007A0C
:02027700014E36
:02027800003450
:02027900001271
:02027A00002C56
:02027B0000562B
:02027C00005828
:02027D0000C8B7
:02027E0001DAA3
:02027F0000E499
:02028000001A62
:02028100000873
:0202820000502A
:0202830000F089
:02028400006414
:02028500010076
:0202860000383E
:0202870001066E
:02028800011063
:02028900004C27
:02028A00010E63
:02028B00000071
:02028C000098D8
:02028D0001105E
:02028E00006C02
:02028F0000C2AB
:0202900000323A
:0202910000B8B3
:02029200002248
:02029300014820
:020294000098D0
:02029500001255
:02029600010065
:0202970000A0C5
:02029800000064
:0202990000184B
:02029A0000ACB6
:02029B0000144D
:02029C0001203F
:02029D00001847
:02029E0001005D
:02029F0000C499
:0202A000010C4F
:0202A100001447
:0202A200001E3C
:0202A300001841
:0202A400010A4D
:0202A5000070E7
:0202A600005402
:0202A700011C38
:0202A800004C08
:0202A900011042
:0202AA00000250
:0202AB00012030
:0202AC00000848
:0202AD0000024D
:0202AE00001C32
:0202AF00012824
:0202B000004408
:0202B100002229
:0202B200006CDE
:0202B300010246
:0202B40000D078
:0202B500014600
:0202B600002422
:0202B7000160E4
:0202B800000044
:0202B90001063C
:0202BA0000E45E
:0202BB00015AE6
:0202BC0000023E
:0202BD0001DC62
:0202BE0000241A
:0202BF00010834
:0202C000001428
:0202C10001003A
:0202C2000080BA
:0202C30000C871
:0202C400001424
:0202C50001B680
:0202C60000AA8C
:0202C70000062F
:0202C800001420
:0202C900013AF8
:0202CA00000032
:0202CB000180B0
:0202CC00001C14
:0202CD00001A15
:0202CE000084AA
:0202CF0001002C
:0202D000010823
:0202D10000B873
:0202D2000156D3
:0202D3000184A4
:0202D400000C1C
:0202D50000B077
:0202D600010421
:0202D7000180A4
:0202D80001A67D
:0202D900011210
:0202DA00014ED3
:0202DB00012CF4
:0202DC0000140C
:0202DD000120FE
:0202DE00014AD3
:0202DF00002EEF
:0202E000010615
:0202E100007AA1
:0202E2000166B3
:0202E3000020F9
:0202E400010017
:0202E5000148CE
:0202E60000E630
:0202E70001B460
:0202E800010A09
:0202E90000967D
:0202EA0000040E
:0202EB00008889
:0202EC0000020E
:0202ED000054BB
:0202EE000028E6
:0202EF0000C24B
:0202F0000040CC
:0202F100003ECD
:0202F20000A06A
:0202F3000140C8
:0202F4000024E4
:0202F5000040C7
:0202F600000EF8
:0202F7000122E2
:0202F8000046BE
:0202F9000008FB
:0202FA000008FA
:0202FB00014CB4
:0202FC000042BE
:0202FD00003CC3
:0202FE000150AD
:0202FF00006499
:020300000022D9
:020301000004F6
:02030200004AAF
:02030300006494
:020304000000F7
:02030500007A7C
:02030600006095
:02030700010CE7
:020308000004EF
:02030900001ED4
:02030A00006889
:02030B000126C9
:02030C00006A85
:02030D00018865
:02030E000048A5
:02030F0001B635
:02031000008665
:02031100016683
:02031200001CCD
:020313000012D6
:02031400015492
:02031500009452
:02031600003CA9
:020317000140A3
:02031800011AC8
:020319000010D2
:02031A000140A0
:02031B0000924E
:02031C00000ED1
:02031D000120BD
:02031E00000CD1
:02031F000100DB
:0203200000A635
:020321000134A5
:02032200006871
:02032300015C7B
:0203240001E0F6
:020325000014C2
:0203260000CE07
:02032700017063
:0203280001D200
:02032900014889
:02032A00008C45
:02032B0000626E
:02032C0001903E
:02032D0000A02E
:02032E000010BD
:02032F00008448
:0203300000507B
:020331000110B9
:02033200018840
:02033300018245
:020334000114B2
:020335000018AE
:0203360001289C
:02033700005470
:0203380001BE04
:02033900004280
:02033A0000E0E1
:02033B0000D4EC
:02033C0001407E
:02033D00010EAF
:02033E00003489
:02033F0001506B
:0203400000308B
:02034100005C5E
:02034200004673
:02034300015661
:02034400018036
:02034500001A9C
:020346000112A2
:02034700004074
:020348000110A2
:02034900010EA3
:02034A00012C84
:02034B000004AC
:02034C00006847
:02034D0000A608
:02034E00002885
:02034F00014467
:02035000009615
:02035100002A80
:02035200008C1D
:02035300008424
:020354000002A5
:020355000000A6
:0203560000089D
:0203570000FCA8
:02035800004063
:0203590000247E
:02035A0000960B
:02035B00000898
:02035C00000897
:02035D0000A4FA
:02035E00015844
:02035F00012477
:02036000006239
:02036100009604
:02036200011088
:02036300017027
:02036400005E39
:0203650000A8EE
:02036600013064
:02036700014053
:0203680000662D
:020369000198F9
:02036A0001B0E0
:02036B0000266A
:02036C00000689
:02036D000090FE
:02036E0001206C
:02036F00000488
:0203700000107B
:02037100010485
:02037200012860
:02037300012067
:02037400008601
:02037500000A7C
:02037600014044
:0203770000A8DC
:0203780001067C
:02037900014C35
:02037A00002859
:02037B0000C2BE
:02037C00000C73
:02037D0000205E
:02037E00003845
:02037F0000403C
:0203800000007B
:02038100013049
:0203820001C4B4
:02038300002E4A
:02038400008AED
:0203850000D6A0
:0203860000A2D3
:02038700000470
:0203880001284A
:0203890000086A
:02038A000086EB
:02038B0000066A
:02038C0000CEA1
:02038D0000125C
:02038E00009ECF
:02038F0000402C
:020390000094D7
:020391000088E2
:0203920000EC7D
:02039300001652
:020394000090D7
:02039500006006
:02039600000E57
:020397000088DC
:020398000174EE
:0203990000085A
:02039A0000E47D
:02039B0001203F
:02039C0000DC83
:02039D0000342A
:02039E000098C5
:02039F00000458
:0203A00000A0BB
:0203A100010E4B
:0203A20000BE9B
:0203A300005800
:0203A40000A0B7
:0203A500004412
:0203A60000A8AD
:0203A7000078DC
:0203A8000080D3
:0203A900000C46
:0203AA0000A0B1
:0203AB0000440C
:0203AC00019AB4
:0203AD00000A44
:0203AE0000A4A9
:0203AF0000E06C
:0203B000010842
:0203B100010049
:0203B20000A8A1
:0203B3000168DF
:0203B40000C681
:0203B500000E38
:0203B60001380C
:0203B7000170D3
:0203B800004CF7
:0203B90000043E
:0203BA00010040
:0203BB000164DB
:0203BC00000837
:0203BD000188B5
:0203BE00011626
:0203BF0000DA62
:0203C000001A21
:0203C100010831
:0203C200010434
:0203C300001820
:0203C400003CFB
:0203C500010C29
:0203C6000188AC
:0203C7000044F0
:0203C800000033
:0203C900010829
:0203CA000132FE
:0203CB0000022E
:0203CC00005CD3
:0203CD0001220B
:0203CE0000D459
:0203CF00004AE2
:0203D0000080AB
:0203D100011613
:0203D2000068C1
:0203D30000DE4A
:0203D4000080A7
:0203D5000054D2
:0203D6000044E1
:0203D70000F232
:0203D80001041E
:0203D900000022
:0203DA00003EE3
:0203DB000080A0
:0203DC0001809E
:0203DD00018499
:0203DE000150CC
:0203DF0001001B
:0203E00000A07B
:0203E100001208
:0203E2000130E8
:0203E3000142D5
:0203E400008097
:0203E5000020F6
:0203E600011AFA
:0203E700001202
:0203E8000040D3
:0203E90001C64B
:0203EA00008091
:0203EB0001020D
:0203EC0000C04F
:0203ED000054BA
:0203EE0001000C
:0203EF000028E4
:0203F0000042C9
:0203F100019A6F
:0203F20000B257
:0203F300000EFA
:0203F400011CEA
:0203F500010203
:0203F600015EA6
:0203F700000004
:0203F800010200
:0203F900018879
:0203FA000024DD
:0203FB00000EF2
:0203FC000002FD
:0203FD0001A459
:0203FE000008F5
:0203FF00000CF0
:00000001FF
