:020000040000FA
:2000000000000800000080084DF80C0042AE004A422E0048422E00496136610005D861001E
:20002000044E49FA09D06164207C0000C00020100C80524F4D3266044EA800084E714E716F
:2000400042876128614C61000080610000BE60F041F90001004010BC0003117C0003000176
:2000600010BC0015117C001500014E7548E7000849FA099C61064CDF10004E752F00101C5A
:2000800067066100050C60F6201F4E7561DE61EC60DA43EE000047D145E90040610004C087
:2000A0000C000001671E0C000008660AB7C967EC47EBFFFF60E616C00C00000D660260AC7E
:2000C000B7CA66D861A660CA41EE000043D010180C00002067F841E8FFFF101812C00C000E
:2000E0000020660A0C18002067FA41E8FFFF0C00000D66E641EE00000C10000D67060C1856
:20010000002066F42D4800404E754AAE004A670C266E004A6120640426534ED347FA0A4646
:200120006114650849FA09CF6000FF52265349FA0A34D7CC4ED342801013673449F3000691
:20014000122B00014BEE0000142B0002B41D6704264C60E25301670E47EB0003141BB41DF9
:2001600066EE530166F647ECFFFC003C00014E75023C00FE4E75610003E6040000306B0E57
:200180000C0000096F0C5F000C00000F6F04000700014E752F0161DEE900120061D8D001A3
:2001A000221F4E7561EEE14060EA61F8484060F42F014281206E004010180C0000206720B0
:2001C0000C00000D671AE981040000306B1E0C0000096F085F000C00000F6E10D20060D8D0
:2001E0002D4800402D4100442001600400070002221F4E753F000200000F060000300C0074
:20020000003963025E0061000388301F4E75E81861E2E91860DEE05861F4E15860F04840C4
:2002200061F4484060F061884A0766084A80670420404ED049FA08A16000FE426100FF72D8
:200240004A07663426406100FE24612E61406100030E0C00000D67200C00002D660647EBB1
:20026000FFFC60E20C00002066DC6100FF384A0766063740FFFE60CE4E752F00200B619EC0
:20028000610C3013619047EB0002201F4E751F00103C0020610002FA101F4E752F2E0052FE
:2002A0002F2E004E2D7C00008C2200522D7C00008C10004E522E00486100FDB26100015AC3
:2002C00061000156286E0040101C610002C40C00000D66F46100FD96610002840C00005390
:2002E00066F66100027A0C00003967060C000038662A2D5F004E2D5F0052422E00480807C0
:200300000000670849FA07D16100FD7208070003670849FA07F36100FD644E750C00003103
:20032000671E0C00003266B04203613C5900140042806134E1806130E180612C2440601288
:2003400042036124570014004280611CE18061182440611414C0530266F8610C52036700C6
:20036000FF7800070008608A6100FE2AD6004E75610000964A07670849FA075D6000FCFE33
:20038000B08B6A0849FA07D16000FCF22F2E00522D7C00008C2200526100FCD2617A286E4F
:2003A0000040101C610001EA0C00000D66F46100FCBC6164528A240A948B0C82000000116C
:2003C0006502741049FA064C6100FCB2420110025600612E200BE1586128E0586124101B7F
:2003E0006120530266F84601100161166100FC7EB7CA66C249FA06226100FC822D5F00524E
:200400004E75D2006000FE0842076100FDA426406100FD9E24404E7548E78008203C0000FA
:200420004000538066FC4CDF10014E7513FC005500010040522E0048610001240C00001B2E
:2004400066F66100011A0C00004566EC2F2E00522D7C00008C2200526100FC122D5F00527C
:20046000422E004813FC0015000100404E7548E7F0F041EE00D043FA0774303C0005323CF7
:20048000000F10D951C9FFFC3619308341F0300247E80004208B41D351C8FFE447EBFFFCCF
:2004A00042932D7C00008BEC004E2D7C00008BFE00524CDF0F0F4E7548E700C043E8000847
:2004C00022514E914CDF03004E7548E7404043E8000C22514228001312110801000067F878
:2004E00011410012020100F46706117C00010013102900024CDF02024E7548E7604043E86C
:20050000000C2251422800131211080100006716142900020202005F0C020057660814119C
:200520000802000067F80801000167DC11410012134000024CDF02064E7543E8000C2251AC
:200540000811000067FA102900024E7543E8000C22510811000167FA134000024E752F08AF
:20056000206E004E61540807000366206100FF4A0200007F4A2E0049660A0800000667047D
:20058000020000DF4A2E004866026104205F4E752F08206E005261226100FF1E205F4E7551
:2005A00043E8000C24511022228A4E7543E8000C2469000414C0228A4E7548E7F87043EE1B
:2005C00000D045D147D0303C0007181AB81B660851C8FFF841D160163229001043F11012DF
:2005E0002251B3FC0000000066D8000700084CDF0E1F4E7541F80008303C00FD20FC0000AB
:2006000089E451C8FFF891C8217C000087B40008217C000087C2000C217C0000879E001060
:20062000217C000088980024217C000086520080217C000087D000B8217C0000804000BC1F
:20064000303C000741EE00A04298425851C8FFFA4E750C01000066066100FF044E730C0164
:20066000000166066100FF2A4E730C01000266066100F9FA4E730C01000366066100FB3228
:200680004E730C01000466066100F9F24E730C01000566066100FAE04E730C010006660616
:2006A0006100FAF24E730C01000766066100FAF64E730C01000866066100FAF04E730C0100
:2006C000000966066100FB484E730C01000A66066100FB444E730C01000B66066100FB403C
:2006E0004E730C01000C66066100FBA44E730C01000D66066100F99C4E730C01000E66062F
:200700006100F9C64E730C01000F66066100F9FC4E730C01001066066100015A4E734E7392
:200720004BEE005649FA03136100F9623C3C0007420510056100FABE6100FB5452052015E5
:200740006100FADC49FA03116100F932202D00206100FACC6100F9164BED000451CEFFD44D
:200760004BED00206100F90649FA02C66100F90E201D6100FAAA6100F8F449FA02A2610077
:20078000F8FC301D6100FA906100F8E249FA02996100F8EA201D6100FA866000F8D02F0C50
:2007A00049FA02DF6100F8E6285F61766100FF726000F88E2F0C49FA02A96100F8D0285FE7
:2007C000602C2F0C49FA02A96100F8C2285F601E48E7FFFE610001804CDF7FFF614449FAA5
:2007E00002B76100F8A86100FF386000F85448E78080206F0012302F000EB060670EB06029
:20080000670AB0606706B060670255882F4800124CDF01014FEF000861086100FF0460006B
:20082000F82048E7FFFF303C000E41EE005620DF51C8FFFC4E6A20CA201F04800000000AF2
:2008400020C0225F30DF201F558020C04ED16100F9604A07670849FA027F6000F8204A8095
:20086000670A2D40009C3D7C2700009A60066100007A60DA47EE005647EB004A4FEF0004C0
:20088000303C00243F2351C8FFFC4CDF00FF4CDF7F004FEF00084E73287A020B6100F7EE82
:2008A0006100FF4C6100FE7A6000F7966100F9024A07670849FA02216000F7C247EE00A056
:2008C0002A402C003A3C0007201B660C4A866710274DFFFC369542866100F9446100F78E8B
:2008E00047EB000251CDFFE24E7541EE00A045EE009C2452303C00072218670AB28A670627
:20090000224132BC4E4E41E8000251C8FFEC4E756100F89E4A07670849FA01BD6000F75E8B
:200920004A806720224041EE00A0303C0007221841E80002B289670651C8FFF44E7542A8FC
:20094000FFFA4E7541EE00A0303C00074298425851C8FFFA4E7541EE00A0303C00072218D4
:2009600022414A816702329041E8000251C8FFF04E75428141EE004020501218E1591218F8
:2009800041E800012D480040428241FA012243D0B258671252820C820000001366F249FAB0
:2009A00001376000F6D843EE0056E5820C82000000486602558245F1200020126100F8608D
:2009C0006100F6AA6100F7EA4A07670849FA01096000F6AA0C8200000044670424804E7523
:2009E00034804E7549FA01576100F6926100FD326000F64E54534255472032205665727331
:200A0000696F6E2032332E30372E383600000D0A3F000D0A533100005339202000002053AA
:200A20005220203D20200020504320203D20200020535320203D20200020204461746120DA
:200A4000726567202020202020204164647265737320726567000020202020202020200054
:200A600000427573206572726F72202020000041646472657373206572726F722020200032
:200A800000496C6C6567616C20696E737472756374696F6E200000427265616B706F696EFF
:200AA000742020000054726163652020200044304431443244334434443544364437413006
:200AC00041314132413341344135413641375353535250432020004E6F6E2D76616C69645D
:200AE0002068657861646563696D616C20696E707574202000496E76616C696420636F6DAB
:200B00006D616E642020004C6F6164696E67206572726F72005461626C652066756C6C2012
:200B2000200000427265616B706F696E74206E6F74206163746976652020200000556E69ED
:200B40006E697469616C697A656420657863657074696F6E2000002052616E676520657255
:200B6000726F720004044A554D50FFFFF6C208034D454D4F52592020FFFFF6D804024C4F97
:200B80004144FFFFF738040244554D50FFFFF80C04035452414EFFFFF8C804024E4F425234
:200BA000FFFFFDAC040244495350FFFFFBBC0402474F2020FFFFFCEA040242524754FFFFB0
:200BC000FD480402504C414EFFFFFD8604044B494C4CFFFFFDF2040247422020FFFFFD0A29
:200BE000040352454720FFFFFE0E0000434F4E5F494E2020000084CA000100400002434FAD
:200C00004E5F4F555420000084FA0001004000024155585F494E20200000853A0001004129
:200C200000024155585F4F5554200000854C000100410002425546465F494E20000085A0DA
:200C4000000002D00002425546465F4F5554000085AC000002D00002000000000000000041
:200C6000000000000000000000000000000000000000000000000000000000000000000074
:200C8000000000000000000000000000000000000000000000000000000000000000000054
:200CA000000000000000000000000000000000000000000000000000000000000000000034
:200CC000000000000000000000000000000000000000000000000000000000000000000014
:00000001FF
