:020000040000FA
:200000008E3F44BF3F0A7F3F0DCEF125FF3F17FF3F088603B7FC180101018615B73F0CB6D3
:200020003F0CB7FC188E3F448E3F627F3F137F3F167F3F6DCEF76B8D618D5916BDF0EFCE16
:20004000F7C0E100270B0808088CF7FC26F47EF441EE016E00FE3F026E00FE3F086E00FEB7
:200060003F176E00863F8D2920B58D0CB73F0E8D07B73F0FFE3F0E398D5348484848168D0F
:200080004C1B3944444444840F8B30813923028B077EF20A7EF1F38DF808A600810426F740
:2000A000398DC7CEF76B8DF28D728D41FF3F0E8DE3812027EE815E26070909FF3F0E20E358
:2000C0008D0D8DB609A700A10027D820978DC580302B9581092F0A81112B8D81162E89809F
:2000E0000739A6008D9DA60008209C8DF58DF38620209EBDF261FF3F68A600B73F6D27CB6F
:20010000863FA700BDF261FF3F65A600B73F1627BA863FA700BDF2C4BE3F0A3BCE3F0E8D64
:20012000CAFE3F0E39BF3F0A306D0626026A056A068E3F627D3F132718FE3F68B63F63A7DE
:20014000007D3F4F2708FE3F6AB63F6CA7007EF2E4FE3F0A8606B73F6EE6015858CEF7824D
:20016000862D582402A600BDF20A087A3F6E26F0CEF7718D5AFE3F0A0808BDF0EDFF3F104E
:20018000CEF7758D4AFE3F10BDF0EDFF3F10CEF7788D3CFE3F108D52FF3F107D3F13260A9A
:2001A000CEF77E8D2AFE3F108D40CEF77B8D20CE3F0A7D3F1326228D31B63F16260FFE3FD5
:2001C00065A700B63F6D2705FE3F68A700201E7EF09A5F50F73F0D2014E600A6018B07C9E5
:2001E00000F73F10B73F11CE3F107EF0EB2055FF3F14398DFAB6FC184724FAB6FC19847FB8
:20020000817F27F17D3F0D2F013936B6FC18474724F932B7FC1939CEF7B08D328E3F446EFF
:20022000008D2308098DCC810827F9A700810427600820F18D1E8D2EFE3F040908A700BC14
:200240003F0626F8204BCEF7962003CEF7A3BDF09A7EF06A8DF0FF3F048DF0FF3F067EF2DB
:20026000C4FEF78C20E8CEF7B9BDF09A7EF0788DE3CEF7B08DD8FE3F040908A600FF3F0402
:20028000FE3F0EA70008FF3F0EFE3F04BC3F0626E97EF01F8DBE8DCE16FE3F040908A60086
:2002A000112608FF3F0E8D1CBDF11CBC3F0626ED20DF8620BDF20A5A26F839B73F67CE3FB3
:2002C000677EF0E2CEF7887EF09ABDF246201DBDF2468DF0FE3F0AF63F0EE706B63F0FA74C
:2002E000077C3F13BDF151FE3F0AEE06FF3F688DD3CE3F68BDF0EBCE3F4F86056F00084A34
:2003000026FAFE3F68E600BDF0EDFF3F68A600B73F65A601B73F66F73F6417BDF518B63F7E
:2003200010812A26037EF3E9B63F64818D26057C3F4F202D84F08160271881A0271481E045
:2003400027108180270481C026177C3F50CEF759200C7C3F51B63F65BDF2BBCEF75CBDF0C9
:200360009AFE3F68B63F64818C271D818E271981CE271584F0812026057C3F4F202581604A
:20038000254384308130261B7C3F537D3F5026058624BDF20AA60008FF3F68BDF2BBFE3FAC
:2003A0006820037C3F52A60008FF3F687D3F5126147D3F53260C7D3F502607168624BDF221
:2003C0000A17BDF2BB7D3F4F271FC603BDF2B24FF63F652C0286FFFB3F69B93F68B73F6A18
:2003E000F73F6BCE3F6ABDF0EBC60D86017D3F522719C6017D3F4F260EC6087D3F50260798
:200400007D3F502602C609860220107D3F53270B8603C6067D3F502702C60536BDF2B233C1
:20042000CE3F64A60081202F0481602F02862E08BDF20A5A26EDBDF1F316BDF0EFC1202782
:2004400034FE3F0A08C143271C08C142271708C141271208C1582707CE3F0AC1532613BDD6
:20046000F078A70008BDF078A700BDF2C4BDF15120C47EF01F7D3F1326037EF2EFC63FB6A4
:200480003F64818D2609FE3F6AFF3F687F3F4F7D3F4F270CFE3F6AA600B73F6CE7002048E6
:2004A000816E271481AD2710817E270481BD261CFE3F65FF3F682030FE3F0AA605BB3F651A
:2004C000B73F69A6048900B73F68201CFE3F0A81392604EE08200681382605EE0DFF3F6824
:2004E000813F2715813E2711FE3F68A600B73F63E700E10026067EF1187EF064B63F68813A
:20050000E025F6FE3F0AB63F64817E27C681BD26E8EE06080808209B81402426BDF5B0B61E
:200520003F64813227118136270D8133270E8137270ACEF75F2008CEF7632003CEF7677E2F
:20054000F09A814E2704815E26034F20CF81802419844FBDF5B0B63F10812A27D5B63F6459
:20056000816024CE841027CF20D2843F810F27DA810727D6840F810327D0810C2C0E8B50A3
:20058000BDF5B0B63F64844027AD20B0B63F64818D26048653208581C0240A819D27AB8446
:2005A0000F8B502008840F8B5281602D9D7EF51C5FB73F1048BB3F10C900CEF633FF3F14B6
:2005C000BB3F15F93F14F73F14B73F15FE3F14A600B73F108D06A6018D02A6027EF20ABDC6
:2005E000F2468608B73F6EBDF2C4BDF11CC610BDF0ED5AC5032605BDF0EFC10026F1BDF2B4
:20060000C4C605BDF2B2FE3F0EC610A60081202504815F2502862E8DC3085A26EEFF3F0E8C
:200620007A3F6E26C2BDF1F3812027B6815627AF7EF01F2A2A2A4E4F504E4F502A2A2A2A52
:200640002A2A2A2A2A544150545041494E58444558434C56534556434C43534543434C49D6
:200660005345495342414342412A2A2A2A2A2A2A2A2A2A2A2A5441425442412A2A2A444154
:20068000412A2A2A4142412A2A2A2A2A2A2A2A2A2A2A2A4252412A2A2A424849424C534296
:2006A0004343424353424E4542455142564342565342504C424D49424745424C5442475426
:2006C000424C45545358494E5350554C50554C4445535458535053485053482A2A2A5254A7
:2006E000532A2A2A5254492A2A2A2A2A2A5741495357494E45472A2A2A2A2A2A434F4D4C69
:2007000053522A2A2A524F5241535241534C524F4C4445432A2A2A494E435453544A4D500A
:20072000434C52535542434D50534243425352414E444249544C4441535441454F52414479
:20074000434F52414144444350584A53524C44535354534C44585354582324042C5804201A
:2007600020200420412004204220040D0A3E20040420423D04413D04583D04533D045043C8
:200780003D0448494E5A56430D0A20040D0A424B4144445220040D0A46524F4D20414444F4
:2007A0005220040D0A5448525520414444522004544F2041444452200456414C5545200467
:2007C0004DF26F45F0A147F11852F15154F2CF40F22148F1D356F5DF49F2344AF21746F219
:2007E0009451802044F2CA4BF2E131F10432F0F326F82B2AF8004FF1D24EF1D454686973F3
:20080000205331206C6F61642068617320656E74657265642073797374656D207363726183
:2008200074636820617265610D0A0436FF3F6FBDF8B3815326F98D7B81392736813126EF81
:200840007F3F748D428002B73F738D2D8D397A3F732715A700A100261408BC3F002F0220EE
:20086000EBCEF7FC8D66200A7C3F7427C2863FBDF8BFFE3F6F327EF01F8D0CB73F718D075F
:20088000B73F72FE3F71398D1048484848168D091B16FB3F74F73F7439BDF8B380302BCDCE
:2008A00081092F0A81112B0781162E03800739313120BA37F6FC185724FAB6FC19333937C9
:1808C000F6FC18575724F9B7FC193339A600810427058DEB0820F539EE
:080FF800F055F05FF05AF00023
:04000005FFFF1000E9
:00000001FF
