:200000000000000000000000F0F00000000000000F0F000000000000FFFF000000000000E4
:200020000000F0F000000000F0F0F0F0000000000F0FF0F000000000FFFFF0F00000000044
:2000400000000F0F00000000F0F00F0F000000000F0F0F0F00000000FFFF0F0F000000002C
:200060000000FFFF00000000F0F0FFFF000000000F0FFFFF00000000FFFFFFFF000000008C
:2000800000000000F0F00000F0F00000F0F000000F0F0000F0F00000FFFF0000F0F00000E4
:2000A0000000F0F0F0F00000F0F0F0F0F0F000000F0FF0F0F0F00000FFFFF0F0F0F0000044
:2000C00000000F0FF0F00000F0F00F0FF0F000000F0F0F0FF0F00000FFFF0F0FF0F000002C
:2000E0000000FFFFF0F00000F0F0FFFFF0F000000F0FFFFFF0F00000FFFFFFFFF0F000008C
:20010000000000000F0F0000F0F000000F0F00000F0F00000F0F0000FFFF00000F0F00006B
:200120000000F0F00F0F0000F0F0F0F00F0F00000F0FF0F00F0F0000FFFFF0F00F0F0000CB
:2001400000000F0F0F0F0000F0F00F0F0F0F00000F0F0F0F0F0F0000FFFF0F0F0F0F0000B3
:200160000000FFFF0F0F0000F0F0FFFF0F0F00000F0FFFFF0F0F0000FFFFFFFF0F0F000013
:2001800000000000FFFF0000F0F00000FFFF00000F0F0000FFFF0000FFFF0000FFFF00006B
:2001A0000000F0F0FFFF0000F0F0F0F0FFFF00000F0FF0F0FFFF0000FFFFF0F0FFFF0000CB
:2001C00000000F0FFFFF0000F0F00F0FFFFF00000F0F0F0FFFFF0000FFFF0F0FFFFF0000B3
:2001E0000000FFFFFFFF0000F0F0FFFFFFFF00000F0FFFFFFFFF0000FFFFFFFFFFFF000013
:20020000000000000000F0F0F0F000000000F0F00F0F00000000F0F0FFFF00000000F0F062
:200220000000F0F00000F0F0F0F0F0F00000F0F00F0FF0F00000F0F0FFFFF0F00000F0F0C2
:2002400000000F0F0000F0F0F0F00F0F0000F0F00F0F0F0F0000F0F0FFFF0F0F0000F0F0AA
:200260000000FFFF0000F0F0F0F0FFFF0000F0F00F0FFFFF0000F0F0FFFFFFFF0000F0F00A
:2002800000000000F0F0F0F0F0F00000F0F0F0F00F0F0000F0F0F0F0FFFF0000F0F0F0F062
:2002A0000000F0F0F0F0F0F0F0F0F0F0F0F0F0F00F0FF0F0F0F0F0F0FFFFF0F0F0F0F0F0C2
:2002C00000000F0FF0F0F0F0F0F00F0FF0F0F0F00F0F0F0FF0F0F0F0FFFF0F0FF0F0F0F0AA
:2002E0000000FFFFF0F0F0F0F0F0FFFFF0F0F0F00F0FFFFFF0F0F0F0FFFFFFFFF0F0F0F00A
:20030000000000000F0FF0F0F0F000000F0FF0F00F0F00000F0FF0F0FFFF00000F0FF0F0E9
:200320000000F0F00F0FF0F0F0F0F0F00F0FF0F00F0FF0F00F0FF0F0FFFFF0F00F0FF0F049
:2003400000000F0F0F0FF0F0F0F00F0F0F0FF0F00F0F0F0F0F0FF0F0FFFF0F0F0F0FF0F031
:200360000000FFFF0F0FF0F0F0F0FFFF0F0FF0F00F0FFFFF0F0FF0F0FFFFFFFF0F0FF0F091
:2003800000000000FFFFF0F0F0F00000FFFFF0F00F0F0000FFFFF0F0FFFF0000FFFFF0F0E9
:2003A0000000F0F0FFFFF0F0F0F0F0F0FFFFF0F00F0FF0F0FFFFF0F0FFFFF0F0FFFFF0F049
:2003C00000000F0FFFFFF0F0F0F00F0FFFFFF0F00F0F0F0FFFFFF0F0FFFF0F0FFFFFF0F031
:2003E0000000FFFFFFFFF0F0F0F0FFFFFFFFF0F00F0FFFFFFFFFF0F0FFFFFFFFFFFFF0F091
:200400000000000000000F0FF0F0000000000F0F0F0F000000000F0FFFFF000000000F0F68
:200420000000F0F000000F0FF0F0F0F000000F0F0F0FF0F000000F0FFFFFF0F000000F0FC8
:2004400000000F0F00000F0FF0F00F0F00000F0F0F0F0F0F00000F0FFFFF0F0F00000F0FB0
:200460000000FFFF00000F0FF0F0FFFF00000F0F0F0FFFFF00000F0FFFFFFFFF00000F0F10
:2004800000000000F0F00F0FF0F00000F0F00F0F0F0F0000F0F00F0FFFFF0000F0F00F0F68
:2004A0000000F0F0F0F00F0FF0F0F0F0F0F00F0F0F0FF0F0F0F00F0FFFFFF0F0F0F00F0FC8
:2004C00000000F0FF0F00F0FF0F00F0FF0F00F0F0F0F0F0FF0F00F0FFFFF0F0FF0F00F0FB0
:2004E0000000FFFFF0F00F0FF0F0FFFFF0F00F0F0F0FFFFFF0F00F0FFFFFFFFFF0F00F0F10
:20050000000000000F0F0F0FF0F000000F0F0F0F0F0F00000F0F0F0FFFFF00000F0F0F0FEF
:200520000000F0F00F0F0F0FF0F0F0F00F0F0F0F0F0FF0F00F0F0F0FFFFFF0F00F0F0F0F4F
:2005400000000F0F0F0F0F0FF0F00F0F0F0F0F0F0F0F0F0F0F0F0F0FFFFF0F0F0F0F0F0F37
:200560000000FFFF0F0F0F0FF0F0FFFF0F0F0F0F0F0FFFFF0F0F0F0FFFFFFFFF0F0F0F0F97
:2005800000000000FFFF0F0FF0F00000FFFF0F0F0F0F0000FFFF0F0FFFFF0000FFFF0F0FEF
:2005A0000000F0F0FFFF0F0FF0F0F0F0FFFF0F0F0F0FF0F0FFFF0F0FFFFFF0F0FFFF0F0F4F
:2005C00000000F0FFFFF0F0FF0F00F0FFFFF0F0F0F0F0F0FFFFF0F0FFFFF0F0FFFFF0F0F37
:2005E0000000FFFFFFFF0F0FF0F0FFFFFFFF0F0F0F0FFFFFFFFF0F0FFFFFFFFFFFFF0F0F97
:20060000000000000000FFFFF0F000000000FFFF0F0F00000000FFFFFFFF00000000FFFFE6
:200620000000F0F00000FFFFF0F0F0F00000FFFF0F0FF0F00000FFFFFFFFF0F00000FFFF46
:2006400000000F0F0000FFFFF0F00F0F0000FFFF0F0F0F0F0000FFFFFFFF0F0F0000FFFF2E
:200660000000FFFF0000FFFFF0F0FFFF0000FFFF0F0FFFFF0000FFFFFFFFFFFF0000FFFF8E
:2006800000000000F0F0FFFFF0F00000F0F0FFFF0F0F0000F0F0FFFFFFFF0000F0F0FFFFE6
:2006A0000000F0F0F0F0FFFFF0F0F0F0F0F0FFFF0F0FF0F0F0F0FFFFFFFFF0F0F0F0FFFF46
:2006C00000000F0FF0F0FFFFF0F00F0FF0F0FFFF0F0F0F0FF0F0FFFFFFFF0F0FF0F0FFFF2E
:2006E0000000FFFFF0F0FFFFF0F0FFFFF0F0FFFF0F0FFFFFF0F0FFFFFFFFFFFFF0F0FFFF8E
:20070000000000000F0FFFFFF0F000000F0FFFFF0F0F00000F0FFFFFFFFF00000F0FFFFF6D
:200720000000F0F00F0FFFFFF0F0F0F00F0FFFFF0F0FF0F00F0FFFFFFFFFF0F00F0FFFFFCD
:2007400000000F0F0F0FFFFFF0F00F0F0F0FFFFF0F0F0F0F0F0FFFFFFFFF0F0F0F0FFFFFB5
:200760000000FFFF0F0FFFFFF0F0FFFF0F0FFFFF0F0FFFFF0F0FFFFFFFFFFFFF0F0FFFFF15
:2007800000000000FFFFFFFFF0F00000FFFFFFFF0F0F0000FFFFFFFFFFFF0000FFFFFFFF6D
:2007A0000000F0F0FFFFFFFFF0F0F0F0FFFFFFFF0F0FF0F0FFFFFFFFFFFFF0F0FFFFFFFFCD
:2007C00000000F0FFFFFFFFFF0F00F0FFFFFFFFF0F0F0F0FFFFFFFFFFFFF0F0FFFFFFFFFB5
:2007E0000000FFFFFFFFFFFFF0F0FFFFFFFFFFFF0F0FFFFFFFFFFFFFFFFFFFFFFFFFFFFF15
:00000001FF
