:10C000008E7F44BF7F0A7F7F0DCEC125FF7F17FF44
:10C010007F088603B780180101018615B77F0CB62B
:10C020007F0CB780188E7F448E7F627F7F137F7F67
:10C03000167F7F6DCEC76B8D618D5916BDC0EFCE5B
:10C04000C7C0E100270B0808088CC7FC26F47EC493
:10C0500041EE016E00FE7F026E00FE7F086E00FE64
:10C060007F176E00863F8D2920B58D0CB77F0E8D12
:10C0700007B77F0FFE7F0E398D5348484848168D0D
:10C080004C1B3944444444840F8B30813923028B48
:10C09000077EC20A7EC1F38DF808A600810426F748
:10C0A000398DC7CEC76B8DF28D728D41FF7F0E8D9E
:10C0B000E3812027EE815E26070909FF7F0E20E33A
:10C0C0008D0D8DB609A700A10027D820978DC580BA
:10C0D000302B9581092F0A81112B8D81162E898095
:10C0E0000739A6008D9DA60008209C8DF58DF3864E
:10C0F00020209EBDC261FF7F68A600B77F6D27CB61
:10C10000863FA700BDC261FF7F65A600B77F1627E7
:10C11000BA863FA700BDC2C4BE7F0A3BCE7F0E8D4C
:10C12000CAFE7F0E39BF7F0A306D0626026A056A95
:10C13000068E7F627D7F132718FE7F68B67F63A718
:10C14000007D7F4F2708FE7F6AB67F6CA7007EC206
:10C15000E4FE7F0A8606B77F6EE6015858CEC78296
:10C16000862D582402A600BDC20A087A7F6E26F0EA
:10C17000CEC7718D5AFE7F0A0808BDC0EDFF7F1043
:10C18000CEC7758D4AFE7F10BDC0EDFF7F10CEC7B4
:10C19000788D3CFE7F108D52FF7F107D7F13260A25
:10C1A000CEC77E8D2AFE7F108D40CEC77B8D20CEE0
:10C1B0007F0A7D7F1326228D31B67F16260FFE7FE4
:10C1C00065A700B67F6D2705FE7F68A700201E7E4D
:10C1D000C09A5F50F77F0D2014E600A6018B07C9B7
:10C1E00000F77F10B77F11CE7F107EC0EB2055FF88
:10C1F0007F14398DFAB680184724FAB68019847FE7
:10C20000817F27F17D7F0D2F013936B68018474792
:10C2100024F932B7801939CEC7B08D328E7F446E83
:10C22000008D2308098DCC810827F9A700810427F8
:10C23000600820F18D1E8D2EFE7F040908A700BC2A
:10C240007F0626F8204BCEC7962003CEC7A3BDC0DD
:10C250009A7EC06A8DF0FF7F048DF0FF7F067EC25C
:10C26000C4FEC78C20E8CEC7B9BDC09A7EC0788D09
:10C27000E3CEC7B08DD8FE7F040908A600FF7F0477
:10C28000FE7F0EA70008FF7F0EFE7F04BC7F062600
:10C29000E97EC01F8DBE8DCE16FE7F040908A60064
:10C2A000112608FF7F0E8D1CBDC11CBC7F0626ED2C
:10C2B00020DF8620BDC20A5A26F839B77F67CE7FB5
:10C2C000677EC0E2CEC7887EC09ABDC246201DBD33
:10C2D000C2468DF0FE7F0AF67F0EE706B67F0FA7F7
:10C2E000077C7F13BDC151FE7F0AEE06FF7F688D7C
:10C2F000D3CE7F68BDC0EBCE7F4F86056F00084A66
:10C3000026FAFE7F68E600BDC0EDFF7F68A600B795
:10C310007F65A601B77F66F77F6417BDC518B67F36
:10C3200010812A26037EC3E9B67F64818D26057CB1
:10C330007F4F202D84F08160271881A0271481E091
:10C3400027108180270481C026177C7F50CEC759D3
:10C35000200C7C7F51B67F65BDC2BBCEC75CBDC023
:10C360009AFE7F68B67F64818C271D818E27198194
:10C37000CE271584F0812026057C7F4F2025816003
:10C38000254384308130261B7C7F537D7F502605DA
:10C390008624BDC20AA60008FF7F68BDC2BBFE7F1F
:10C3A0006820037C7F52A60008FF7F687D7F5126AE
:10C3B000147D7F53260C7D7F502607168624BDC230
:10C3C0000A17BDC2BB7D7F4F271FC603BDC2B24F38
:10C3D000F67F652C0286FFFB7F69B97F68B77F6AAD
:10C3E000F77F6BCE7F6ABDC0EBC60D86017D7F52A5
:10C3F0002719C6017D7F4F260EC6087D7F50260770
:10C400007D7F502602C609860220107D7F53270BB0
:10C410008603C6067D7F502702C60536BDC2B233ED
:10C42000CE7F64A60081202F0481602F02862E0813
:10C43000BDC20A5A26EDBDC1F316BDC0EFC120270B
:10C4400034FE7F0A08C143271C08C142271708C1D0
:10C4500041271208C1582707CE7F0AC1532613BDB2
:10C46000C078A70008BDC078A700BDC2C4BDC15137
:10C4700020C47EC01F7D7F1326037EC2EFC63FB659
:10C480007F64818D2609FE7F6AFF7F687F7F4F7DF5
:10C490007F4F270CFE7F6AA600B77F6CE70020481D
:10C4A000816E271481AD2710817E270481BD261C53
:10C4B000FE7F65FF7F682030FE7F0AA605BB7F6593
:10C4C000B77F69A6048900B77F68201CFE7F0A81B8
:10C4D000392604EE08200681382605EE0DFF7F6818
:10C4E000813F2715813E2711FE7F68A600B77F6335
:10C4F000E700E10026067EC1187EC064B67F688131
:10C50000E025F6FE7F0AB67F64817E27C681BD26C0
:10C51000E8EE06080808209B81402426BDC5B0B679
:10C520007F64813227118136270D8133270E8137B1
:10C53000270ACEC75F2008CEC7632003CEC7677E19
:10C54000C09A814E2704815E26034F20CF8180242C
:10C5500019844FBDC5B0B67F10812A27D5B67F6438
:10C56000816024CE841027CF20D2843F810F27DA28
:10C57000810727D6840F810327D0810C2C0E8B5086
:10C58000BDC5B0B67F64844027AD20B0B67F64815E
:10C590008D26048653208581C0240A819D27AB8483
:10C5A0000F8B502008840F8B5281602D9D7EC51CFF
:10C5B0005FB77F1048BB7F10C900CEC633FF7F1422
:10C5C000BB7F15F97F14F77F14B77F15FE7F14A684
:10C5D00000B77F108D06A6018D02A6027EC20ABD9D
:10C5E000C2468608B77F6EBDC2C4BDC11CC610BDA1
:10C5F000C0ED5AC5032605BDC0EFC10026F1BDC27E
:10C60000C4C605BDC2B2FE7F0EC610A6008120259D
:10C6100004815F2502862E8DC3085A26EEFF7F0E09
:10C620007A7F6E26C2BDC1F3812027B6815627AF1F
:10C630007EC01F2A2A2A4E4F504E4F502A2A2A2A9D
:10C640002A2A2A2A2A544150545041494E584445D6
:10C6500058434C56534556434C43534543434C492A
:10C660005345495342414342412A2A2A2A2A2A2A27
:10C670002A2A2A2A2A5441425442412A2A2A444137
:10C68000412A2A2A4142412A2A2A2A2A2A2A2A2AAD
:10C690002A2A2A4252412A2A2A424849424C5342D3
:10C6A0004343424353424E4542455142564342560C
:10C6B0005342504C424D49424745424C54424754E4
:10C6C000424C45545358494E5350554C50554C4488
:10C6D00045535458535053485053482A2A2A5254C9
:10C6E000532A2A2A5254492A2A2A2A2A2A574149AD
:10C6F0005357494E45472A2A2A2A2A2A434F4D4C46
:10C7000053522A2A2A524F5241535241534C524FAC
:10C710004C4445432A2A2A494E435453544A4D50C7
:10C72000434C52535542434D50534243425352415E
:10C730004E444249544C4441535441454F52414464
:10C74000434F52414144444350584A53524C44533E
:10C750005354534C44585354582324042C58042005
:10C7600020200420412004204220040D0A15133EFD
:10C770000420423D04413D04583D04533D045043D0
:10C780003D0448494E5A56430D0A15040D0A424BC2
:10C790004144445220040D0A46524F4D2041444426
:10C7A0005220040D0A54485255204144445220045A
:10C7B000544F2041444452200456414C55452004D6
:10C7C0004DC26F45C0A147C11852C15154C2CF409C
:10C7D000C22148C1D356C5DF49C2344AC21746C236
:10C7E0009451802044C2CA4BC2E131C10432C0F32B
:10C7F00026C82B2AF8004FC1D24EC1D454686973A1
:10C80000205331206C6F61642068617320656E7401
:10C81000657265642073797374656D2073637261EA
:10C8200074636820617265610D0A0436FF7F6F8D45
:10C830007E815326FA8D7881392733813126F07F26
:10C840007F748D3F8002B77F738D2A8D367A7F7318
:10C850002712A700A1002611082E0220EECEC7FC49
:10C860008D68200A7C7F7427C6863FBDC8BDFE7FC9
:10C870006F327EC01F8D0CB77F718D07B77F72FE40
:10C880007F71398D1048484848168D091B16FB7F6B
:10C8900074F77F7439BDC8AF80302BCD81092F0A62
:10C8A00081112B0781162E03800739313120BA37C9
:10C8B000F680185724FAB68019338D013937F6807F
:10C8C00018575724F9B780193339A6008104270572
:06C8D0008DEB0820F53994
:08CFF800C055C05FC05AC00023
:00D000012F
