:020000000100FD
:020001000020DD
:0200020001D02B
:020003000118E2
:020004000106F3
:02000500006693
:0200060001E611
:020007000118DE
:0200080000A84E
:020009000140B4
:02000A000000F4
:02000B000112E0
:02000C0000886A
:02000D000140B0
:02000E00001CD4
:02000F00010CE2
:020010000016D8
:0200110000C22B
:020012000034B8
:02001300001CCF
:020014000140A9
:02001500010ADE
:0200160001F0F7
:020017000036B1
:02001800018C59
:020019000024C1
:02001A0001F8EB
:02001B000028BB
:02001C0000C61C
:02001D0001C020
:02001E000124BB
:02001F0000548B
:020020000024BA
:0200210001D606
:02002200007468
:02002300000ECD
:02002400015C7D
:020025000024B5
:0200260001E0F7
:02002700014294
:02002800001CBA
:020029000110C4
:02002A00018053
:02002B00010AC8
:02002C000004CE
:02002D0000844D
:02002E0000329E
:02002F00008A45
:0200300000CE00
:020031000016B7
:0200320000D2FA
:0200330000E2E9
:02003400010ABF
:020035000020A9
:02003600004E7A
:0200370000D0F7
:0200380000E2E4
:020039000100C4
:02003A00004084
:02003B0000D4EF
:02003C00019031
:02003D00010CB4
:02003E000004BC
:02003F0000F4CB
:0200400001605D
:020041000112AA
:0200420000A418
:020043000116A4
:0200440000D0EA
:02004500000AAF
:020046000008B0
:02004700014C6A
:020048000104B1
:0200490001E8CC
:02004A000108AB
:02004B000102B0
:02004C0000C4EE
:02004D0001941C
:02004E00019A15
:02004F000002AD
:0200500000802E
:0200510000129B
:02005200017635
:0200530000208B
:02005400001694
:02005500004069
:02005600003870
:0200570001D4D2
:02005800006C3A
:02005900003471
:02005A00014C57
:02005B0001BEE4
:02005C00012A77
:02005D0001326E
:02005E0000ACF4
:02005F00002877
:02006000001886
:0200610001306C
:02006200008E0E
:02006300018218
:02006400011683
:02006500010890
:02006600018215
:0200670000B0E7
:02006800000A8C
:0200690001CEC6
:02006A00019003
:02006B00009003
:02006C0001E4AD
:02006D0001CEC2
:02006E0001602F
:02006F0001800E
:0200700000B8D6
:0200710000C4C9
:02007200012863
:0200730001E8A2
:02007400002466
:0200750000B8D1
:02007600007612
:0200770000285F
:0200780000B6D0
:02007900012E56
:02007A0000AED6
:02007B0001CEB4
:02007C00000280
:02007D0000324F
:02007E0000E29E
:02007F000186F8
:02008000012E4F
:02008100005429
:0200820001A0DB
:0200830000A4D7
:02008400012455
:02008500003049
:0200860000A0D8
:020087000082F5
:02008800012253
:02008900003A3B
:02008A000086EE
:02008B0001E092
:02008C00000A68
:02008D00006A07
:02008E00002A46
:02008F0001244A
:0200900000204E
:02009100012448
:02009200012645
:02009300001E4D
:0200940000A2C8
:02009500016206
:020096000092D6
:0200970000B6B1
:0200980001C2A3
:02009900010262
:02009A0000A4C0
:02009B00012C36
:02009C0001E879
:02009D00006EF3
:02009E00006000
:02009F00017AE4
:0200A0000080DE
:0200A100012A32
:0200A200018CCF
:0200A300003427
:0200A40001EA6F
:0200A50000D287
:0200A600015007
:0200A700004E09
:0200A8000196BF
:0200A90000A0B5
:0200AA000080D4
:0200AB0001D280
:0200AC0001A0B1
:0200AD000080D1
:0200AE0001A0AF
:0200AF00000E41
:0200B00001E667
:0200B10001B09C
:0200B2000180CB
:0200B3000168E2
:0200B400011435
:0200B500004EFB
:0200B600000840
:0200B700013A0C
:0200B800001E28
:0200B900019CA8
:0200BA00002A1A
:0200BB00000A39
:0200BC00008CB6
:0200BD0001340C
:0200BE0001A897
:0200BF000198A6
:0200C000000A34
:0200C100014CF0
:0200C200000834
:0200C300011426
:0200C400001228
:0200C500002811
:0200C600010235
:0200C70000181F
:0200C8000080B6
:0200C90001082C
:0200CA00013CF7
:0200CB00011022
:0200CC00000A28
:0200CD00000E23
:0200CE00013AF5
:0200CF00012A04
:0200D00000C46A
:0200D10001CC60
:0200D20001002B
:0200D300005CCF
:0200D400012AFF
:0200D5000032F7
:0200D60001E245
:0200D70000C265
:0200D800009096
:0200D9000160C4
:0200DA00011E05
:0200DB0001061C
:0200DC0000869C
:0200DD00009091
:0200DE0001F42B
:0200DF0000928D
:0200E00000CC52
:0200E100011408
:0200E2000128F3
:0200E30000C05B
:0200E4000042D8
:0200E500000613
:0200E60001AA6D
:0200E7000124F2
:0200E8000028EE
:0200E90001B262
:0200EA00004EC6
:0200EB0001A86A
:0200EC0001040D
:0200ED000068A9
:0200EE000054BC
:0200EF0001020C
:0200F0000150BD
:0200F10000E825
:0200F2000110FB
:0200F300004CBF
:0200F400000208
:0200F50000AC5D
:0200F6000124E3
:0200F700008681
:0200F8000018EE
:0200F900012CD8
:0200FA000038CC
:0200FB00010AF8
:0200FC0000FC06
:0200FD000038C9
:0200FE00001AE6
:0200FF000130CE
:02010000001AE3
:020101000048B4
:0201020001D822
:020103000002F8
:02010400016890
:02010500008870
:0201060001886E
:020107000042B4
:02010800014AAA
:0201090001D81B
:02010A00008E65
:02010B00018071
:02010C00005899
:02010D0001C827
:02010E000004EB
:02010F0000826C
:020110000108E4
:020111000008E4
:02011200002AC1
:0201130001F0F9
:02011400004C9D
:02011500018463
:02011600018A5C
:02011700008264
:02011800017470
:020119000036AE
:02011A0000CE15
:02011B0001766B
:02011C000014CD
:02011D000100DF
:02011E00014E90
:02011F0001C01D
:020120000010CD
:02012100000AD2
:02012200002AB1
:02012300018E4B
:020124000008D1
:02012500015C7B
:02012600010EC8
:0201270001A431
:0201280001D004
:020129000032A2
:02012A0000E6ED
:02012B0000567C
:02012C00007061
:02012D0000527E
:02012E000106C8
:02012F00014885
:02013000019438
:0201310000923A
:020132000022A9
:02013300010CBD
:020134000122A6
:0201350001289F
:02013600014284
:02013700014E77
:0201380000269F
:0201390000DAEA
:02013A00018A38
:02013B0000289A
:02013C0001229E
:02013D0000ECD4
:02013E00007C43
:02013F0000F8C6
:02014000011E9E
:02014100012A91
:02014200011C9E
:02014300000CAE
:0201440001C2F6
:020145000008B0
:02014600010AAC
:02014700004E68
:0201480000169F
:02014900001C98
:02014A0000AA09
:02014B00012889
:02014C0000B8F9
:02014D00015C53
:02014E00014E60
:02014F00012A83
:0201500001C8E4
:02015100002A82
:02015200009A11
:02015300007C2E
:02015400001C8D
:0201550001E0C7
:0201560000ACFB
:02015700003274
:0201580000E4C1
:0201590000861E
:02015A00011E84
:02015B0001920F
:02015C0000C2DF
:02015D0000564A
:02015E0000F4AB
:02015F0001E4B9
:0201600001029A
:0201610000900C
:02016200005A41
:0201630000C2D8
:02016400009207
:02016500002078
:02016600017224
:02016700005442
:02016800000293
:0201690001B0E3
:02016A0001345E
:02016B00006032
:02016C00001C75
:02016D0001008F
:02016E00011876
:02016F0000741A
:02017000018606
:02017100010289
:02017200013852
:020173000190F9
:02017400008801
:02017500012067
:02017600008601
:02017700000482
:0201780001A4E0
:02017900000480
:02017A00013A48
:02017B00009CE6
:02017C0000423F
:02017D0001304F
:02017E000080FF
:02017F000190ED
:02018000015428
:0201810000A8D4
:0201820001F288
:02018300001268
:0201840001A8D0
:02018500002C4C
:02018600003047
:02018700011461
:02018800002253
:02018900007EF6
:02018A000180F2
:02018B00001062
:02018C0000C2AF
:02018D00006A06
:02018E0001D29C
:02018F000088E6
:0201900000A4C9
:0201910000EC80
:0201920001D496
:020193000090DA
:0201940001F672
:0201950001C89F
:02019600015412
:020197000084E2
:0201980000A4C1
:0201990001E281
:02019A0000144F
:02019B00005210
:02019C00006EF3
:02019D00010659
:02019E000182DC
:02019F0001F469
:0201A00000322B
:0201A10000302C
:0201A20000CE8D
:0201A300000258
:0201A40000B2A7
:0201A5000092C6
:0201A600011046
:0201A70001262F
:0201A800015CF8
:0201A90001E073
:0201AA0001044E
:0201AB00005002
:0201AC000170E0
:0201AD0001143B
:0201AE00003A15
:0201AF000052FC
:0201B000001835
:0201B10001E863
:0201B200000A41
:0201B300013019
:0201B400012820
:0201B50001F057
:0201B600011234
:0201B7000182C3
:0201B80001B094
:0201B9000190B3
:0201BA00007EC5
:0201BB000172CF
:0201BC000190B0
:0201BD000190AF
:0201BE000042FD
:0201BF00018AB3
:0201C00001A09C
:0201C1000160DB
:0201C2000162D8
:0201C30000C872
:0201C400010434
:0201C50000B088
:0201C60001C076
:0201C700006EC8
:0201C800001421
:0201C90001280B
:0201CA000048EB
:0201CB0000D65C
:0201CC0000AC85
:0201CD0000121E
:0201CE00005CD3
:0201CF000064CA
:0201D000011814
:0201D1000088A4
:0201D20001B07A
:0201D300011C0D
:0201D4000084A5
:0201D50000A088
:0201D600000423
:0201D700013AEB
:0201D80000DA4B
:0201D90001061D
:0201DA000038EB
:0201DB000144DD
:0201DC000156CA
:0201DD000032EE
:0201DE00018A94
:0201DF0001E23B
:0201E00001100C
:0201E1000138E3
:0201E2000032E9
:0201E300000E0C
:0201E400008297
:0201E500008A8E
:0201E60001A472
:0201E70001E035
:0201E8000048CD
:0201E90000B65E
:0201EA0001E62C
:0201EB0001AA67
:0201EC000158B8
:0201ED000058B8
:0201EE0000E22D
:0201EF0001CE3F
:0201F00000A26B
:0201F10001C04B
:0201F2000064A7
:0201F300010405
:0201F4000040C9
:0201F5000122E5
:0201F6000148BE
:0201F700014ABB
:0201F8000018ED
:0201F9000010F4
:0201FA0000D82B
:0201FB0000D42E
:0201FC00010CF4
:0201FD000042BE
:0201FE00009669
:0201FF0001609D
:0202000000827A
:02020100017C7E
:0202020000C436
:02020300004CAD
:02020400006098
:0202050001AE48
:02020600011ED7
:0202070000A84D
:0202080001846F
:0202090000985B
:02020A00007E74
:02020B00013CB4
:02020C00003CB4
:02020D000100EE
:02020E000020CE
:02020F00008667
:0202100000CE1E
:02021100006883
:020212000002E8
:0202130001C226
:020214000140A7
:02021500002EB9
:020216000100E5
:020217000122C2
:020218000100E3
:0202190000548F
:02021A000028BA
:02021B0001BA26
:02021C0000C21E
:02021D0000CE11
:02021E0000845A
:02021F000014C9
:020220000000DC
:02022100007E5D
:02022200008456
:02022300005A7F
:0202240000E2F6
:0202250001B81E
:0202260001587D
:020227000016BF
:0202280000686C
:020229000030A3
:02022A0000D200
:02022B0000B021
:02022C00003E92
:02022D0000448B
:02022E00012E9F
:02022F00015C70
:020230000008C4
:0202310000408B
:02023200009A30
:02023300002A9F
:020234000108BF
:0202350001F4D2
:0202360000C8FE
:0202370000AA1B
:02023800006C58
:0202390001B60C
:02023A00004A78
:02023B00003889
:02023C00008838
:02023D0000E0DF
:02023E00008E30
:02023F00003A83
:02024000003488
:02024100003E7D
:02024200002694
:0202430000B207
:0202440000A216
:02024500004A6D
:020246000110A5
:0202470001DADA
:0202480001D0E3
:02024900006251
:02024A0001525F
:02024B0000842D
:02024C0000941C
:02024D00001897
:02024E00007A34
:02024F00004469
:0202500000307C
:0202510000A00B
:02025200008822
:02025300002E7B
:0202540001AAFD
:0202550000188F
:0202560001267F
:020257000002A3
:02025800010C97
:02025900002C77
:02025A0001B8E9
:02025B00000E93
:02025C0001801F
:02025D00011A84
:02025E00013A63
:02025F00002A73
:02026000012C6F
:02026100001A81
:0202620000C2D8
:02026300010E8A
:02026400005444
:0202650001286E
:02026600004E48
:02026700007E17
:0202680001860D
:02026900004C47
:02026A0001266B
:02026B0000444D
:02026C0000CCC4
:02026D0000ACE3
:02026E0000E8A6
:02026F0000CEBF
:02027000010883
:0202710000206B
:02027200018603
:0202730001BACE
:02027400000A7E
:02027500000681
:020276000198ED
:0202770000C2C3
:02027800002C58
:0202790001463C
:02027A00000280
:02027B0001245C
:02027C0000463A
:02027D00009CE3
:02027E0001007D
:02027F00016616
:0202800000106C
:02028100016614
:02028200002E4C
:02028300004039
:02028400006E0A
:02028500005027
:02028600004432
:0202870000CAAB
:02028800005222
:02028900004C27
:02028A0001046D
:02028B00004829
:02028C0000541C
:02028D00000867
:02028E0000442A
:02028F0000224B
:02029000005C10
:02029100014624
:0202920000EA80
:02029300004821
:0202940001D493
:020295000068FF
:02029600016203
:02029700012242
:02029800000262
:0202990000184B
:02029A000162FF
:02029B0000045D
:02029C0001C29D
:02029D0000E877
:02029E00000658
:02029F00000855
:0202A000002E2E
:0202A1000090CB
:0202A20000104A
:0202A3000170E8
:0202A4000192C5
:0202A50000A8AF
:0202A60001460F
:0202A70000A4B1
:0202A800010251
:0202A900010052
:0202AA0001B0A1
:0202AB0001B49C
:0202AC0001103F
:0202AD000196B8
:0202AE00014409
:0202AF00000647
:0202B00001202B
:0202B100002229
:0202B20000202A
:0202B300010840
:0202B40000C484
:0202B500002621
:0202B6000152F3
:0202B700012420
:0202B80001C47F
:0202B90001340E
:0202BA0001BA87
:0202BB0001DC64
:0202BC00010A35
:0202BD00008EB1
:0202BE0001A09D
:0202BF000192AA
:0202C00001003B
:0202C10000A09B
:0202C2000162D7
:0202C300010236
:0202C4000092A6
:0202C500001C1B
:0202C600010E27
:0202C7000084B1
:0202C80001DA59
:0202C90001141E
:0202CA00002210
:0202CB00002809
:0202CC0001909F
:0202CD0000141B
:0202CE0000220C
:0202CF000040ED
:0202D00000C06C
:0202D10001AA80
:0202D200011A0F
:0202D300000623
:0202D400010225
:0202D500002CFB
:0202D6000052D4
:0202D700004ADB
:0202D80001140F
:0202D90001E240
:0202DA00015CC5
:0202DB0001869A
:0202DC0000A27E
:0202DD0000B06F
:0202DE0001908D
:0202DF0000FE1F
:0202E000009686
:0202E10000AE6D
:0202E200004AD0
:0202E30000C851
:0202E4000062B6
:0202E5000022F5
:0202E6000146CF
:0202E70001FC18
:0202E80000E034
:0202E90001A46E
:0202EA0001C64B
:0202EB0001CA46
:0202EC0000729E
:0202ED0000C24D
:0202EE0001C24B
:0202EF00017696
:0202F00000828A
:0202F1000042C9
:0202F2000140C9
:0202F30001DC2C
:0202F4000132D5
:0202F5000016F1
:0202F6000136CF
:0202F700013CC8
:0202F800010201
:0202F9000008FB
:0202FA00002ED4
:0202FB000040C1
:0202FC000002FE
:0202FD000134CA
:0202FE000012EC
:0202FF000108F4
:02030000004EAD
:0203010000F208
:02030200019266
:020303000026D2
:0203040001C630
:020305000142B3
:020306000124D0
:0203070001CA29
:0203080000A053
:020309000050A2
:02030A0001B040
:02030B000140AF
:02030C0000648B
:02030D000042AC
:02030E0000F2FB
:02030F000100EB
:02031000006487
:0203110001FAEF
:0203120001B236
:02031300009A4E
:0203140001CC1A
:020315000008DE
:020316000026BF
:02031700000CD8
:020318000038AB
:020319000008DA
:02031A000100E0
:02031B00002CB4
:02031C00012AB4
:02031D000128B5
:02031E0000429B
:02031F00006A72
:02032000018C4E
:02032100010CCD
:02032200005683
:020323000006D2
:02032400006671
:02032500009046
:020326000128AC
:02032700016E65
:0203280001A230
:02032900008250
:02032A0001A42C
:02032B0000448C
:02032C000124AA
:02032D0000B21C
:02032E0000903D
:02032F00005478
:020330000014B7
:0203310001A821
:02033200010CBC
:020333000000C8
:020334000120A6
:02033500006660
:0203360000A81D
:02033700014083
:02033800014082
:0203390000C200
:02033A000010B1
:02033B0000C000
:02033C00014C72
:02033D00019C21
:02033E00013884
:02033F00000CB0
:02034000015C5E
:0203410000209A
:0203420000DCDD
:02034300017245
:02034400010CAA
:02034500008C2A
:0203460001981C
:02034700015A59
:02034800005063
:0203490000BCF6
:02034A0000367B
:02034B0000AA06
:02034C00010AA4
:02034D0000446A
:02034E0000D0DD
:02034F0000505C
:02035000008E1D
:02035100008A20
:02035200012880
:02035300009E0A
:02035400002E79
:020355000006A0
:02035600004E57
:02035700001C88
:0203580000881B
:02035900003072
:02035A0000B2EF
:02035B00012877
:02035C00010C92
:02035D0001C8D5
:02035E0000C6D7
:02035F00002A72
:02036000014258
:02036100019801
:02036200004A4F
:02036300018017
:02036400010E88
:02036500011E77
:0203660000385D
:020367000194FF
:02036800015042
:02036900014A47
:02036A0000D0C1
:02036B0001147B
:02036C0001D2BC
:02036D0000206E
:02036E00001479
:02036F0001602B
:0203700000503B
:02037100013455
:02037200006029
:02037300011077
:02037400002463
:02037500012E57
:02037600007015
:020377000090F4
:020378000186FC
:0203790001E69B
:02037A00002859
:02037B0000027E
:02037C00010E70
:02037D00017409
:02037E0000225B
:02037F0001007B
:02038000007803
:02038100001862
:02038200008EEB
:02038300002E4A
:02038400000E69
:02038500006214
:0203860000BABB
:0203870001A6CD
:0203880001C8AA
:0203890000EC86
:02038A000084ED
:02038B0000CEA2
:02038C0000402F
:02038D00008EE0
:02038E0000DE8F
:02038F00008AE2
:020390000088E3
:02039100005812
:02039200004A1F
:020393000092D6
:0203940000C89F
:02039500000066
:02039600000C59
:0203970001CE95
:02039800015012
:02039900014A17
:02039A0001A4BC
:02039B0000C898
:02039C0000ACB3
:02039D0000DC82
:02039E000184D8
:02039F0000A2BA
:0203A00001C09A
:0203A100018CCD
:0203A200015206
:0203A30000FC5C
:0203A400002A2D
:0203A500000056
:0203A6000094C1
:0203A70001381B
:0203A80000440F
:0203A9000088CA
:0203AA0000C28F
:0203AB0000A4AC
:0203AC000180CE
:0203AD0000E866
:0203AE0001E06C
:0203AF00001E2E
:0203B0000068E3
:0203B100004802
:0203B200011830
:0203B300000048
:0203B400010442
:0203B5000060E6
:0203B600002A1B
:0203B7000080C4
:0203B80000A89B
:0203B9000074CE
:0203BA0000E859
:0203BB0000A0A0
:0203BC0001C07E
:0203BD0001E855
:0203BE00000439
:0203BF00003804
:0203C00001C07A
:0203C10001D861
:0203C2000044F5
:0203C3000098A0
:0203C40001280E
:0203C50000E254
:0203C60000B67F
:0203C700000034
:0203C8000140F2
:0203C9000088AA
:0203CA00000A27
:0203CB0000042C
:0203CC000034FB
:0203CD00002A04
:0203CE0000D855
:0203CF000046E6
:0203D0000074B7
:0203D10001CA5F
:0203D200001811
:0203D3000076B2
:0203D400019096
:0203D500001C0A
:0203D600000C19
:0203D70000C65E
:0203D800010220
:0203D90000C062
:0203DA00010E12
:0203DB00005AC6
:0203DC0000C857
:0203DD000148D5
:0203DE0000C05D
:0203DF00012CEF
:0203E00000C457
:0203E100001604
:0203E20000D445
:0203E30000EE2A
:0203E4000118FE
:0203E500004CCA
:0203E600007E97
:0203E70001F023
:0203E800010E04
:0203E9000122EF
:0203EA00006CA5
:0203EB00000A06
:0203EC000036D9
:0203ED0000A668
:0203EE0001CC40
:0203EF00004AC2
:0203F000008C7F
:0203F10001D039
:0203F2000032D7
:0203F30000E622
:0203F40000A067
:0203F5000020E6
:0203F6000012F3
:0203F70001E023
:0203F8000018EB
:0203F90000E81A
:0203FA00000001
:0203FB000146B9
:0203FC00016698
:0203FD0000B04E
:0203FE000048B5
:0203FF000128D3
:00000001FF
