:020000000000FE
:020001000104F8
:020002000000FC
:020003000054A7
:020004000102F7
:0200050001C632
:020006000128CF
:020007000118DE
:020008000120D5
:020009000010E5
:02000A000002F2
:02000B000042B1
:02000C00017081
:02000D000026CB
:02000E000012DE
:02000F000124CA
:020010000022CC
:02001100010AE2
:0200120000C02C
:020013000102E8
:020014000140A9
:020015000114D4
:020016000048A0
:0200170001E006
:02001800018C59
:0200190001A044
:02001A000004E0
:02001B000140A2
:02001C00012CB5
:02001D0001D010
:02001E000120BF
:02001F000134AA
:0200200001E0FD
:020021000100DC
:0200220001409B
:020023000104D6
:020024000000DA
:0200250000E4F5
:020026000120B7
:02002700016076
:020028000108CD
:020029000132A2
:02002A00004094
:02002B00010CC6
:02002C000018BA
:02002D0000448D
:02002E0001804F
:02002F000000CF
:0200300000C608
:020031000100CC
:0200320000626A
:020033000020AB
:02003400019E2B
:02003500019830
:02003600006A5E
:02003700000ABD
:02003800004086
:02003900018044
:02003A0001C8FB
:02003B0000A023
:02003C0000249E
:02003D00019828
:02003E0001249B
:02003F00008837
:0200400000645A
:02004100010AB2
:0200420001506B
:0200430001A218
:020044000006B4
:0200450001E4D4
:020046000000B8
:02004700014076
:02004800003086
:0200490000E0D5
:02004A00011E95
:02004B00014270
:02004C0000248E
:02004D0001129E
:02004E0001426D
:02004F00002C83
:020050000000AE
:02005100008825
:0200520000129A
:0200530000604B
:020054000102A7
:02005500008029
:02005600004662
:0200570001386E
:0200580000E0C6
:02005900008025
:02005A00006044
:02005B0001089A
:02005C0001A2FF
:02005D0001247C
:02005E00009010
:02005F00016836
:0200600000049A
:0200610001009C
:0200620000029A
:02006300010298
:02006400010099
:02006500017820
:02006600000098
:02006700012472
:0200680000088E
:02006900004253
:02006A00014053
:02006B00004053
:02006C00010091
:02006D00001081
:02006E00008808
:02006F0001602E
:020070000098F6
:0200710001206C
:02007200018A01
:02007300000E7D
:02007400014841
:02007500002069
:02007600001870
:0200770000285F
:0200780001C8BD
:02007900000C79
:02007A00004242
:02007B00000E75
:02007C0001027F
:02007D0001A0E0
:02007E00012A55
:02007F0001027C
:0200800001027B
:0200810000A0DD
:02008200000478
:0200830000E09B
:02008400000476
:02008500014A2E
:02008600004236
:02008700014234
:02008800010273
:0200890001CEA6
:02008A00010073
:02008B000082F1
:02008C00006012
:02008D00000E63
:02008E0000125E
:02008F000084EB
:0200900000E08E
:020091000086E7
:0200920000006C
:020093000188E2
:02009400000862
:02009500002247
:02009600000464
:02009700003235
:02009800002244
:02009900004025
:02009A00012043
:02009B000094CF
:02009C00003032
:02009D0000D28F
:02009E00002040
:02009F00009AC5
:0200A00000124C
:0200A10001104C
:0200A200010457
:0200A300001843
:0200A4000164F5
:0200A500014018
:0200A600000C4C
:0200A700011244
:0200A800000056
:0200A9000160F4
:0200AA00013023
:0200AB000080D3
:0200AC00010051
:0200AD000082CF
:0200AE0001123D
:0200AF0001DC72
:0200B00000103E
:0200B10001F854
:0200B20001301B
:0200B300012C1E
:0200B400000248
:0200B5000162E6
:0200B60001E85F
:0200B700000443
:0200B80000083E
:0200B900002421
:0200BA00014201
:0200BB00011032
:0200BC000168D9
:0200BD0000142D
:0200BE000080C0
:0200BF000188B6
:0200C00000201E
:0200C100018CB0
:0200C200002418
:0200C300012C0E
:0200C40001F247
:0200C500010038
:0200C600000A2E
:0200C7000062D5
:0200C8000068CE
:0200C9000140F4
:0200CA00001420
:0200CB00000231
:0200CC0000141E
:0200CD000042EF
:0200CE0001022D
:0200CF000042ED
:0200D0000082AC
:0200D1000188A4
:0200D20000200C
:0200D300010A20
:0200D40000002A
:0200D500002405
:0200D600001414
:0200D700011016
:0200D800000422
:0200D90001EA3A
:0200DA0001041F
:0200DB000080A3
:0200DC000038EA
:0200DD00019888
:0200DE00002AF6
:0200DF000128F6
:0200E00000021C
:0200E100019884
:0200E200012AF1
:0200E300010C0E
:0200E4000048D2
:0200E500000A0F
:0200E600001206
:0200E700018A8C
:0200E800000E08
:0200E90001060E
:0200EA00000014
:0200EB000020F3
:0200EC0000B062
:0200ED000170A0
:0200EE00010609
:0200EF000062AD
:0200F0000124E9
:0200F1000046C7
:0200F200008686
:0200F30001F01A
:0200F4000020EA
:0200F500000009
:0200F60001B255
:0200F7000150B6
:0200F80001E223
:0200F9000108FC
:0200FA000022E2
:0200FB000140C2
:0200FC0000649E
:0200FD00006C95
:0200FE0000C23E
:0200FF000048B7
:0201000001C438
:020101000138C3
:0201020001C436
:02010300001CDE
:02010400018078
:020105000040B8
:020106000034C3
:02010700005E98
:020108000102F2
:02010900009262
:02010A000100F2
:02010B0001E20F
:02010C000110E0
:02010D0000569A
:02010E000130BE
:02010F000002EC
:0201100001A448
:020111000122C9
:02011200019258
:02011300002AC0
:020114000004E5
:02011500013EA9
:0201160001C81E
:020117000108DD
:02011800004C99
:02011900011CC7
:02011A000000E3
:02011B0000E4FE
:02011C000100E0
:02011D000102DD
:02011E000010CF
:02011F0001607D
:02012000018458
:0201210001A833
:020122000120BA
:02012300004C8E
:02012400008059
:02012500018255
:0201260001C016
:020127000102D3
:0201280000C411
:020129000112C1
:02012A0001884A
:02012B00015081
:02012C000020B1
:02012D0000EAE6
:02012E00010CC2
:02012F0001507D
:020130000008C5
:02013100009834
:02013200006863
:020133000108C1
:02013400011CAC
:020135000104C3
:02013600014086
:02013700003294
:020138000100C4
:020139000004C0
:02013A0000C8FB
:02013B0001A21F
:02013C00004081
:02013D0000A020
:02013E000114AA
:02013F0000E2DC
:0201400000A815
:0201410000427A
:020142000100BA
:0201430000209A
:02014400004871
:02014500014077
:020146000108AE
:02014700007244
:02014800018C28
:020149000004B0
:02014A0001189A
:02014B000010A2
:02014C00000AA7
:02014D0000446C
:02014E00015C52
:02014F0001604D
:0201500001C0EC
:0201510000208C
:02015200012A80
:020153000002A8
:02015400001099
:02015500001890
:02015600014264
:02015700004066
:02015800003E67
:0201590001386B
:02015A00005A49
:02015B000100A1
:02015C0000CCD5
:02015D00002C74
:02015E00002A75
:02015F0000405E
:02016000003C61
:02016100000C90
:0201620000A4F7
:02016300004258
:02016400010890
:0201650001880F
:02016600019006
:02016700010C89
:0201680001286C
:02016900015E35
:02016A00016032
:02016B00001082
:02016C0001ACE4
:02016D0001C2CD
:02016E0001404E
:02016F0001D2BB
:020170000198F4
:0201710000008C
:02017200000A81
:02017300016029
:020174000192F6
:02017500011473
:02017600004A3D
:02017700001076
:0201780001483C
:0201790000265E
:02017A00004043
:02017B00002260
:02017C0000423F
:02017D00000080
:02017E0000047B
:02017F0001C0BD
:02018000010874
:0201810000403C
:02018200015426
:02018300010079
:020184000080F9
:02018500011463
:02018600002057
:0201870000086E
:02018800018CE8
:02018900014033
:02018A00010072
:02018B000188E9
:02018C00000A67
:02018D00005020
:02018E00002C43
:02018F0001C0AD
:02019000002A43
:0201910000402C
:02019200003C2F
:02019300014A1F
:02019400011850
:0201950001C89F
:02019600001E49
:02019700010263
:02019800001253
:02019900001C48
:02019A00010260
:02019B0001A0C1
:02019C00015010
:02019D0000B4AC
:02019E000080DF
:02019F0001203D
:0201A000000855
:0201A100012239
:0201A200000457
:0201A300000852
:0201A400008CCD
:0201A50000A0B8
:0201A600000C4B
:0201A70000AAAC
:0201A800004C09
:0201A90000480C
:0201AA0000A0B3
:0201AB00000A48
:0201AC0000C091
:0201AD0000044C
:0201AE0000420D
:0201AF00000648
:0201B000010844
:0201B100004408
:0201B2000182C8
:0201B300003416
:0201B400008CBD
:0201B50001C483
:0201B600000047
:0201B70001D075
:0201B8000084C1
:0201B900000242
:0201BA00004003
:0201BB00000C36
:0201BC0001043C
:0201BD0000A29E
:0201BE000048F7
:0201BF00011825
:0201C00000102D
:0201C100013EFD
:0201C20000102B
:0201C300017ABF
:0201C4000080B9
:0201C500000236
:0201C600018CAA
:0201C700010233
:0201C800002015
:0201C9000040F4
:0201CA00008AA9
:0201CB00011021
:0201CC000086AB
:0201CD000072BE
:0201CE0000002F
:0201CF000040EE
:0201D0000130FC
:0201D10001002B
:0201D2000084A7
:0201D3000160C9
:0201D4000084A5
:0201D500000424
:0201D60000A087
:0201D700000620
:0201D800012202
:0201D900000024
:0201DA0001160C
:0201DB000060C2
:0201DC00000819
:0201DD0000AC74
:0201DE000050CF
:0201DF0001C459
:0201E00000001D
:0201E1000144D7
:0201E200018298
:0201E3000054C6
:0201E4000062B7
:0201E50000D444
:0201E600010214
:0201E700009482
:0201E8000160B4
:0201E900000014
:0201EA00008E85
:0201EB000018FA
:0201EC000024ED
:0201ED000150BF
:0201EE000024EB
:0201EF0001927B
:0201F00001000C
:0201F10001808B
:0201F2000042C9
:0201F300009476
:0201F400008089
:0201F500004ABE
:0201F6000016F1
:0201F7000050B6
:0201F8000040C5
:0201F9000016EE
:0201FA0000C043
:0201FB000140C1
:0201FC000014ED
:0201FD0000D828
:0201FE000000FF
:0201FF000002FC
:020200000134C7
:020201000008F3
:02020200000EEC
:020203000002F7
:020204000006F2
:02020500009067
:020206000044B2
:020207000144B0
:0202080000CA2A
:020209000004EF
:02020A00014AA7
:02020B000102EE
:02020C000120CF
:02020D0000C42B
:02020E00011CD1
:02020F000018D5
:020210000110DB
:020211000038B3
:020212000110D9
:020213000048A1
:02021400010ADD
:020215000000E7
:02021600001ACC
:020217000044A1
:02021800003AAA
:0202190001489A
:02021A000006DC
:02021B000020C1
:02021C000040A0
:02021D000118C6
:02021E00000CD2
:02021F000002DB
:0202200001C417
:02022100000AD1
:020222000014C6
:020223000008D1
:02022400005286
:0202250000E0F7
:02022600005086
:0202270000488D
:020228000120B3
:020229000004CF
:02022A000110C1
:02022B0000C40D
:02022C0000AA26
:02022D0000D4FB
:02022E0000D0FE
:02022F00018C40
:0202300001804B
:02023100005E6D
:020232000120A9
:02023300004881
:0202340001F4D3
:0202350000CAFD
:020236000104C1
:02023700009035
:02023800004084
:02023900000EB5
:02023A000000C2
:02023B0000427F
:02023C0000249C
:02023D000110AE
:02023E0000F2CC
:02023F000004B9
:02024000000AB2
:02024100002497
:02024200010AAF
:02024300000AAF
:02024400018E29
:0202450000486F
:02024600001C9A
:02024700006055
:0202480000961E
:020249000008AB
:02024A0000446E
:02024B00001899
:02024C00013679
:02024D000000AF
:02024E0001901D
:02024F000002AB
:02025000002884
:0202510000307B
:02025200004862
:020253000000A9
:02025400012681
:02025500009017
:0202560000485E
:0202570000B2F3
:02025800003074
:0202590000049F
:02025A0000841E
:02025B00006041
:02025C00002080
:02025D0000A6F9
:02025E0000029C
:02025F0000207D
:02026000008814
:0202610000405B
:0202620000C2D8
:02026300008019
:02026400008018
:02026500003463
:0202660001484D
:02026700004253
:0202680000D0C4
:02026900001083
:02026A00018011
:02026B0000B0E1
:02026C00001080
:02026D0000800F
:02026E0000206E
:02026F0000C8C5
:02027000012665
:02027100001477
:02027200011475
:02027300000089
:0202740001384F
:02027500008205
:02027600003E48
:0202770001C0C4
:02027800001470
:02027900003251
:02027A0000047E
:02027B0001423E
:02027C0000F48C
:02027D0000E09F
:02027E00010479
:02027F000180FC
:02028000012655
:0202810001007A
:0202820000B0CA
:02028300005227
:02028400002058
:0202850000A0D7
:020286000080F6
:02028700000A6B
:02028800007004
:02028900011062
:02028A0001442D
:02028B0001A0D0
:02028C00002050
:02028D0000204F
:02028E0001224B
:02028F000080ED
:0202900001204B
:0202910001006A
:0202920000F278
:02029300010860
:0202940000E286
:02029500000265
:02029600010065
:020297000180E4
:02029800001054
:02029900014220
:02029A0001045D
:02029B0000F26F
:02029C0000025E
:02029D0000E07F
:02029E00015607
:02029F0000C895
:0202A00000ACB0
:0202A100004813
:0202A20000203A
:0202A300000059
:0202A400001048
:0202A50001A0B6
:0202A600002E28
:0202A700010450
:0202A800000C48
:0202A90001084A
:0202AA00000052
:0202AB0000F859
:0202AC000060F0
:0202AD0001143A
:0202AE0000242A
:0202AF000072DB
:0202B000001C30
:0202B10001A0AA
:0202B200000446
:0202B300002821
:0202B4000154F3
:0202B5000094B3
:0202B600004006
:0202B7000196AE
:0202B8000062E2
:0202B90001142E
:0202BA000088BA
:0202BB00018EB2
:0202BC000042FE
:0202BD00001629
:0202BE000082BC
:0202BF00017CC0
:0202C0000078C4
:0202C1000060DB
:0202C20000CA70
:0202C300010236
:0202C40001C077
:0202C500006CCB
:0202C60000082E
:0202C7000144F0
:0202C80000C074
:0202C90001CE64
:0202CA00001022
:0202CB0000062B
:0202CC0001AA85
:0202CD000040EF
:0202CE0001022B
:0202CF0000002D
:0202D000000A22
:0202D100000823
:0202D20000F238
:0202D30000C465
:0202D4000132F5
:0202D5000184A2
:0202D6000172B3
:0202D700000223
:0202D8000084A0
:0202D900002003
:0202DA0000FA28
:0202DB00012CF4
:0202DC00004AD6
:0202DD000020FF
:0202DE0000809E
:0202DF00010814
:0202E00001E833
:0202E100010218
:0202E2000050CA
:0202E300011008
:0202E4000050C8
:0202E500010016
:0202E6000056C0
:0202E700010212
:0202E800000014
:0202E90001DE34
:0202EA0000040E
:0202EB0000A26F
:0202EC000016FA
:0202ED000148C6
:0202EE00000608
:0202EF0000E22B
:0202F0000010FC
:0202F100010A00
:0202F2000024E6
:0202F30001C840
:0202F40000A068
:0202F5000128DE
:0202F6000016F0
:0202F70000A065
:0202F80000D232
:0202F9000040C3
:0202FA0000C83A
:0202FB0000C041
:0202FC00002ED2
:0202FD000124DA
:0202FE000014EA
:0202FF000032CB
:020300000006F5
:020301000040BA
:02030200008277
:020303000004F4
:02030400010CEA
:02030500004AAC
:02030600002CC9
:0203070001648F
:02030800008C67
:020309000020D2
:02030A0000628F
:02030B000100EF
:02030C000046A9
:02030D0000AC42
:02030E0000806D
:02030F000044A8
:020310000000EB
:020311000034B6
:02031200019850
:020313000022C6
:0203140000984F
:02031500016481
:0203160000885D
:0203170000A044
:020318000000E3
:020319000012D0
:02031A00019A46
:02031B0000C020
:02031C000024BB
:02031D0000904E
:02031E00006479
:02031F0001C01B
:0203200000A437
:020321000000DA
:020322000000D9
:020323000112C5
:02032400004097
:02032500007066
:020326000008CD
:0203270000D400
:02032800009043
:020329000004CE
:02032A0001CC04
:02032B0000E8E8
:02032C00004C83
:02032D00016865
:02032E0000CEFF
:02032F00004E7E
:020330000028A3
:02033100004288
:02033200007059
:020333000010B8
:02033400015076
:02033500006462
:02033600000ABB
:0203370000EADA
:020338000014AF
:0203390001E2DF
:02033A00000CB5
:02033B00006A56
:02033C000002BD
:02033D0000744A
:02033E0000902D
:02033F00012299
:0203400000803B
:02034100003A80
:020342000004B5
:020343000018A0
:02034400002097
:0203450001189D
:020346000010A5
:02034700002C88
:02034800015260
:02034900008032
:02034A0001367A
:02034B000000B0
:02034C0000703F
:02034D0000406E
:02034E00010AA2
:02034F0000604C
:02035000000C9F
:02035100009614
:02035200006049
:0203530000A008
:02035400000A9D
:0203550000A402
:02035600003075
:02035700011291
:0203580000C0E3
:02035900005A48
:02035A0001128E
:02035B0001B2ED
:02035C0000346B
:02035D0001A6F7
:02035E0000207D
:02035F00005448
:02036000008219
:0203610000A4F6
:02036200003069
:02036300016037
:02036400002671
:02036500010095
:02036600003065
:02036700006232
:02036800007023
:02036900012071
:02036A00005041
:02036B0000AAE6
:02036C000096F9
:02036D0000404E
:02036E00003855
:02036F00000488
:02037000001279
:020371000094F6
:02037200008009
:02037300010483
:02037400001C6B
:02037500010A7B
:02037600000085
:0203770000B2D2
:020378000086FD
:02037900014839
:02037A00000879
:02037B00001A66
:02037C000084FB
:02037D0001007D
:02037E00001865
:02037F0000A2DA
:02038000004A31
:0203810000B2C8
:02038200010E6A
:0203830000C0B8
:0203840001B2C4
:02038500000670
:0203860000A0D5
:02038700015E15
:020388000192E0
:0203890001462B
:02038A000194DC
:02038B0001224D
:02038C0001C6A8
:02038D0001125B
:02038E00011A52
:02038F0001204B
:02039000012446
:02039100013039
:02039200010068
:02039300013235
:02039400011452
:0203950001D491
:0203960001A4C0
:02039700003034
:0203980001F66C
:0203990000A0C2
:02039A0001243C
:02039B0000025E
:02039C00003C23
:02039D0000104E
:02039E0000203D
:02039F00000E4E
:0203A000002239
:0203A100012435
:0203A200008ACF
:0203A300004216
:0203A40000A8AF
:0203A500008ACC
:0203A600011242
:0203A7000190C3
:0203A80000EA69
:0203A90000044E
:0203AA00005001
:0203AB0000262A
:0203AC000088C7
:0203AD00000846
:0203AE00002825
:0203AF0000024A
:0203B00000F259
:0203B1000188C1
:0203B20000E267
:0203B300003E0A
:0203B40000182F
:0203B500013015
:0203B600000045
:0203B70000083C
:0203B8000090B3
:0203B900001230
:0203BA0000C27F
:0203BB0000360A
:0203BC000040FF
:0203BD00018AB3
:0203BE000078C5
:0203BF00001428
:0203C0000040FB
:0203C10001BC7D
:0203C2000046F3
:0203C30000A494
:0203C400002215
:0203C500001026
:0203C60000989D
:0203C700000232
:0203C80000280B
:0203C900003200
:0203CA0000929F
:0203CB000044EC
:0203CC0000B47B
:0203CD000134F9
:0203CE0000C06D
:0203CF0000F636
:0203D000001813
:0203D1000080AA
:0203D200000821
:0203D3000146E1
:0203D40001A87E
:0203D500011411
:0203D600009293
:0203D7000052D2
:0203D80000B073
:0203D9000028FA
:0203DA0000EE33
:0203DB00000020
:0203DC0000E03F
:0203DD000032EC
:0203DE0000C657
:0203DF000024F8
:0203E000000A11
:0203E10000C852
:0203E200001009
:0203E3000166B1
:0203E400000413
:0203E50000A274
:0203E600006AAB
:0203E70001987B
:0203E8000042D1
:0203E900001002
:0203EA000040D1
:0203EB00010A05
:0203EC00007897
:0203ED0000000E
:0203EE0000020B
:0203EF0001808B
:0203F0000022E9
:0203F10000C04A
:0203F2000130D8
:0203F30000F018
:0203F4000010F7
:0203F50000AC5A
:0203F6000050B5
:0203F70000F014
:0203F8000110F2
:0203F9000008FA
:0203FA000060A1
:0203FB000006FA
:0203FC000002FD
:0203FD000000FE
:0203FE0001906C
:0203FF000008F4
:00000001FF
