:0200000001A25B
:0200010001EE0E
:0200020000FEFE
:020003000122D8
:02000400014EAB
:02000500019662
:02000600000AEE
:02000700015E98
:02000800018E67
:02000900015A9A
:02000A0000FEF6
:02000B0001965C
:02000C00006A88
:02000D00015898
:02000E0001C629
:02000F00015698
:02001000012AC3
:020011000122CA
:02001200000AE2
:02001300013EAC
:0200140001BA2F
:02001500014A9E
:0200160000D810
:0200170001ECFA
:02001800006E78
:02001900018262
:02001A0001647F
:02001B000102E0
:02001C0000B230
:02001D000118C8
:02001E0001BE21
:02001F00016678
:02002000009A44
:0200210001BC20
:020022000106D5
:0200230001AE2C
:02002400015683
:02002500018C4C
:0200260001A433
:020027000114C2
:02002800015E77
:02002900017C58
:02002A00003A9A
:02002B00017A58
:02002C0001527F
:02002D0001BE12
:02002E000100CF
:02002F0001428C
:02003000017657
:0200310001ECE0
:0200320001AE1D
:0200330001BC0E
:0200340000AA20
:0200350001D6F2
:0200360001F6D1
:02003700013A8C
:020038000006C0
:0200390001FCC8
:02003A00017251
:02003B0001A220
:02003C0001EED3
:02003D0001F6CA
:02003E0000AE12
:02003F0000328D
:02004000016C51
:02004100014478
:0200420000E6D6
:02004300017E3C
:020044000102B7
:0200450001CEEA
:02004600004474
:02004700012294
:0200480001F6BF
:0200490001387C
:02004A00006252
:02004B00017E34
:02004C00015E53
:02004D0001DED2
:02004E00005A56
:02004F00014668
:02005000006C42
:0200510001BCF0
:02005200006646
:02005300016E3C
:0200540000BCEE
:02005500016A3E
:02005600002286
:02005700018C1A
:02005800008A1C
:02005900019C08
:02005A00012281
:02005B0001EEB4
:02005C0000C6DC
:02005D0001DAC6
:02005E00014659
:02005F00012A74
:0200600000F4AA
:02006100016E2E
:0200620001CCCF
:0200630001DEBC
:02006400003268
:0200650001B8E0
:02006600017C1B
:0200670001AAEC
:02006800012E67
:02006900013E56
:02006A0000C6CE
:02006B00018A08
:02006C0001DEB3
:02006D0001A6EA
:02006E00010C83
:02006F0001325C
:0200700000E4AA
:0200710001E0AC
:0200720001C0CB
:0200730001DEAC
:02007400011C6D
:02007500004841
:0200760001E2A5
:0200770001FE88
:02007800008CFA
:02007900018CF8
:02007A0001D8AB
:02007B0001087A
:02007C0001F889
:02007D00010878
:02007E0000641C
:02007F00003847
:02008000014E2F
:02008100016814
:0200820000EC90
:0200830001B8C2
:020084000084F6
:0200850000C4B5
:02008600002454
:02008700009CDB
:02008800004A2C
:0200890000CCA9
:02008A00006014
:02008B0000FA79
:02008C0000363C
:02008D00001859
:02008E00009AD6
:02008F00003639
:020090000088E6
:0200910000D09D
:0200920000D29A
:02009300005C0F
:02009400009AD0
:0200950000F871
:020096000070F8
:0200970000F473
:02009800007CEA
:0200990000A2C3
:02009A00005212
:02009B0000EC77
:02009C00003032
:02009D0000D889
:02009E0000FE62
:02009F00003629
:0200A00000AAB4
:0200A100000A53
:0200A200002A32
:0200A3000060FB
:0200A4000074E6
:0200A50000EC6D
:0200A6000094C4
:0200A7000068EF
:0200A80000BA9C
:0200A90000E86D
:0200AA0000F65E
:0200AB000086CD
:0200AC00003E14
:0200AD00003819
:0200AE0000BA96
:0200AF00009AB5
:0200B00000C886
:0200B1000086C7
:0200B200000E3E
:0200B300000A41
:0200B40000EA60
:0200B500003613
:0200B600006EDA
:0200B70000D86F
:0200B8000068DE
:0200B9000054F1
:0200BA0000AC98
:0200BB00001A29
:0200BC0000F250
:0200BD0000F64B
:0200BE0000EE52
:0200BF0000B28D
:0200C00000B08E
:0200C10000FA43
:0200C20000EE4E
:0200C30000E457
:0200C4000044F6
:0200C500007CBD
:0200C60000C276
:0200C7000062D5
:0200C800006ACC
:0200C90000EC49
:0200CA000076BE
:0200CB00002211
:0200CC0000F83A
:0200CD0000969B
:0200CE000062CE
:0200CF0000CC63
:0200D00000CE60
:0200D10000D459
:0200D200006AC2
:0200D300007AB1
:0200D40000FC2E
:0200D50000AC7D
:0200D600009692
:0200D7000034F3
:0200D8000036F0
:0200D9000068BD
:0200DA00006ABA
:0200DB000054CF
:0200DC0000CE54
:0200DD00009E83
:0200DE00001E02
:0200DF000074AB
:0200E000006AB4
:0200E100006CB1
:0200E20000CE4E
:0200E3000050CB
:0200E400004AD0
:0200E50000DA3F
:0200E60000FE1A
:0200E70000F621
:0200E800009E78
:0200E9000034E1
:0200EA0000BC58
:0200EB0000E82B
:0200EC0000B45E
:0200ED0000B45D
:0200EE0000F21E
:0200EF0000947B
:0200F0000038D6
:0200F100008C81
:0200F20000A26A
:0200F300009477
:0200F400016A9F
:0200F50000E623
:0200F60000EE1A
:0200F700007C8B
:0200F800001EE8
:0200F900007A8B
:0200FA000064A0
:0200FB0000C83B
:0200FC00015EA3
:0200FD0000FE03
:0200FE00006A96
:0200FF0000CE31
:0201000000F607
:02010100007A82
:02010200006A91
:0201030000CE2C
:02010400007C7D
:0201050000EE0A
:0201060000C037
:02010700009C5A
:0201080001CC28
:02010900013CB7
:02010A0001EE04
:02010B0001AC45
:02010C0000866B
:02010D0000AA46
:02010E00009659
:02010F000018D6
:02011000009A53
:02011100001ECE
:020112000142A8
:0201130001D415
:0201140001FCEC
:02011500004C9C
:0201160000DE09
:02011700006C7A
:02011800008A5B
:02011900007E66
:02011A0000FCE7
:02011B0000944E
:02011C00004899
:02011D00001CC4
:02011E0000A837
:02011F0000BC22
:02012000008C51
:02012100008458
:02012200004299
:0201230000AC2E
:0201240000EEEB
:020125000006D2
:0201260000C413
:020127000008CE
:0201280000A035
:02012900005084
:02012A0000AA29
:02012B00004C86
:02012C0000CE03
:02012D0000EEE2
:02012E00006C63
:02012F00002CA2
:02013000004885
:0201310000C804
:0201320000AE1D
:02013300006C5E
:0201340000D8F1
:0201350000B810
:0201360000F8CF
:02013700007C4A
:0201380000CCF9
:0201390000B212
:02013A0000982B
:02013B0000D4EE
:02013C00003A87
:02013D00007C44
:02013E0000CAF5
:02013F00009628
:02014000001CA1
:02014100008438
:020142000008B3
:02014300003C7E
:0201440000BAFF
:02014500006058
:0201460000CCEB
:02014700005066
:0201480000CAEB
:0201490001FAB9
:02014A0000CCE7
:02014B00006052
:02014C0000AE03
:02014D0000248C
:02014E0000CEE1
:02014F0000DAD4
:02015000008E1F
:0201510000C4E8
:0201520000AA01
:0201530001F4B5
:02015400001891
:02015500009E0A
:0201560000ECBB
:02015700002482
:0201580001366E
:0201590000ACF8
:02015A0000BEE5
:02015B0000F0B2
:02015C0000940D
:02015D0000C8D8
:02015E0001B8E6
:02015F0000841A
:0201600000306D
:02016100002E6E
:02016200017E1C
:02016300009802
:02016400004C4D
:02016500009602
:02016600002671
:0201670000B6E0
:0201680000BCD9
:0201690000BCD8
:02016A00005E35
:02016B00008A08
:02016C0000622F
:02016D000096FA
:02016E00009EF1
:02016F00003856
:020170000096F7
:02017100001676
:02017200004645
:0201730000BECC
:02017400002267
:02017500003256
:020176000094F3
:02017700005E28
:0201780001EA9A
:0201790001641F
:02017A00006221
:02017B0000D8AA
:02017C0000542D
:02017D00006818
:02017E0000FC83
:02017F00000A74
:02018000005E1F
:02018100009CE0
:02018200001467
:02018300008CEE
:02018400001A5F
:0201850000E890
:0201860001DA9C
:0201870000B0C6
:0201880000E68F
:0201890000A6CE
:02018A0000B0C3
:02018B0000F67C
:02018C000098D9
:02018D000194DB
:02018E00001857
:02018F0000D49A
:0201900001C8A4
:0201910000A6C6
:02019200004823
:0201930000E684
:0201940000BCAD
:02019500002444
:0201960000CC9B
:0201970000C6A0
:02019800002441
:0201990000BEA6
:02019A00002043
:02019B0000FC66
:02019C0000045D
:02019D0000F070
:02019E000094CB
:02019F0000E47A
:0201A000003429
:0201A10001B4A7
:0201A20001A4B6
:0201A3000184D5
:0201A400015800
:0201A50001F067
:0201A60001DA7C
:0201A700007ED8
:0201A80000480D
:0201A9000074E0
:0201AA0000CE85
:0201AB00001C36
:0201AC000154FC
:0201AD000196B9
:0201AE0000DE71
:0201AF000062EC
:0201B00000DA73
:0201B10001B299
:0201B20000EC5F
:0201B30000C08A
:0201B400006CDD
:0201B50000F256
:0201B60001F650
:0201B700002026
:0201B80000B68F
:0201B90000C480
:0201BA00001C27
:0201BB00003C06
:0201BC0000C47D
:0201BD00007CC4
:0201BE0000201F
:0201BF000088B6
:0201C000013C00
:0201C1000050EC
:0201C20000D665
:0201C30000B684
:0201C40000D663
:0201C50001B681
:0201C600000E29
:0201C7000088AE
:0201C800002E07
:0201C90001BE75
:0201CA000058DB
:0201CB0001062B
:0201CC000058D9
:0201CD0000240C
:0201CE0001101E
:0201CF00019895
:0201D000003AF3
:0201D100018E9D
:0201D2000058D3
:0201D30001BE6B
:0201D400000E1B
:0201D500005CCC
:0201D60001EE38
:0201D70001FA2B
:0201D800013EE6
:0201D900015EC5
:0201DA000138EA
:0201DB0000889A
:0201DC0001F62A
:0201DD00017AA5
:0201DE00019C82
:0201DF000140DD
:0201E000011C00
:0201E10001D843
:0201E200018892
:0201E300010019
:0201E40000CC4D
:0201E500012EE9
:0201E600012CEA
:0201E700014EC7
:0201E800011AFA
:0201E90001E82B
:0201EA00015EB4
:0201EB00012AE7
:0201EC000068A9
:0201ED00013CD3
:0201EE0001AA64
:0201EF00000C02
:0201F000000C01
:0201F1000148C3
:0201F200011AF0
:0201F300013CCD
:0201F400018A7E
:0201F5000120E7
:0201F60001EC1A
:0201F700009E68
:0201F8000148BC
:0201F90001DE25
:0201FA00009A69
:0201FB0000FC06
:0201FC0001748C
:0201FD000018E8
:0201FE0000AE51
:0201FF0001A25B
:0202000001AE4D
:0202010000A853
:0202020001EC0D
:02020300006E8B
:02020400008672
:02020500017680
:02020600013ABB
:0202070001D61E
:0202080000CA2A
:0202090001569C
:02020A00001CD6
:02020B0001AE42
:02020C00007E72
:02020D00016A84
:02020E0000EE00
:02020F0000BA33
:02021000017C6F
:0202110001BE2C
:02021200005E8C
:0202130001BA2E
:02021400014A9D
:0202150001BE28
:02021600016C79
:02021700007A6B
:02021800019E45
:02021900010ED4
:02021A0001F8E9
:02021B0001DA06
:02021C0000DA06
:02021D0001B826
:02021E00010ECF
:02021F00009647
:02022000008A52
:0202210000BC1F
:02022200015683
:020223000002D7
:020224000030A8
:02022500001ABD
:02022600001ABC
:020227000030A5
:0202280001A42F
:020229000024AF
:02022A0001B819
:02022B0000963B
:02022C0000864A
:02022D0000F6D9
:02022E00018A43
:02022F00018E3E
:02023000003A92
:02023100002AA1
:0202320001F4D5
:0202330001B810
:020234000008C0
:02023500019C2A
:02023600011EA7
:0202370001784C
:02023800018043
:02023900001CA7
:02023A000118A9
:02023B00012898
:02023C0001AC13
:02023D00019E20
:02023E000110AD
:02023F00019824
:02024000013883
:0202410000BEFD
:02024200004C6E
:020243000008B1
:02024400004C6C
:02024500000AAD
:0202460000684E
:0202470000981D
:02024800004470
:0202490001862C
:02024A0000248E
:02024B0001248C
:02024C00010CA3
:02024D0000505F
:02024E00005856
:02024F0001E0CC
:0202500001FCAF
:0202510001BCEE
:02025200016643
:02025300019A0E
:0202540001DEC9
:0202550001F6B0
:02025600011A8B
:02025700015252
:0202580001FEA5
:02025900017E24
:02025A0001663B
:02025B00013E62
:02025C0001D6C9
:02025D0001ECB2
:02025E00015845
:02025F0001F0AC
:0202600001CCCF
:0202610001108A
:02026200015C3D
:0202630000C4D5
:02026400013C5B
:0202650001FE98
:02026600002C6A
:02026700016430
:02026800017221
:02026900014250
:02026A00002A68
:02026B0001A6EA
:02026C000198F7
:02026D00005A35
:02026E0000424C
:02026F00011874
:02027000005834
:02027100012C5E
:0202720000DCAE
:02027300015C2C
:0202740000EC9C
:02027500017C0A
:02027600014045
:02027700005431
:02027800017E05
:02027900013C46
:02027A0001D4AD
:02027B0000E0A1
:02027C0000F888
:02027D0001F08E
:02027E0000502E
:02027F0001F884
:0202800000B0CC
:0202810000B0CB
:02028200007CFE
:020283000090E9
:02028400015027
:0202850001383E
:02028600001264
:02028700012450
:0202880001A0D3
:0202890001581A
:02028A00011C55
:02028B000088E9
:02028C00003C34
:02028D0000B2BD
:02028E00004826
:02028F0001A8C4
:020290000198D3
:02029100011C4E
:0202920000303A
:02029300016EFA
:0202940001B8AF
:0202950001B4B2
:0202960001B8AD
:020297000198CC
:0202980001A0C3
:0202990001184A
:02029A0001CC95
:02029B0000B4AD
:02029C0000DC84
:02029D00013A24
:02029E0001CC91
:02029F00012A32
:0202A00000EC70
:0202A10000BE9D
:0202A200013821
:0202A300002237
:0202A40001E077
:0202A500010E48
:0202A6000064F2
:0202A70001FE56
:0202A800015CF7
:0202A900012A28
:0202AA0000D082
:0202AB0001222E
:0202AC00016EE1
:0202AD0001CC82
:0202AE00000E40
:0202AF00016CE0
:0202B00001BA91
:0202B100014EFC
:0202B200005EEC
:0202B30001FE4A
:0202B400019AAD
:0202B50000F651
:0202B600011C29
:0202B7000154F0
:0202B80000B490
:0202B90001FC46
:0202BA0000CA78
:0202BB0001DA66
:0202BC0001CA75
:0202BD00011E20
:0202BE00019E9F
:0202BF0001BE7E
:0202C000007AC2
:0202C1000146F4
:0202C200013009
:0202C300018EAA
:0202C400013EF9
:0202C500011620
:0202C600018EA7
:0202C7000186AE
:0202C800013201
:0202C90001DA58
:0202CA00013CF5
:0202CB000144EC
:0202CC00003CF4
:0202CD0001BE70
:0202CE0000B876
:0202CF00015ECE
:0202D000009894
:0202D10001CE5C
:0202D20001AE7B
:0202D30000C663
:0202D40000CA5E
:0202D50000CA5D
:0202D60001E83D
:0202D7000076AF
:0202D800012AF9
:0202D90001AE74
:0202DA00008A98
:0202DB0001EE32
:0202DC00000A16
:0202DD00003AE5
:0202DE00016EAF
:0202DF0001EE2E
:0202E00001CE4D
:0202E100018E8C
:0202E200010A0F
:0202E300001405
:0202E400002AEE
:0202E50001FC1A
:0202E6000126EF
:0202E700009C79
:0202E80001848F
:0202E90001F220
:0202EA00013ED3
:0202EB00000C05
:0202EC0001B25D
:0202ED0000A867
:0202EE0000808E
:0202EF00000607
:0202F000001EEE
:0202F100006E9D
:0202F200018287
:0202F300012CDC
:0202F40000D632
:0202F50001788E
:0202F60001867F
:0202F70000A065
:0202F800001EE6
:0202F9000156AC
:0202FA00016899
:0202FB00019C64
:0202FC00003EC2
:0202FD00017688
:0202FE0000FA04
:0202FF0000EC11
:0203000000E615
:02030100001AE0
:02030200010AEE
:0203030001D423
:02030400007483
:02030500011ADB
:0203060001BE36
:02030700011ED5
:020308000128CA
:02030900008A68
:02030A00007879
:02030B00015C93
:02030C0000FEF1
:02030D000122CB
:02030E0001F0FC
:02030F00003EAE
:02031000007E6D
:0203110001FEEB
:02031200007A6F
:02031300006A7E
:02031400002EB9
:020315000144A1
:02031600004A9B
:0203170000E8FC
:02031800017A68
:0203190001C819
:02031A0001D808
:02031B0001E4FB
:02031C0001AE30
:02031D0001CE0F
:02031E00012CB0
:02031F00017C5F
:02032000005E7D
:0203210001D603
:02032200001EBB
:020323000104D3
:020324000034A3
:0203250001E0F5
:02032600005A7B
:02032700019A39
:0203280001369C
:020329000010C2
:02032A000014BD
:02032B0000329E
:02032C000106C8
:02032D0001F4D9
:02032E00015478
:02032F0000A428
:0203300000B417
:020331000104C5
:020332000128A0
:0203330000B810
:02033400019036
:02033500002A9C
:02033600005C69
:0203370001A81B
:0203380001962C
:0203390001863B
:02033A000116AA
:02033B00009C24
:02033C00009C23
:02033D00015A63
:02033E0001D0EC
:02033F0001EECD
:020340000118A2
:02034100000CAE
:020342000004B5
:02034300005E5A
:0203440001ECCA
:0203450000486E
:02034600019222
:0203470000FCB8
:0203480001D0E2
:0203490000664C
:02034A0000BEF3
:02034B0001D4DB
:02034C0001AC02
:02034D0001406D
:02034E00006C41
:02034F00009A12
:02035000003477
:0203510001AAFF
:0203520001F8B0
:02035300018621
:0203540001BEE8
:02035500017431
:0203560001782C
:0203570001DCC7
:0203580000762D
:02035900017829
:02035A0000F6AB
:02035B0001EEB1
:02035C00004C53
:02035D0000A4FA
:02035E0001CECE
:02035F0000D6C6
:0203600000C6D5
:0203610000D4C6
:02036200010E8A
:02036300007226
:02036400003E59
:0203650000ACEA
:02036600005045
:0203670001484B
:0203680000761D
:02036900016C25
:02036A00017E12
:02036B00011C73
:02036C0000FE91
:02036D00007E10
:02036E00013A52
:02036F0001FE8D
:02037000007A11
:02037100001674
:0203720001DEAA
:0203730000C6C2
:0203740001BCCA
:02037500007610
:0203760001CEB6
:020377000094F0
:0203780000FE85
:02037900007E04
:02037A0001DEA2
:02037B0001F28D
:02037C0001DEA0
:02037D0000A6D8
:02037E0001EC90
:02037F0001FC7F
:0203800001007A
:02038100006A10
:02038200005C1D
:02038300006612
:02038400012A4C
:020385000196DF
:0203860001F87C
:0203870001BCB7
:020388000194DE
:02038900015C15
:02038A000174FC
:02038B0001AEC1
:02038C00015E10
:02038D0001620B
:02038E00019ECE
:02038F00014E1D
:02039000014E1C
:0203910001B2B7
:02039200015A0E
:0203930001F275
:0203940001382E
:02039500017EE7
:0203960001E67E
:020397000188DB
:020398000164FE
:0203990000BCA6
:02039A0000FC65
:02039B00009CC4
:02039C00004E11
:02039D0000540A
:02039E00015EFE
:02039F0001EC6F
:0203A00000F467
:0203A10001ACAD
:0203A200001A3F
:0203A300013621
:0203A4000178DE
:0203A5000160F5
:0203A600012232
:0203A70000D87C
:0203A800010052
:0203A90000AEA4
:0203AA00001839
:0203AB0001FC53
:0203AC00017CD2
:0203AD00002E20
:0203AE00005EEF
:0203AF000174D7
:0203B000015CEE
:0203B10001BC8D
:0203B2000060E9
:0203B30000F850
:0203B40000F453
:0203B500011233
:0203B600016ED6
:0203B7000076CE
:0203B80001BA88
:0203B900019CA5
:0203BA000168D8
:0203BB0001EC53
:0203BC00006CD3
:0203BD00013C01
:0203BE000044F9
:0203BF00003A02
:0203C0000186B4
:0203C10000EA50
:0203C200008EAB
:0203C3000154E3
:0203C400009C9B
:0203C50001D263
:0203C600002C09
:0203C700001024
:0203C80000AE85
:0203C900012A07
:0203CA0000DE53
:0203CB0001C867
:0203CC0000FC33
:0203CD0001B07D
:0203CE0001FC30
:0203CF0000CC60
:0203D000002EFD
:0203D100004CDE
:0203D200003CED
:0203D30000BC6C
:0203D40000E641
:0203D500009E88
:0203D6000034F1
:0203D70001DE45
:0203D80001EE34
:0203D9000026FC
:0203DA00004ED3
:0203DB000144DB
:0203DC00015CC2
:0203DD00012CF1
:0203DE000176A6
:0203DF000154C7
:0203E00000EC2F
:0203E10001FE1B
:0203E200011008
:0203E300016CAB
:0203E400003ADD
:0203E5000026F0
:0203E60000EE27
:0203E70001BA59
:0203E8000018FB
:0203E90000868C
:0203EA000124EC
:0203EB00013CD3
:0203EC0001000E
:0203ED00007C92
:0203EE0000B459
:0203EF0000FA12
:0203F0000020EB
:0203F10001AC5D
:0203F20000B455
:0203F300007296
:0203F40001FC0A
:0203F50001F411
:0203F60001F80C
:0203F70001CC37
:0203F8000160A2
:0203F9000128D9
:0203FA0000C63B
:0203FB0000DC24
:0203FC00007C83
:0203FD0000D42A
:0203FE0000DC21
:0203FF0000FC00
:00000001FF
