:020000000054AA
:02000100016C90
:0200020000D626
:02000300017486
:0200040000CE2C
:0200050001E216
:0200060000EA0E
:02000700017C7A
:0200080000CA2C
:02000900014EA6
:02000A0000B63E
:02000B0001DE14
:02000C0000FCF6
:02000D00014AA6
:02000E0001CE21
:02000F0001D816
:0200100001AA43
:0200110001FEEE
:02001200015497
:020013000144A6
:0200140000CE1C
:02001500018A5E
:0200160000DC0C
:0200170001FEE8
:0200180001DA0B
:02001900019C48
:02001A0001746F
:02001B0001EEF4
:02001C0000F2F0
:02001D0001F6EA
:02001E0000E6FA
:02001F0001627C
:0200200000DC02
:0200210001FCE0
:0200220000D606
:0200230001CA10
:0200240000D604
:0200250001DCFC
:0200260001E4F3
:0200270001488E
:02002800011CB9
:0200290001B420
:02002A0001CE05
:02002B00017A58
:02002C00001AB8
:02002D0001ECE4
:02002E000030A0
:02002F0001FED0
:0200300000844A
:02003100015478
:0200320001B615
:02003300017E4C
:0200340001C801
:02003500017850
:0200360000AE1A
:02003700015E68
:0200380001D2F3
:0200390001F6CE
:02003A00009A2A
:02003B0001F2D0
:02003C0001BC05
:02003D0001D4EC
:02003E0000B60A
:02003F0000744B
:0200400001BC01
:0200410001D8E4
:0200420001B803
:02004300013E7C
:0200440001D6E3
:0200450001EECA
:02004600019621
:020047000106B0
:0200480001BEF7
:02004900017044
:02004A0000981C
:02004B0001AA08
:02004C00016849
:02004D0001941C
:02004E00005E52
:02004F0001DED0
:0200500000E8C6
:02005100019E0E
:0200520001F4B7
:02005300016446
:02005400009812
:02005500013672
:0200560001B2F5
:0200570001FEA8
:0200580001BAEB
:0200590001FCA8
:02005A0001B4EF
:02005B0001BEE4
:02005C0001BAE7
:02005D0001FEA2
:02005E0001B6E9
:02005F00016E30
:02006000005C42
:0200610001B8E4
:0200620000CCD0
:0200630001CECC
:02006400007624
:0200650001F4A4
:0200660000EEAA
:02006700003265
:0200680001D2C3
:0200690000A8ED
:02006A00005C38
:02006B0001B4DE
:02006C0000464C
:02006D0001167A
:02006E00014E41
:02006F0000BED1
:02007000012469
:0200710001E0AC
:02007200004E3E
:02007300015A30
:02007400012C5D
:02007500009CED
:02007600007C0C
:02007700016E18
:0200780000DEA8
:02007900009CE9
:02007A0001FC87
:02007B00008AF9
:02007C0001CAB7
:02007D0001BCC4
:02007E0000FC84
:02007F000186F8
:02008000019CE1
:0200810000FC81
:0200820001FC7F
:02008300016416
:0200840000DC9E
:02008500005623
:0200860001D89F
:02008700000E69
:02008800009ADC
:02008900015E16
:02008A0000BABA
:02008B00006C07
:02008C0000A4CE
:02008D0001DE92
:02008E00001060
:02008F0000541B
:02009000008CE2
:020091000182EA
:02009200000E5E
:0200930000D893
:02009400002E3C
:02009500006AFF
:0200960001DC8B
:0200970000B4B3
:02009800007EE8
:02009900012242
:02009A0000DE86
:02009B0000E87B
:02009C00003C26
:02009D0001D888
:02009E000090D0
:02009F00009EC1
:0200A00001FA63
:0200A100003E1F
:0200A20000BAA2
:0200A30000B4A7
:0200A40001E277
:0200A5000066F3
:0200A600005AFE
:0200A700011C3A
:0200A80000F264
:0200A900013E16
:0200AA00003222
:0200AB0000D281
:0200AC0000FC56
:0200AD0000EA67
:0200AE0000BE92
:0200AF00004A05
:0200B000017ECF
:0200B1000086C7
:0200B20000FE4E
:0200B30000A8A3
:0200B4000054F6
:0200B50001B296
:0200B600007CCC
:0200B70000B295
:0200B800007EC8
:0200B90000FE47
:0200BA0000FC48
:0200BB0001FA48
:0200BC0000F44E
:0200BD0000320F
:0200BE00017EC1
:0200BF0000B08F
:0200C000003C02
:0200C100001A23
:0200C20001E853
:0200C300003407
:0200C40001E059
:0200C500007CBD
:0200C60000A296
:0200C700007EB9
:0200C80001E84D
:0200C90000D85D
:0200CA0000F440
:0200CB0000B083
:0200CC00016AC7
:0200CD0000D45D
:0200CE000068C8
:0200CF00004AE5
:0200D000017EAF
:0200D100009499
:0200D20000B07C
:0200D30000E447
:0200D400017EAB
:0200D5000078B1
:0200D60000F434
:0200D700013AEC
:0200D8000076B0
:0200D9000078AD
:0200DA0000AC78
:0200DB00013CE6
:0200DC0000F62C
:0200DD0000B869
:0200DE0000DC44
:0200DF00007EA1
:0200E00001FC21
:0200E100000C11
:0200E200009C80
:0200E3000048D3
:0200E40001BA5F
:0200E500001801
:0200E60000B860
:0200E70000BE59
:0200E80001BE57
:0200E900003CD9
:0200EA00006EA6
:0200EB000034DF
:0200EC0000F41E
:0200ED00013CD4
:0200EE000062AE
:0200EF00009A75
:0200F00001EE1F
:0200F100009C71
:0200F20000E626
:0200F30000BE4D
:0200F400018E7B
:0200F500008C7D
:0200F60001CE39
:0200F70000F611
:0200F8000110F5
:0200F90000BA4B
:0200FA000038CC
:0200FB0000CA39
:0200FC00017C85
:0200FD0000FE03
:0200FE000052AE
:0200FF0000C837
:02010000017E7E
:0201010000B844
:0201020000D823
:02010300010EEB
:02010400007683
:02010500008870
:0201060000FEF9
:02010700011CD9
:0201080001FAFA
:0201090001F8FB
:02010A0001569C
:02010B00017879
:02010C00014AA6
:02010D0000DA16
:02010E0000E40B
:02010F0001D21B
:02011000003EAF
:02011100019655
:02011200017278
:0201130001E207
:02011400010EDA
:02011500006682
:0201160000CA1D
:02011700018065
:02011800006E77
:0201190000F6EE
:02011A0001EEF4
:02011B0000C41E
:02011C0000DA07
:02011D0001548B
:02011E0000FEE1
:02011F0000FCE2
:0201200001CE0E
:0201210000FCE0
:02012200009249
:02012300019841
:0201240000B623
:0201250000C612
:0201260001BE18
:0201270000CC0A
:02012800009A3B
:0201290001A42F
:02012A0000FAD9
:02012B00006E64
:02012C00015A76
:02012D0000B21E
:02012E000016B9
:02012F0001B815
:0201300000D2FB
:0201310000B814
:0201320001F2D8
:0201330000DCEE
:02013400003297
:0201350001685F
:02013600006265
:0201370000F8CE
:02013800012E96
:0201390000D2F2
:02013A00002A99
:02013B00018C35
:02013C0000BA07
:02013D0000EAD6
:02013E0001EED0
:02013F0000922C
:0201400000FEBF
:02014100009824
:02014200013E7C
:0201430000AC0E
:02014400008A2F
:0201450001F4C3
:02014600009E19
:02014700007C3A
:0201480000FABB
:0201490001189B
:02014A0000DED5
:02014B0000D4DE
:02014C0001BAF6
:02014D00009818
:02014E0000FEB1
:02014F00015E4F
:0201500000CAE3
:0201510000525A
:0201520000FAB1
:0201530001FEAB
:0201540000CEDB
:0201550000FEAA
:02015600009E09
:0201570000FAAC
:0201580001D2D2
:02015900007E26
:02015A00005C47
:02015B0000BEE4
:02015C0000841D
:02015D00007E22
:02015E0001ECB2
:02015F0000FCA2
:0201600000E6B7
:02016100007C20
:0201620001CECC
:02016300007426
:02016400004A4F
:0201650001E2B5
:0201660000D6C1
:02016700013461
:02016800005A3B
:0201690001B8DB
:02016A0000741F
:02016B00016829
:02016C0000761B
:02016D0001FE91
:02016E00005C33
:02016F00016A23
:0201700000F499
:02017100016A21
:0201720000B0DB
:02017300016E1B
:0201740000B2D7
:0201750001483F
:0201760000B6D1
:02017700018AFB
:02017800003C49
:02017900012C57
:02017A00001271
:02017B000186FB
:02017C0000F68B
:02017D00016619
:02017E0000AED1
:02017F0001BCC1
:02018000007EFF
:0201810001F883
:0201820000D6A5
:02018300017CFD
:02018400005E1B
:0201850001BABD
:02018600005A1D
:020187000096E0
:0201880000A4D1
:0201890000363E
:02018A000098DB
:02018B000096DC
:02018C0000DC95
:02018D0000B6BA
:02018E0000501F
:02018F00003638
:0201900000501D
:0201910000B6B6
:0201920000E08B
:0201930000B6B4
:0201940000E485
:020195000092D6
:0201960000C4A3
:02019700008ED8
:0201980000ACB9
:02019900005E06
:02019A0000B6AD
:02019B0000461C
:02019C00007CE5
:02019D000062FE
:02019E0000F46B
:02019F0000A6B8
:0201A00000B0AD
:0201A10001CC8F
:0201A20001A6B4
:0201A3000174E5
:0201A400013226
:0201A50001E86F
:0201A6000162F4
:0201A70000B6A0
:0201A800005AFB
:0201A90001DC77
:0201AA000194BE
:0201AB0001FA57
:0201AC0000440D
:0201AD00012C23
:0201AE0001F45A
:0201AF000172DB
:0201B000003A13
:0201B10001EA61
:0201B20000C08B
:0201B300003416
:0201B40001BC8C
:0201B50001FE49
:0201B600012E18
:0201B7000064E2
:0201B80000A69F
:0201B90001E85B
:0201BA0001A69C
:0201BB000146FB
:0201BC0000B68B
:0201BD0000C67A
:0201BE00013E00
:0201BF00008EB0
:0201C00001BA82
:0201C1000162D9
:0201C2000176C4
:0201C3000060DA
:0201C40000F247
:0201C50001FE39
:0201C60000FC3B
:0201C70001EA4B
:0201C80000FE37
:0201C90000FC38
:0201CA000050E3
:0201CB0001B27F
:0201CC0001EA46
:0201CD0001BA75
:0201CE0000FA35
:0201CF0000FE30
:0201D0000078B5
:0201D10001FE2D
:0201D20001B872
:0201D30000EA40
:0201D400012602
:0201D50001E443
:0201D600003CEB
:0201D70001B86D
:0201D800012AFA
:0201D900015EC5
:0201DA0001081A
:0201DB0001968B
:0201DC0000FE23
:0201DD00012EF1
:0201DE0001BC62
:0201DF0001DE3F
:0201E000017CA0
:0201E10001EA31
:0201E2000172A8
:0201E30001B267
:0201E40001FC1C
:0201E500018E89
:0201E60000FC1B
:0201E70001CA4B
:0201E80001DE36
:0201E90000D440
:0201EA0001967C
:0201EB0000CA48
:0201EC0001FC14
:0201ED0001FC13
:0201EE00017896
:0201EF0000EC22
:0201F00001D23A
:0201F10001E427
:0201F20000FE0D
:0201F300017495
:0201F40001F216
:0201F50001E423
:0201F600005EA9
:0201F70001FC09
:0201F800017A8A
:0201F900011CE7
:0201FA00009E65
:0201FB0001C43D
:0201FC0001768A
:0201FD0001CA35
:0201FE0000D827
:0201FF0001F607
:020200000134C7
:02020100017684
:0202020001FCFD
:0202030001DE1A
:0202040001D423
:02020500017A7C
:02020600017481
:0202070001FEF6
:0202080001A44F
:0202090001EC06
:02020A000104ED
:02020B0001BE32
:02020C0001A847
:02020D0001747A
:02020E0001E607
:02020F00019E4E
:02021000016E7D
:0202110000FCEF
:02021200006684
:02021300009059
:02021400004A9E
:02021500018E58
:02021600007A6C
:02021700017272
:02021800009054
:02021900015C86
:02021A00017C65
:02021B00009E43
:02021C000112CD
:02021D0000B22D
:02021E00000ED0
:02021F0001B22A
:020220000110CB
:0202210001AA30
:02022200003AA0
:02022300019642
:0202240000B622
:0202250001B620
:02022600019E37
:0202270001864E
:020228000024B0
:02022900003E95
:02022A00019C35
:02022B0000BC15
:02022C0001B01F
:02022D0000923D
:02022E0001BE0F
:02022F0001B418
:020230000112B9
:0202310000BE0D
:0202320001BE0B
:020233000024A5
:02023400009A2E
:02023500019432
:02023600019035
:02023700013C88
:02023800009C28
:020239000114AE
:02023A000118A9
:02023B0001B40C
:02023C0000348C
:02023D0001BC02
:02023E00009C22
:02023F00019428
:0202400000F0CC
:0202410001B406
:02024200017049
:02024300019424
:0202440000D4E4
:0202450001A412
:02024600008036
:0202470001BCF8
:0202480001CCE7
:0202490001E4CE
:02024A0000CCE6
:02024B0000ECC5
:02024C0001E4CB
:02024D0000B8F7
:02024E0000D4DA
:02024F00004C61
:0202500000703C
:0202510000BCEF
:0202520001C4E5
:0202530000ACFD
:0202540001D0D7
:02025500019C0A
:0202560001683D
:0202570000DCC9
:02025800017C27
:0202590000C0E3
:02025A00017C25
:02025B00015C44
:02025C00016C33
:02025D0000F8A7
:02025E0001702D
:02025F00007825
:0202600001ECAF
:0202610001F0AA
:02026200003862
:0202630001CCCC
:02026400012C6B
:02026500019CFA
:0202660001BCD9
:0202670001C0D4
:02026800017C17
:0202690000484B
:02026A00012869
:02026B0001ACE4
:02026C0001F897
:02026D0001E4AA
:02026E0001F895
:02026F0001F894
:0202700000CCC0
:0202710000FC8F
:0202720000B0DA
:0202730001B8D0
:0202740000FC8C
:0202750000BCCB
:020276000190F5
:0202770001E4A0
:0202780001F48F
:0202790001B8CA
:02027A0000087A
:02027B0000542D
:02027C0000F090
:02027D0000F08F
:02027E0000B4CA
:02027F0001F488
:0202800001B0CB
:020281000180FA
:02028200017405
:0202830001B8C0
:02028400006C0C
:0202850001B8BE
:020286000098DE
:02028700014430
:02028800017003
:02028900015C16
:02028A00019CD5
:02028B000188E8
:02028C0001FC73
:02028D0001F876
:02028E00004C22
:02028F0000303D
:020290000198D3
:0202910001FC6E
:020292000070FA
:02029300015C0C
:02029400013037
:0202950000B0B7
:020296000074F2
:02029700014024
:0202980000B0B4
:0202990001481A
:02029A0001FC65
:02029B0001E080
:02029C0000B0B0
:02029D00003827
:02029E0000401E
:02029F00014814
:0202A00001BC9F
:0202A10000DC7F
:0202A20001A8B1
:0202A3000070E9
:0202A4000190C7
:0202A50001D086
:0202A6000174E1
:0202A70000BC99
:0202A80001CC87
:0202A90000282B
:0202AA0001A0B1
:0202AB0000B899
:0202AC000178D7
:0202AD000194BA
:0202AE0001F459
:0202AF00006CE1
:0202B000013C0F
:0202B10001BC8E
:0202B200012C1D
:0202B300012820
:0202B40001B097
:0202B50000BC8B
:0202B600003412
:0202B70000F055
:0202B80001B48F
:0202B90000340F
:0202BA00015CE5
:0202BB0000E859
:0202BC000178C7
:0202BD00002C13
:0202BE0000AC92
:0202BF0001BC80
:0202C00001FC3F
:0202C10000C477
:0202C2000178C1
:0202C30001C870
:0202C400011027
:0202C50000C473
:0202C600014CE9
:0202C7000154E0
:0202C80001D85B
:0202C90000C86B
:0202CA000190A1
:0202CB000190A0
:0202CC00003CF4
:0202CD0001CC62
:0202CE00019499
:0202CF000044E9
:0202D00000A884
:0202D1000038F3
:0202D20000AC7E
:0202D3000174B4
:0202D4000034F4
:0202D5000178AE
:0202D60000EC3A
:0202D70000DC49
:0202D80001180B
:0202D90000F033
:0202DA0001E43D
:0202DB0000AC75
:0202DC00016CB3
:0202DD0001A876
:0202DE0001B865
:0202DF0001DC40
:0202E00000FC20
:0202E10001DC3E
:0202E200002CEE
:0202E30001F424
:0202E400019A7D
:0202E5000168AE
:0202E60001BE57
:0202E70000CC49
:0202E80001BA59
:0202E90000A271
:0202EA0001AE63
:0202EB0001B858
:0202EC00010A05
:0202ED0001FE10
:0202EE0001E825
:0202EF0001D636
:0202F00001EC1F
:0202F10001BC4E
:0202F20001C841
:0202F300005CAD
:0202F400018681
:0202F500017096
:0202F600002ED8
:0202F700009471
:0202F800016E95
:0202F90001788A
:0202FA0001669B
:0202FB0000C839
:0202FC00016699
:0202FD000130CE
:0202FE0001F20B
:0202FF000038C5
:020300000122D8
:02030100019663
:0203020001EE0A
:020303000022D6
:0203040001B046
:0203050001BA3B
:02030600016490
:0203070000BA3A
:0203080001A052
:02030900013EB3
:02030A0001F8F8
:02030B0000AA46
:02030C0001628C
:02030D00006A84
:02030E0001B438
:02030F00009A52
:02031000012AC0
:02031100010EDB
:0203120000FCED
:0203130000BC2C
:0203140001F8EE
:0203150001984D
:02031600017A6A
:0203170000ECF8
:0203180001BA28
:020319000038AA
:02031A0000F8E9
:02031B00017E61
:02031C00012EB0
:02031D0000BC22
:02031E00012EAE
:02031F0000E8F4
:02032000011EBC
:0203210000FCDE
:02032200015E7A
:0203230000BC1C
:020324000032A5
:0203250001F0E5
:02032600006E67
:02032700019A39
:02032800007261
:02032900018E43
:02032A00003C95
:02032B0000A62A
:02032C0000646B
:02032D0001A22B
:02032E0001E4E8
:02032F0000D4F8
:0203300001E4E6
:0203310001BE0B
:02033200006C5D
:0203330001D6F1
:0203340001E4E2
:0203350001F2D3
:0203360001E8DC
:02033700003C88
:0203380000F6CD
:0203390001C001
:02033A0001F2CE
:02033B0000DCE4
:02033C00016C52
:02033D0000A21C
:02033E0001F8C4
:02033F00006A52
:0203400000BCFF
:02034100005664
:0203420001CEEA
:0203430001FABD
:0203440000AE09
:02034500014273
:02034600009A1B
:0203470001FEB5
:02034800003083
:02034900017E33
:02034A0001BCF4
:02034B00008E22
:02034C0001B4FA
:02034D0001CEDF
:02034E00017438
:02034F00004C60
:02035000001695
:0203510000CEDC
:0203520001E0C8
:0203530001ACFB
:02035400001E89
:0203550000EEB8
:02035600017C28
:0203570001F4AF
:0203580000683B
:02035900000A98
:02035A0001DEC2
:02035B0001FAA5
:02035C0001346A
:02035D0000ECB2
:02035E0001AEEE
:02035F00005646
:0203600001AEEC
:0203610000BCDE
:02036200015840
:0203630000BEDA
:0203640001DEB8
:0203650000A6F0
:0203660001385C
:0203670001DCB7
:0203680001FC96
:0203690000D8BA
:02036A0001F0A0
:02036B0001BAD5
:02036C0001FE90
:02036D0000F09E
:02036E00013E4E
:02036F00014C3F
:02037000007E0D
:02037100013455
:0203720001E8A0
:02037300017017
:02037400019EE8
:02037500002E58
:02037600013C48
:02037700003A4A
:0203780001E69C
:0203790000EE94
:02037A00012A56
:02037B0000DEA2
:02037C0001A4DA
:02037D00005E20
:02037E00003647
:02037F0001EC8F
:0203800001304A
:02038100019ADF
:02038200017CFC
:0203830000EE8A
:02038400007601
:0203850001FE77
:02038600008EE7
:0203870001BCB7
:0203880001581A
:0203890001A2CF
:02038A00013C34
:02038B0001EE81
:02038C00014E20
:02038D0001B6B7
:02038E00015616
:02038F0001E685
:02039000011C4E
:0203910001FE6B
:0203920001E682
:02039300019EC9
:02039400017AEC
:02039500017CE9
:02039600012C38
:02039700005410
:02039800006CF7
:02039900011E43
:02039A000064FD
:02039B000168F7
:02039C00005E01
:02039D0000DC82
:02039E00017CE0
:02039F00008CD0
:0203A000005407
:0203A100012E2B
:0203A200017ADE
:0203A300008ACE
:0203A40000183F
:0203A500006CEA
:0203A600013A1A
:0203A700017CD7
:0203A800012C26
:0203A90000BE94
:0203AA000174DC
:0203AB000064EC
:0203AC00011A34
:0203AD0000EA64
:0203AE00014C00
:0203AF0000F458
:0203B000011C2E
:0203B10000CE7C
:0203B200012820
:0203B300007CCC
:0203B40001DE68
:0203B500005EE8
:0203B600017EC6
:0203B70000D86C
:0203B80000BC87
:0203B9000070D2
:0203BA000068D9
:0203BB0000DA66
:0203BC0001E856
:0203BD0000E856
:0203BE0001B686
:0203BF0000FA42
:0203C00001BA80
:0203C10001EE4B
:0203C2000146F2
:0203C3000074C4
:0203C40001D85E
:0203C50000BA7C
:0203C600013CF8
:0203C7000074C0
:0203C8000136FC
:0203C90000FA38
:0203CA0001BA76
:0203CB00005AD6
:0203CC00017CB2
:0203CD000136F7
:0203CE0001EC40
:0203CF0000DE4E
:0203D00001F436
:0203D100004EDC
:0203D200016CBC
:0203D300012EF9
:0203D40001F036
:0203D50001AC79
:0203D6000176AE
:0203D70001A67D
:0203D80001B66C
:0203D90000BE64
:0203DA0001DE42
:0203DB0000CA56
:0203DC000158C6
:0203DD0001BC61
:0203DE000046D7
:0203DF0001DC3F
:0203E00001EC2E
:0203E10001DE3B
:0203E20001AC6C
:0203E30001EE29
:0203E400019E78
:0203E5000166AF
:0203E60001FE16
:0203E70000E232
:0203E80000EC27
:0203E90000769C
:0203EA00018C84
:0203EB00010E01
:0203EC00019E70
:0203ED00017C91
:0203EE0001CC40
:0203EF0000FE0E
:0203F00000EE1D
:0203F100011EEB
:0203F20000A267
:0203F300003ECA
:0203F40001FC0A
:0203F50000B650
:0203F60000DE27
:0203F70001D42F
:0203F800003AC9
:0203F90001728F
:0203FA0000F809
:0203FB0001C639
:0203FC00002ED1
:0203FD0001B04D
:0203FE0000DC21
:0203FF000124D7
:00000001FF
