:02000000016C91
:0200010000B647
:0200020000A05C
:020003000040BB
:02000400011ADF
:020005000148B0
:02000600011ADD
:0200070000C235
:020008000010E6
:02000900017282
:02000A000020D4
:02000B00015C96
:02000C000110E1
:02000D0001CC24
:02000E00016887
:02000F0000B03F
:02001000019657
:0200110000806D
:0200120000C02C
:020013000024C7
:0200140001EAFF
:020015000022C7
:02001600017C6B
:020017000020C7
:02001800011ACB
:020019000020C5
:02001A0000B62E
:02001B0000D013
:02001C0001A63B
:02001D000014CD
:02001E0000647C
:02001F00001EC1
:0200200001E0FD
:02002100008459
:020022000110CB
:0200230000508B
:020024000020BA
:02002500007E5B
:020026000018C0
:020027000126B0
:020028000028AE
:020029000132A2
:02002A0001884B
:02002B00016072
:02002C00011CB5
:02002D0000943D
:02002E000106C9
:02002F000110BE
:0200300000507E
:020031000002CB
:02003200003696
:0200330000E8E3
:02003400014485
:02003500008445
:02003600006662
:02003700004681
:02003800015273
:0200390000A025
:02003A000000C4
:02003B0001C6FC
:02003C0000645E
:02003D0000B60B
:02003E0001744B
:02003F0000C2FD
:0200400001F0CD
:0200410001A01C
:02004200014C6F
:02004300012298
:02004400012693
:0200450001F2C6
:02004600003484
:0200470001C4F2
:02004800013E77
:02004900004273
:02004A0001A211
:02004B00016250
:02004C0001FCB5
:02004D0001228E
:02004E00006848
:02004F0001822C
:0200500001307D
:02005100018C20
:020052000108A3
:0200530001F8B2
:02005400016445
:0200550000B2F7
:0200560001E8BF
:02005700002681
:0200580001F0B5
:02005900008421
:02005A0001980B
:02005B00002E75
:02005C0001E2BF
:02005D0000623F
:02005E0001009F
:02005F0000900F
:0200600000405E
:02006100000895
:02006200019209
:0200630000ECAF
:02006400001E7C
:0200650000BCDD
:02006600011087
:0200670001A4F2
:0200680000B8DE
:02006900011084
:02006A00008410
:02006B0000187B
:02006C0001E6AB
:02006D0001CAC6
:02006E0000028E
:02006F0001602E
:0200700001800D
:02007100003E4F
:0200720001DAB1
:0200730000F497
:02007400015633
:02007500002E5B
:02007600018007
:02007700017610
:02007800004046
:0200790000661F
:02007A00010281
:02007B0001661C
:02007C00011C65
:02007D0001621E
:02007E00015A25
:02007F00001A65
:02008000011667
:02008100002855
:02008200005428
:0200830001F08A
:02008400001466
:0200850001E494
:02008600001266
:0200870000F87F
:02008800015223
:0200890000E095
:02008A0001363D
:02008B000080F3
:02008C00016C05
:02008D00000C65
:02008E00003838
:02008F000084EB
:0200900000224C
:02009100000469
:0200920001E487
:020093000176F4
:0200940000501A
:0200950000F871
:0200960000D296
:0200970000D295
:02009800016203
:0200990001C0A4
:02009A000084E0
:02009B0000CE95
:02009C0000481A
:02009D000078E9
:02009E0001E07F
:02009F000096C9
:0200A000008AD4
:0200A10000104D
:0200A200014E0D
:0200A30000B6A5
:0200A400014613
:0200A500000059
:0200A600004414
:0200A70001C492
:0200A800013223
:0200A900008ACB
:0200AA0000F064
:0200AB0000E86B
:0200AC000054FE
:0200AD00002A27
:0200AE000160EF
:0200AF0000C28D
:0200B0000086C8
:0200B10000F05D
:0200B200010249
:0200B3000074D7
:0200B400000E3C
:0200B500001E2B
:0200B600004AFE
:0200B700001631
:0200B800002422
:0200B90000D075
:0200BA000068DC
:0200BB00011E24
:0200BC0000E65C
:0200BD0000142D
:0200BE0001D26D
:0200BF0000003F
:0200C0000050EE
:0200C100010834
:0200C200007AC2
:0200C300010436
:0200C4000150E9
:0200C500010632
:0200C600000236
:0200C7000182B4
:0200C80001BC79
:0200C900006ACB
:0200CA0000062E
:0200CB00013200
:0200CC000044EE
:0200CD0001E44C
:0200CE0001220D
:0200CF00005CD3
:0200D0000080AE
:0200D100001617
:0200D200001616
:0200D30000A685
:0200D40000F634
:0200D50000E247
:0200D6000056D2
:0200D700004ADD
:0200D800001C0A
:0200D900012202
:0200DA00012AF9
:0200DB000072B1
:0200DC0000EE34
:0200DD0000D44D
:0200DE00014AD5
:0200DF000154CA
:0200E0000048D6
:0200E100001409
:0200E200017AA1
:0200E3000162B8
:0200E400005AC0
:0200E5000124F4
:0200E600010A0D
:0200E700009681
:0200E800004ACC
:0200E9000070A5
:0200EA00014CC7
:0200EB0000B85B
:0200EC00000C06
:0200ED000068A9
:0200EE00018887
:0200EF0000C04F
:0200F000008C82
:0200F1000048C5
:0200F20000A06C
:0200F30000A467
:0200F40001BA4F
:0200F5000054B5
:0200F60001D235
:0200F700000205
:0200F8000142C3
:0200F900007095
:0200FA000022E2
:0200FB00006E95
:0200FC0001649D
:0200FD00005CA5
:0200FE000146B9
:0200FF000042BD
:0201000001E616
:02010100017883
:020102000142B8
:02010300000AF0
:0201040000A455
:02010500008078
:02010600008473
:02010700005A9C
:020108000104F0
:02010900015C97
:02010A0001965C
:02010B0001C22F
:02010C000110E0
:02010D00000AE6
:02010E00018C62
:02010F0000DC12
:02011000015696
:02011100007C70
:020112000146A4
:020113000140A9
:02011400014E9A
:02011500008266
:0201160000CE19
:020117000110D5
:02011800011CC8
:0201190001F2F1
:02011A000018CB
:02011B0000C022
:02011C000020C1
:02011D00006878
:02011E0000A03F
:02011F00000CD2
:0201200000805D
:02012100009C40
:0201220000AE2D
:02012300000CCE
:0201240000A831
:02012500014295
:02012600008453
:02012700000CCA
:0201280000C411
:020129000018BC
:02012A000026AD
:02012B0001DCF5
:02012C00006071
:02012D0001626D
:02012E000104CA
:02012F0000AA24
:0201300000C00D
:02013100018E3D
:020132000022A9
:0201330000CA00
:020134000114B4
:02013500003C8C
:02013600004483
:02013700014085
:0201380001F4D0
:02013900008C38
:02013A00008C37
:02013B0001A21F
:02013C0000328F
:02013D0000625E
:02013E000108B6
:02013F0000AE10
:0201400000BC01
:0201410000229A
:0201420001C8F2
:0201430001E6D3
:02014400009E1B
:02014500012A8D
:02014600000CAB
:020147000002B4
:0201480000CAEB
:0201490000268E
:02014A00000CA7
:02014B0000C8EA
:02014C0001E8C8
:02014D0000228E
:02014E00000AA5
:02014F000002AC
:02015000006A43
:020151000108A3
:02015200003A71
:0201530000E6C4
:02015400015C4C
:020155000002A6
:02015600008A1D
:020157000000A6
:02015800003C69
:020159000004A0
:02015A0001386A
:02015B0000940E
:02015C0001524E
:02015D00004060
:02015E00002A75
:02015F00010697
:0201600001207C
:02016100004458
:0201620000AAF1
:0201630000801A
:02016400018414
:02016500008810
:0201660000AEE9
:02016700018A0B
:02016800008015
:02016900008410
:02016A000194FE
:02016B0000068C
:02016C0000226F
:02016D0000048C
:02016E00012A64
:02016F000090FE
:02017000010488
:0201710001B2D9
:0201720000800B
:0201730000206A
:02017400000287
:02017500008008
:02017600006423
:02017700003650
:02017800018400
:02017900002460
:02017A0001A2E0
:02017B0000186A
:02017C000088F9
:02017D0001C0BF
:02017E00012C52
:02017F0000047A
:0201800000EE8F
:0201810000A8D4
:02018200008AF1
:02018300010C6D
:02018400000079
:0201850000A8D0
:02018600006611
:02018700003442
:0201880000A4D1
:0201890000462E
:02018A000180F2
:02018B0000A0D2
:02018C00002051
:02018D00006010
:02018E0001E08E
:02018F000180ED
:02019000000469
:0201910000A4C8
:02019200014426
:0201930001C0A9
:0201940001B4B4
:0201950001C0A7
:02019600014C1A
:0201970001580D
:02019800004421
:02019900012E35
:02019A0001481A
:02019B0000243E
:02019C000084DD
:02019D0000243C
:02019E000080DF
:02019F0001E479
:0201A0000080DD
:0201A100012635
:0201A200011842
:0201A300015009
:0201A4000184D4
:0201A500010057
:0201A600010056
:0201A700000650
:0201A800002035
:0201A90001A2B1
:0201AA00001C37
:0201AB0000084A
:0201AC0000044D
:0201AD000060F0
:0201AE000182CC
:0201AF0000400E
:0201B00001024A
:0201B1000194B7
:0201B20000C08B
:0201B300002624
:0201B4000092B7
:0201B500000246
:0201B600010442
:0201B7000090B6
:0201B8000094B1
:0201B900002024
:0201BA000184BE
:0201BB0001E061
:0201BC000048F9
:0201BD0000241C
:0201BE000088B7
:0201BF0000C47A
:0201C00000003D
:0201C10000C478
:0201C200010238
:0201C30000A298
:0201C400002811
:0201C500000E2A
:0201C60000082F
:0201C700010035
:0201C800012A0A
:0201C900012C07
:0201CA00000C27
:0201CB00012E03
:0201CC000088A9
:0201CD0001200F
:0201CE0000A48B
:0201CF00000C22
:0201D000012C00
:0201D100003AF2
:0201D20000002B
:0201D300012603
:0201D400002405
:0201D500008E9A
:0201D60001F432
:0201D700000A1C
:0201D80000A481
:0201D90000E440
:0201DA0001F032
:0201DB0000D052
:0201DC00004CD5
:0201DD000120FF
:0201DE00005CC3
:0201DF00001E00
:0201E00000E03D
:0201E1000140DB
:0201E200018298
:0201E300018099
:0201E400010216
:0201E500000E0A
:0201E6000046D1
:0201E7000034E2
:0201E80000A66F
:0201E9000126ED
:0201EA00004EC5
:0201EB00005AB8
:0201EC0000AE63
:0201ED0000927E
:0201EE000020EF
:0201EF000046C8
:0201F0000040CD
:0201F100002CE0
:0201F200010406
:0201F300005CAE
:0201F400000009
:0201F5000040C8
:0201F600000CFB
:0201F700009A6C
:0201F8000048BD
:0201F9000012F2
:0201FA0001C042
:0201FB00000002
:0201FC0000AE53
:0201FD000004FC
:0201FE000006F9
:0201FF00007C82
:0202000000E616
:0202010000906B
:0202020000D426
:020203000118E0
:020204000026D2
:020205000104F2
:0202060000A650
:0202070000A451
:020208000012E2
:0202090000846F
:02020A0000A250
:02020B0000648D
:02020C00008C64
:02020D00008669
:02020E0001A647
:02020F0000806D
:020210000024C8
:02021100000EDD
:02021200018069
:02021300018266
:02021400006286
:020215000040A7
:0202160000A83E
:0202170000C025
:0202180000E202
:020219000130B2
:02021A0000C61C
:02021B00002AB7
:02021C0000E2FE
:02021D00018658
:02021E0000548A
:02021F00002EAF
:0202200000BC20
:020221000004D7
:020222000116C3
:0202230000E6F3
:02022400000CCC
:0202250000CC0B
:02022600007264
:020227000018BD
:020228000028AC
:0202290001A42E
:02022A00006C66
:02022B0001C40C
:02022C0001844B
:02022D0001ECE2
:02022E00008648
:02022F00008449
:0202300001A02B
:0202310000606B
:020232000124A5
:020233000020A9
:020234000000C8
:02023500004483
:0202360000E6E0
:020237000124A0
:020238000114AF
:020239000004BF
:02023A0001A021
:02023B000102BE
:02023C0000B40C
:02023D0001704E
:02023E0001407D
:02023F000106B6
:020240000106B5
:02024100002695
:0202420000B406
:020243000002B7
:02024400009424
:02024500003285
:02024600009026
:0202470000486D
:02024800004A6A
:02024900002A89
:02024A0000B4FE
:02024B00000CA5
:02024C0000D6DA
:02024D000100AE
:02024E0000B6F8
:02024F00009617
:0202500000A20A
:0202510001B0FA
:0202520001B6F3
:020253000006A3
:02025400002484
:02025500017036
:02025600014263
:02025700006C39
:02025800005450
:0202590000742F
:02025A00004260
:02025B0001F4AC
:02025C0001D8C7
:02025D0000643B
:02025E0000D2CC
:02025F00006637
:02026000004458
:0202610001009A
:02026200001684
:02026300001287
:02026400008C0C
:02026500013462
:0202660000C4D2
:02026700002E67
:02026800004450
:0202690000D0C3
:02026A0000D0C2
:02026B00013C54
:02026C0000226E
:02026D0001840A
:02026E0001107D
:02026F0000028B
:02027000000686
:02027100005833
:02027200000684
:0202730001C4C4
:02027400003652
:02027500008601
:02027600011C69
:02027700002A5B
:02027800001470
:0202790000ACD7
:02027A0000265C
:02027B0000562B
:02027C0000A0E0
:02027D00006817
:02027E00007C02
:02027F0000CCB1
:0202800000F08C
:02028100000279
:0202820000BEBC
:02028300000277
:02028400004434
:0202850001DA9C
:02028600000076
:0202870000B0C5
:02028800001E56
:0202890000F47F
:02028A0001E48D
:02028B0000A2CF
:02028C00010C63
:02028D0000D09F
:02028E0000D49A
:02028F000092DB
:0202900000204C
:02029100001457
:02029200011851
:0202930000D891
:02029400004028
:02029500003037
:0202960001184D
:0202970000B8AD
:02029800004A1A
:020299000082E1
:02029A0000065C
:02029B00006EF3
:02029C0001D08F
:02029D0000401F
:02029E000072EC
:02029F00005805
:0202A000003626
:0202A100000C4F
:0202A200000456
:0202A30000E079
:0202A400004810
:0202A50001381E
:0202A6000086D0
:0202A700003421
:0202A80000D282
:0202A90001B0A2
:0202AA00000052
:0202AB00002031
:0202AC0000C888
:0202AD000184CA
:0202AE000088C6
:0202AF0000E667
:0202B00000400C
:0202B100010842
:0202B200014405
:0202B300002029
:0202B40001E463
:0202B500011036
:0202B6000082C4
:0202B700011232
:0202B800002222
:0202B900011032
:0202BA0000A89A
:0202BB000060E1
:0202BC00002C14
:0202BD0001E25C
:0202BE000142FB
:0202BF000170CC
:0202C0000086B6
:0202C10001300A
:0202C20000201A
:0202C300010A2E
:0202C4000186B1
:0202C50001A88E
:0202C6000090A6
:0202C7000138FC
:0202C80000280C
:0202C90001240E
:0202CA000132FF
:0202CB00001A17
:0202CC000066CA
:0202CD0001E648
:0202CE00007EB0
:0202CF000050DD
:0202D0000138F3
:0202D1000080AB
:0202D200002CFE
:0202D30000A287
:0202D400002800
:0202D500000027
:0202D600007CAA
:0202D7000142E2
:0202D80000AC78
:0202D900002201
:0202DA0000D44E
:0202DB0000B26F
:0202DC0001140B
:0202DD00002EF1
:0202DE000140DD
:0202DF00004CD1
:0202E00000C25A
:0202E10000AC6F
:0202E200000E0C
:0202E3000160B8
:0202E400000216
:0202E500001007
:0202E600000610
:0202E70000EA2B
:0202E800008094
:0202E90001CE44
:0202EA000066AC
:0202EB000024ED
:0202EC0000060A
:0202ED00004AC5
:0202EE000014FA
:0202EF0000C24B
:0202F00000A666
:0202F100008289
:0202F2000010FA
:0202F30001CA3E
:0202F400002ADE
:0202F500005CAB
:0202F600008680
:0202F70001689C
:0202F80000CA3A
:0202F90000C241
:0202FA0000A260
:0202FB000144BC
:0202FC00008E72
:0202FD0000E41B
:0202FE00008A74
:0202FF0000F805
:0203000001D228
:02030100001AE0
:020302000026D3
:02030300008A6E
:020304000100F6
:0203050000C630
:0203060000B441
:020307000106ED
:020308000044AF
:0203090000C230
:02030A000032BF
:02030B00015C93
:02030C0000529D
:02030D0001925B
:02030E000010DD
:02030F0001E605
:02031000018862
:020311000134B5
:020312000142A6
:02031300006286
:0203140000588F
:020315000112D3
:020316000102E2
:020317000020C4
:020318000102E0
:020319000012D0
:02031A00003AA7
:02031B0000D40C
:02031C0000F6E9
:02031D000112CB
:02031E000036A7
:02031F0001409B
:0203200000EEED
:020321000000DA
:02032200006277
:02032300003C9C
:02032400018E48
:02032500007066
:02032600008253
:02032700003A9A
:0203280000A033
:02032900005280
:02032A00009041
:02032B00017A55
:02032C0001D8F6
:02032D00006A64
:02032E00002CA1
:02032F000028A4
:0203300001AA20
:020331000006C4
:0203320000AE1B
:02033300002E9A
:02033400010ABC
:0203350001BA0B
:02033600018044
:02033700007054
:020338000000C3
:0203390001F8C9
:02033A00001AA7
:02033B000004BC
:02033C0000605F
:02033D0000348A
:02033E00008637
:02033F00003C80
:020340000100BA
:020341000012A8
:0203420001F0C8
:0203430000DEDA
:02034400007641
:02034500002096
:0203460000E6CF
:02034700005A5A
:02034800003A79
:020349000000B2
:02034A0001F2BE
:02034B000002AE
:02034C0000A609
:02034D0001604D
:02034E00011498
:02034F0000703C
:0203500001C0EA
:02035100006644
:02035200006247
:0203530001E2C5
:02035400005A4D
:02035500016A3B
:02035600013074
:02035700002480
:02035800004063
:02035900009C06
:02035A00008A17
:02035B0000722E
:02035C0001D4CA
:02035D0000B4EA
:02035E00001687
:02035F00002C70
:02036000018218
:02036100016633
:02036200009AFF
:0203630001A8EF
:0203640001F6A0
:0203650001563F
:02036600003065
:0203670000C8CC
:0203680001B4DE
:02036900012E63
:02036A00004051
:02036B0001424D
:02036C0001BAD4
:02036D00004A44
:02036E0000721B
:02036F00008606
:0203700001D2B8
:02037100005634
:02037200011078
:02037300006424
:0203740000C2C5
:02037500005630
:02037600000085
:020377000088FC
:0203780000364D
:0203790000DAA8
:02037A0001D0B0
:02037B00011669
:02037C000196E8
:02037D0000C4BA
:02037E0000126B
:02037F0000304C
:0203800001007A
:02038100001466
:02038200002C4D
:02038300014235
:02038400003047
:02038500014E27
:02038600004233
:0203870001EC87
:020388000180F2
:0203890001165B
:02038A0001E888
:02038B0001006F
:02038C00010668
:02038D00014A23
:02038E00010A62
:02038F0001B2B9
:0203900001EC7E
:02039100013633
:02039200012444
:02039300016AFD
:02039400012046
:020395000188DD
:02039600016400
:02039700010063
:0203980001B6AC
:02039900011A47
:02039A0001263A
:02039B00000060
:02039C000164FA
:02039D0001203D
:02039E000060FD
:02039F00001448
:0203A00001401A
:0203A100012435
:0203A200002633
:0203A300004612
:0203A400011A3C
:0203A5000078DE
:0203A600001243
:0203A700002E26
:0203A800001043
:0203A900007ED4
:0203AA0000123F
:0203AB0000440C
:0203AC000098B7
:0203AD0000044A
:0203AE000160EC
:0203AF00001438
:0203B000001437
:0203B100014AFF
:0203B200004009
:0203B300011037
:0203B4000188BE
:0203B5000052F4
:0203B600008ABB
:0203B700012023
:0203B800004CF7
:0203B9000052F0
:0203BA000090B1
:0203BB0000AE92
:0203BC00012618
:0203BD00014CF1
:0203BE0000003D
:0203BF00008AB2
:0203C00001C07A
:0203C1000086B4
:0203C200001227
:0203C300010C2B
:0203C40001A096
:0203C5000046F0
:0203C60000A491
:0203C7000088AC
:0203C800012A08
:0203C9000140F1
:0203CA0000929F
:0203CB0000EC44
:0203CC0000909F
:0203CD00014EDF
:0203CE0000002D
:0203CF0000A08C
:0203D000006CBF
:0203D100011E0B
:0203D2000188A0
:0203D300002404
:0203D400000027
:0203D500016CB9
:0203D600012004
:0203D7000146DD
:0203D80000869D
:0203D90000081A
:0203DA000146DA
:0203DB000022FE
:0203DC00007CA3
:0203DD000148D5
:0203DE000142DA
:0203DF0001E437
:0203E000000813
:0203E10000C654
:0203E2000048D1
:0203E3000074A4
:0203E400015ABC
:0203E50000AC6A
:0203E600006EA7
:0203E70001E82B
:0203E8000048CB
:0203E90001828F
:0203EA00000011
:0203EB0001CC43
:0203EC000162AC
:0203ED0001BC51
:0203EE000154B8
:0203EF0001CA41
:0203F0000022E9
:0203F100018485
:0203F2000168A0
:0203F3000022E6
:0203F400007097
:0203F50000A066
:0203F6000152B2
:0203F70001C043
:0203F80001A062
:0203F9000006FC
:0203FA0000C43D
:0203FB0001609F
:0203FC000144BA
:0203FD000054AA
:0203FE0000F00D
:0203FF000044B8
:00000001FF
